:020000040800F2
:10000000180A002001010008270F0008B10E00089F
:10001000250F00088906000857130008000000009B
:10002000000000000000000000000000F1120008C5
:100030008B06000800000000EF120008F312000811
:100040001B0100081B0100081B0100081B01000820
:100050001B0100081B0100081B0100081B01000810
:100060001B0100081B0100081B0100081B01000800
:100070001B0100081B0100081B0100081B010008F0
:100080001B0100081B0100081B0100081B010008E0
:100090001B0100081B0100081B0100081B010008D0
:1000A0001B0100081B0100081B0100081B010008C0
:1000B0001B0100081B0100081B0100081B010008B0
:1000C0001B0100081B0100081B0100081B010008A0
:1000D0001B0100081B0100081B0100081B01000890
:1000E0001B0100081B0100081B010008DFF80CD0F1
:1000F00000F0B8FA00480047791C0008180A0020F0
:100100000648804706480047FEE7FEE7FEE7FEE7B1
:10011000FEE7FEE7FEE7FEE7FEE7FEE75513000811
:10012000ED000008202A04DB203A21FA02F0002129
:10013000704721FA02F3D040C2F1200291400843F7
:1001400019467047D2B201E000F8012B491EFBD2DC
:1001500070470022F6E710B513460A4604461946D2
:10016000FFF7F0FF204610BD2DE9FE4F804681EAE3
:100170000300C00F0C46009021F0004123F0004521
:10018000B8EB0200A94105D24046214690461C46E4
:100190000B46024623F00040104347D0270DC7F31B
:1001A0000A00C3F30A510290401A019040286BDA0A
:1001B000C3F3130040F4801B0098924620B1002343
:1001C000D2EB030A63EB0B0B01985946C0F14002D6
:1001D000504600F0B0F906460D4650465946019A81
:1001E00000F0B8F910EB08006141002487EA1152D1
:1001F00084EAE7731A4340D0009A62B3019A012A55
:100200004FEA075215DC001B61EB02014FF0004280
:1002100002EA0752CDE90042001C41F58011324646
:100220002B4600F0B8F903B0BDE8F08F40462146F8
:10023000F9E7001B61EB0201001C41F58013001877
:100240005B412018A2F5001747EB030140EAD57087
:10025000B6196D4111E06D084FEA360645EAC075E2
:100260004FEA0752001B61EB0201001C41F58011AF
:1002700049084FEA30000019514132462B4603B07D
:10028000BDE8F04F00F078B900980122400000234B
:10029000D0EB020263EBE073009821464FEAE07472
:1002A000B8EB000061EB0401E9E783F000435BE792
:1002B00081F0004158E72DE9FE4F81EA030404F084
:1002C000004421F0004100944FF0000B23F0004364
:1002D00050EA01045ED052EA03045BD0C3F30A542F
:1002E000C1F30A552C44A4F2F3340194A0FB025448
:1002F000C1F3130141F48011C3F3130343F48013DA
:1003000001FB024400FB034E840A970A44EA81542D
:1003100047EA8357A4FB076802958D0A05FB07850A
:100320004FEA932C04FB0C542705029D4FEA065814
:1003300047EA1637B5EB08056EEB070C870E920EF1
:1003400047EA811742EA8312A7FB0201B6EB0B01D1
:1003500064EB00042B0D43EA0C335E1844EB1C5095
:10036000DA465146E7FB0201C5F313044FEA0B33AB
:1003700043EA14534FEA0432019C43EA0603A4F112
:100380000C040294009CCDE900B400F004F903B021
:10039000BDE8F08F00200146F9E72DE9F04D81EA34
:1003A000030404F0004B21F0004514464FF0000A0E
:1003B00023F0004150EA050220D054EA01021DD08A
:1003C000C5F30A570246C5F31303C1F31300C1F383
:1003D0000A5640F4801543F48013A7EB0608101B5F
:1003E000D64608F2FD3873EB050002D308F1010888
:1003F00001E092185B41B8F1000F03DA00200146DA
:10040000BDE8F08D00204FF48011064684460EE0D2
:10041000171B73EB050705D3121B63EB050306439C
:100420004CEA010C49084FEA300092185B4150EA4F
:100430000107EDD152EA030012D082EA040083EAF8
:100440000501084305D0101BAB4106D20122002351
:1004500006E000224FF0004302E06FF0010253106B
:100460001AEB06004CEB085110EB0A0041EB0B01B4
:10047000BDE8F04D00F080B830B5041E71F1000405
:1004800004DB4FF00044404264EB0101141E73F1A1
:10049000000405DB1C464FF00043524263EB0403AB
:1004A000994208BF904230BD30B50B46014600204E
:1004B0002022012409E021FA02F59D4205D303FA26
:1004C00002F5491B04FA02F52844151EA2F10102A7
:1004D000F1DC30BD2DE9F05F0546002092469B46D9
:1004E00088460646814640241BE02846414647464A
:1004F0002246FFF717FE53465A46C01A914110D3C1
:1005000011461846224600F016F82D1A67EB01082E
:100510004F4622460120002100F00DF817EB00099C
:100520004E41201EA4F10104DFDC484631462A4634
:100530004346BDE8F09F202A04DB203A00FA02F18E
:10054000002070479140C2F1200320FA03F31943C1
:1005500090407047202A06DBCB17203A41FA02F080
:1005600043EAE07306E041FA02F3D040C2F1200210
:10057000914008431946704710B5141E73F10004EA
:1005800008DA401C41F1000192185B411A4301D185
:1005900020F0010010BD2DE9F04D92469B4611B1AF
:1005A000B1FA81F202E0B0FA80F220329046FFF711
:1005B000C2FF04460F4640EA0A0041EA0B015346D7
:1005C0005A46084313D0114653EA010019D0C8F126
:1005D00040025046FFF7A6FD05460E4650465946D6
:1005E0004246FFF7A8FF084305D0012004E020465B
:1005F0003946BDE8F08D0020054346EAE0762C43FD
:1006000037430A986305E40AA0EB08000022FD0ABC
:1006100044EA47540A3002D500200146E9E70105C3
:1006200010196941DDE9084500196941BDE8F04D3F
:10063000A2E7C1F30A52C1F3130140F2FF3341F4C0
:1006400080119A4202DA00200146704740F233439B
:100650009A42A2F2334202DC5242FFF763BDFFF737
:100660006ABF0000064C074D06E0E06840F0010359
:1006700094E8070098471034AC42F6D3FFF73AFDF0
:100680007425000894250008FEE7704710B50C207B
:1006900001F014FB4FF0FF310160002141608160E7
:1006A00010BD70B50D4608B1012A02DA4FF0FF30D7
:1006B00070BD04460020521E01E00C46401C9042D2
:1006C00002DAA1680029F8D10C2001F0F7FAC0E99C
:1006D0000054A16809B14860A1688160A060002051
:1006E00070BD00002DE9F84FDFF8B8910024A9F1A2
:1006F000040B23460F2709F1040AABF1040EC9E0ED
:100700000125A5402A40AA427DD1674ED1F804C0F8
:10071000ACEB0608B44532D014DCBCF1030F3AD080
:1007200009DCBCF1000F2AD0BCF1010F1CD0BCF1D8
:10073000020F31D11DE0BCF1110F17D0BCF1120F27
:100740002AD119E0B8F5881F19D006DCB8F5803F2A
:1007500015D0B8F5801F1FD111E0B8F5001F0ED0DD
:10076000B8F5041F18D10AE0CB6815E0CB681B1D53
:1007700012E0CB6808330FE0CB680C330CE08B68D9
:100780002BB1012B4FF0080303D0456104E0042393
:1007900002E0056100E00023FF2A01D8064601E0DF
:1007A00000F104064FEA840501D9A5F12005D6F829
:1007B000008007FA05FC28EA0C0803FA05F548EA68
:1007C0000508C6F800804D68ED0062D5374DAE696A
:1007D00046F00106AE61AD6924F0030605F001059F
:1007E0000095334D06EB050CDCF80850A607360FD4
:1007F00007FA06F825EA0805DFF8B880404503D176
:100800004FF0000817E044E0DFF8AC80404502D12B
:100810004FF001080FE0DFF8A480404502D14FF00F
:10082000020808E0DFF89880404502D14FF0030845
:1008300001E04FF0040808FA06F848EA0508CCF889
:1008400008804D68D9F80060ED024D4601D5164389
:1008500000E096432E604D68DAF80060AD02554620
:1008600001D5164300E096432E604D68DBF800602A
:10087000AD035D4601D5164300E096432E604D68FA
:10088000DEF80060ED03754601D5164300E096439F
:100890002E60641C0D682A46E5407FF431AFBDE848
:1008A000F88F000008040140000011100010024001
:1008B0000000014000080140000C01400010014010
:1008C000001401400AB1016170470904FBE7000010
:1008D00001488068704700000000002002488168DD
:1008E000027811448160704700000020074810B56D
:1008F000016841F010010160032000F067F80F204B
:1009000000F006F800F024F8002010BD002002409E
:1009100070B50D4D04464FF47A712878B1FBF0F0B4
:100920000A490968B1FBF0F000F0AEFA48B9102CA2
:1009300007D200222146501E00F028F800206C60EB
:1009400070BD012070BD0000000000200C000020E0
:100950000C4808B5816941F001018161816901F0AC
:1009600001010091C16941F08051C161C06900F08D
:10097000805000900448416821F0E06141F000712E
:10098000416008BD0010024000000140F0B40E4B71
:100990001B680C46C3F30223C3F10705042D00D9DD
:1009A0000425191D072901D2002300E0DB1E0126C2
:1009B00006FA05F1491E214099409E40761E1640D8
:1009C0003143F0BC00F0DABC0CED00E0064900F069
:1009D000070208684FF6FF03184040EA0220034A66
:1009E00010430860704700000CED00E00000FA05BD
:1009F0002DE9F0470F46050061D0434E306800F006
:100A00000700B84209D2306820F007003843306050
:100A1000306800F00700B84251D128683B4C81078C
:100A200012D5400703D5606840F4E0606060287824
:100A3000000703D5606840F4605060606068A96892
:100A400020F0F000084360602878C00728D068686C
:100A5000012810D02168022810D0890700292EDA39
:100A6000616821F0030101436160FFF731FF8046B7
:100A700041F288390DE021688903EFE78901EDE74C
:100A8000FFF726FFA0EB0801494502D90320BDE886
:100A9000F0876068696800F00C00B0EB810FEFD15F
:100AA000306800F00700B8420BD9306820F007002A
:100AB00038433060306800F00700B84201D00120B0
:100AC000E5E72878400705D56068E96820F4E0602C
:100AD000084360602878000706D56068296920F41B
:100AE000605040EAC100606000F018F86168084A90
:100AF000C1F30311515CC84006490860064800680C
:100B0000FFF706FF0020C2E700200240001002406D
:100B10003A1D00080C000020040000200E4A516815
:100B20000E4801F00C03042B11D0082B0FD10C48F8
:100B3000C1F38343C903C05C0AD55168084AC1F3B5
:100B40004041921E515C054A5043B0FBF1F07047A2
:100B500004494843704700000010024000127A0028
:100B60002A1D000800093D002DE9F84F040070D04F
:100B70002078C04DC00749D06868C0F381000128C3
:100B800007D06868C0F38100022809D16868C003F3
:100B900006D52868800339D560680028E7D035E09D
:100BA0006068B0F5803F0BD010B1B0F5A02F11D028
:100BB000286820F480302860286820F4802002E033
:100BC000286840F480302860606890B1FFF780FEAC
:100BD00006460AE0286840F480202860F0E700BF5D
:100BE000FFF776FE801B642873D828688003F7D54A
:100BF0000CE0FFF76DFE064605E000BFFFF768FE5C
:100C0000801B6428F0D828688003F7D420789A4E97
:100C100080074FF001094FF0000839D5686810F0DF
:100C20000C0F07D06868C0F38100022809D16868FA
:100C3000C00306D42868800714D52069012808D18C
:100C400010E02069B0B1C6F80090FFF741FE0746FA
:100C500005E00AE1FFF73CFEC01B0228C4D8286863
:100C60008007F7D52868616920F0F80040EAC100E4
:100C700028600DE0C6F80080FFF72AFE074604E072
:100C8000FFF726FEC01B022823D828688007F7D468
:100C9000207800072CD57948A169D9B1C0F8009017
:100CA000FFF716FE074604E0FFF712FEC01B0228FE
:100CB0000FD8686A8007F7D571484FF4FA51006879
:100CC000B0FBF1F0009000BF0098411E0091FAD2F5
:100CD0000EE080E0C0F80080FFF7FAFD074604E070
:100CE000FFF7F6FDC01B022875D8686A8007F7D4A5
:100CF0002078400760D5E8690027C00008D4E8697B
:100D000040F08050E861E869012700F080500090D1
:100D10005C480168C90513D40168834641F48071B9
:100D20000160FFF7D5FD824606E000BFFFF7D0FD6A
:100D3000A0EB0A0064284ED8DBF80000C005F5D50A
:100D4000E06801280AD008B1052813D0286A20F0ED
:100D500001002862286A20F0040002E0286A40F0BE
:100D600001002862E06841F2883B98B1FFF7B0FDCE
:100D700082460BE0286A40F004002862EEE700BFDC
:100D8000FFF7A6FDA0EB0A0159455AD8286A80074B
:100D9000F6D50CE0FFF79CFD824605E0FFF798FDD5
:100DA000A0EB0A0159454CD8286A8007F6D41FB138
:100DB000E86920F08050E861E06988B36968C1F3B0
:100DC0008101022944D00228C6F8608004D0FFF7D0
:100DD0007FFD044638E034E0FFF77AFD074604E083
:100DE000FFF776FDC01B02282BD828688001F7D4B6
:100DF000206AB0F5803F05D16868A16820F4003012
:100E000008436860D4E908010843696821F4741153
:100E100008436860C6F86090FFF75AFD044606E094
:100E200025E000BFFFF754FD001B022809D8286801
:100E30008001F7D51BE000BFFFF74AFD001B022829
:100E400002D90320BDE8F88F28688001F4D40EE0B1
:100E50000128F7D06868226A00F48031914204D1F9
:100E6000616A00F47010884201D00120EAE7002096
:100E7000E8E70000001002400000424280044242C5
:100E80000C0000200070004010B5401EB0F1807FC3
:100E900001D3012010BD4FF0E02460610F216017E5
:100EA00000F06CFA0020A06107202061002010BD36
:100EB000FEE7000070B586B0002418480094019445
:100EC00002940394816941F020018161816901F0FC
:100ED00020010491816941F004018161816901F07F
:100EE00004010491816941F00801816180690C4E1F
:100EF00000F008004FF44075049000222946304667
:100F0000FFF7E0FC11200095CDE9010403200390D8
:100F100069463046FFF7E6FB06B070BD00100240A0
:100F2000000C0140FEE7FEE710B50021074C0A4621
:100F3000002004EBC1131A54401CC0B28028FAD31D
:100F4000491CC9B20829F3D310BD000018000020C5
:100F5000F0B57F282AD83F2928D88418802C02D9B8
:100F6000C0F18002D2B2CC18402C02D9C1F14003AA
:100F7000DBB20126DFF838E087180B4414E001F0FB
:100F8000070206FA02F5CA0804460EEBC21207E091
:100F900012F804C02CEA050C02F804C0641CE4B288
:100FA000A742F5D8491CC9B28B42E8D8F0BD000071
:100FB0001800002010B500204FF47A720021491C5F
:100FC0009142FCD3401C9042F8D3FFF773FF0120FD
:100FD00000F054F9BDE81040012000F057B970B599
:100FE00000240646802525FA04F0304000D0012078
:100FF00000F04CF9012000F041F9002000F03EF92A
:10100000641CE4B2082CEED3012000F037F9BDE8EF
:101010007040002000F032B910B5012000F036F920
:10102000012000F02BF9002000F030F9BDE810405D
:10103000002000F023B910B5002000F027F90120AE
:1010400000F01CF9BDE81040012000F01FB910B5F8
:10105000FFF7B0FFAE2000F021F9D52000F01EF917
:10106000802000F01BF9A82000F018F93F2000F0C4
:1010700015F9D32000F012F9002000F00FF94020FC
:1010800000F00CF9A12000F009F9C82000F006F9E1
:10109000DA2000F003F9122000F000F9812000F0BE
:1010A000FDF8CF2000F0FAF8D92000F0F7F8F12091
:1010B00000F0F4F8DB2000F0F1F8302000F0EEF85A
:1010C000A42000F0EBF8A62000F0E8F88D2000F056
:1010D000E5F8142000F0E2F8AF2000F0DFF8FFF7A9
:1010E00023FFBDE8104000F0B5B80FB470B588B06C
:1010F00014460D46064610AA68460F9900F02CF9D2
:1011000023466A462946304600F08EF808B070BC87
:101110005DF814FB10B50C4640F0B00000F0BEF8CE
:10112000102040EA141000F0B9F804F00F00BDE8F8
:10113000104000F0B3B8000008B5202A0ED3082BE9
:101140000DD0062B0AD10A4B02EB420203EB4202FE
:10115000C03A00920823062200F00EF808BD054BA5
:1011600003EB0212A2F50072102300920822F3E7AB
:101170003A2300084A1D00082DE9FC4F1F4615467A
:101180000C4606467F284AD83F2C48D8FFF7E0FE99
:10119000781EC117002300EB51700121DFF884B0E5
:1011A00004F0070901EBE00737E0002031E03118D7
:1011B0007F2930D803EBD40ABAF1070F2FD80BEBF5
:1011C000CA1E03FB05F21EF801C00192DDF82C8057
:1011D0008044CDF8008012F8082002FA09F24CEAA7
:1011E000020C0AF101020EF801C0072A0FD80EEB1B
:1011F0000108DDE900C198F8802011F80CC0C9F1A0
:1012000008012CFA01FC42EA0C0288F88020401CFC
:10121000C0B2A842CBD35B1CDBB29F42C5DCBDE8A9
:10122000FC8F0000180000202DE9F0411E461546F5
:1012300088460746002408E004FB0670C0B2334627
:101240004146FFF779FF641CE4B22A5D002AF3D11E
:10125000BDE8F08170B5084D002400212046FFF75D
:1012600059FF05EBC410802100F029F8641CE4B29A
:10127000082CF2D370BD00001800002002464FF485
:1012800080710148FFF71EBB000C014002464FF47D
:1012900000710148FFF716BB000C014010B5044671
:1012A000FFF7BAFE7820FFF79AFE0020FFF797FEBF
:1012B0002046FFF794FEBDE81040FFF7BCBE70B5B6
:1012C0000D460646FFF7A8FE7820FFF788FE40206F
:1012D000FFF785FE002404E0305DFFF780FE641C0C
:1012E000E4B2AC42F8D3BDE87040FFF7A4BE70474B
:1012F0007047FFF7F3BA30B58FB028216846FEF784
:1013000028FF14210AA8FEF724FF01210804CDE9D3
:1013100000100024029402250491CDE907504FF4F7
:10132000E01009906846FFF71FFC08B172B6FEE7AF
:101330000F20CDE90A054FF48060CDE90C40022171
:101340000AA80E94FFF754FB002801D072B6FEE7FE
:101350000FB030BD7047FEE737B514460846064B60
:101360006A46214600F0ECF804466946002000F089
:101370007EFC20463EBD00006F1C00080907090ED8
:10138000002804DB00F1E02080F80014704700F032
:101390000F0000F1E02080F8141D704702E008C83B
:1013A000121F08C1002AFAD170477047002001E0DF
:1013B00001C1121F002AFBD1704700002DE9FF5F19
:1013C00082B00021DDE90430020DDDF840B00343B6
:1013D00018D044F61050A2F2FF324243151411986F
:1013E00001281FD0A5EB0B00401C5FEA000A4FF05C
:1013F00000064E4FDFF83891B046504615D5CAF179
:10140000000413E0119801244AA3012801D16FEAD6
:101410000B010298119AC0E90031C0E9024206B0FE
:10142000BDE8F09FCBF10000DFE704460021404A11
:10143000491842EB0450CDE9001012E0E00707D054
:1014400032463B4640464946FEF735FF80468946D0
:1014500032463B4610461946FEF72DFF06460F461C
:101460006410002CEAD1DDE90401DDE90023BAF1C2
:10147000000F06DAFEF71FFF42464B46FEF71BFF42
:1014800005E0FEF78AFF42464B46FEF786FF04461C
:101490000E460022284BFEF7EFFF03D84FF0FF3037
:1014A000014607E00022254B20463146FEF75CFE50
:1014B000FFF7BFF8102409E0002C0ADB0A22002302
:1014C000FFF708F8039B30321A55641E50EA0102F8
:1014D000F2D1641C039AC4F111031444119A012A35
:1014E00003D0012208430DD10AE0084304D00020B4
:1014F0004FF0110B119072E7A3EB0B056D1E0DE081
:101500005B4504DD4FF0000205F1010504E003DA5C
:101510004FF00002A5F10105002AECD002981199C4
:10152000C0E90231C0E9004579E70000000014403D
:101530000000F03F300000000000F0430000E03FFA
:101540002DE9FF4F95B09B468946064600250FE2E0
:10155000252877D100242746F84A0121059400E088
:10156000044316F8013F203B01FA03F01042F7D183
:1015700030782A2811D06FF02F033078A0F1300294
:10158000092A16D8059A44F0020402EB820203EB02
:1015900042021044761C0590EFE759F8042B05929F
:1015A000002A03DA504244F40054059044F0020447
:1015B000761C30782E2816D116F8010F44F004045A
:1015C0002A280DD06FF02F023078A0F13003092BBC
:1015D00009D807EB870302EB4303C718761CF3E730
:1015E00059F8047B761C30786C280FD006DC4C2828
:1015F00017D068280DD06A2814D104E0742810D0C0
:101600007A280FD10DE044F400140AE044F4801469
:1016100001E044F440147278824202D104F580144F
:10162000761C761C307866280BD013DC582877D0CF
:1016300009DC002875D04528F6D04628F4D0472884
:101640001AD19DE118E0632835D0642879D0652847
:1016500012D195E1702873D008DC6728F1D0692891
:101660006FD06E280DD06F2806D1B5E073282CD02E
:10167000752875D0782874D05A46179990476D1CF4
:1016800075E1C4F30250022809D003280DD0D9F81F
:10169000001004280DD00D6009F1040967E1D9F8A4
:1016A0000010EA17C1E90052F6E7D9F800100D80E2
:1016B000F2E70D70F0E719F8041B8DF80010002018
:1016C0008DF80100EA46012003E059F804AB4FF021
:1016D000FF3061074FF0000102D40DE008F1010175
:1016E0008846B9420FDA8045F8DB1AF8081000295D
:1016F000F4D108E008F1010188468142FADB1AF8CA
:1017000008100029F6D105985B46A0EB0807214692
:101710003846179A00F094FA284400EB080507E0D1
:101720004DE029E10DE01AF8010B5A461799904750
:10173000B8F10108F7D25B4621463846179A13E103
:1017400042E00A220092C4F302524FF0000A022A39
:1017500008D059F804CB032A4FEAEC710AD00DE007
:1017600029E02AE009F1070121F00702F2E802C1AD
:10177000914609E00FFA8CFC4FEAEC71042A03D180
:101780004FFA8CFC4FEAEC71002907DA0A46002177
:10179000DCF1000C61EB02012D2202E0220504D5F0
:1017A0002B228DF80420012203E0E20701D0202241
:1017B000F7E7904659E00A2102E010220DE01021DF
:1017C0004FF0000A00910BE010224FF0000A44F0A5
:1017D00004040827009203E008224FF0000A009258
:1017E000C4F30252022A05D059F804CB0021032A7F
:1017F00008D009E009F1070121F00702F2E802C16F
:10180000914605E01FFA8CFC042A01D10CF0FF0C74
:101810004FF00008220728D5702806D0009B83F0DF
:10182000100353EA0A0305D00EE040228DF804208D
:10183000012208E05CEA010206D030228DF8042083
:101840008DF8050002229046009B83F0080353EABE
:101850000A030AD15CEA010201D1620705D53022F0
:101860008DF804204FF001087F1E582804D034A0C2
:1018700003900EA802900DE036A0F9E753466046AB
:10188000009AFEF727FE84460398825C0298401E69
:10189000029002705CEA0100F0D1029806A9081AD1
:1018A00000F1200A600702D524F4803400E001270B
:1018B000574502DDA7EB0A0000E0002000EB0A011B
:1018C000009005984144401A0590E00306D45B4619
:1018D0002146179A059800F0B3F90544002706E061
:1018E00001A85A46C05D179990476D1C7F1C47455B
:1018F000F6DBE0030CD55B462146179A059800F00D
:101900009FF9054404E030205A46179990476D1C12
:101910000099481E00900029F5DC08E00298029921
:101920005A460078491C0291179990476D1CBAF1EC
:101930000001AAF1010AF1DC65E1000009280100BB
:101940003031323334353637383961626364656635
:1019500000000000303132333435363738394142F7
:10196000434445460000000000F058F90544761C49
:10197000307800287FF4ECAD19B02846BDE8F08F30
:10198000620700D4062709F1070222F0070CFCE8E1
:101990000223E14603F000485FEA080C02D00FF290
:1019A000702C0DE05FEA045C02D50FF2682C07E0B2
:1019B0005FEAC47C02D00FF2602C01E0AFF2700C41
:1019C0004FF0FF3823F00043CDF850C065280CD00D
:1019D00006DC452809D046281DD047283DD13DE0EA
:1019E000662818D067287ED138E00021112F01DB4E
:1019F000112000E0781CCDE9000106A90EA8FFF730
:101A0000DDFCDDE90F010E9A03910021009207F140
:101A1000010A04914DE04FF000400097CDE901101C
:101A200006A90EA8FFF7CAFCDDE90F0203920E9B80
:101A300011990022DDF80CA00093049211B9791CD1
:101A400000EB010AB7EB0A0004D4C0F1FF3007F144
:101A5000010A0490AAEB0700019044E0012F00DA8C
:101A600001270021112F01DD112000E03846CDE9CA
:101A7000000106A90EA8FFF7A1FCDDE90F010E9AEF
:101A80000391002104910092BA4621070CD40399D6
:101A9000514500DA8A46BAF1010F05DD009AAAF134
:101AA0000101515C302908D0B84202DA10F1040F6C
:101AB00006DA0121CDE9011015E0AAF10101E9E7FB
:101AC000002805DC049901440491AAEB000102E01E
:101AD000411C514500DD8A460499401A401C019082
:101AE0004FF000400290200704D40198504501DBDC
:101AF000CDF8048000208DF84F0002980DF14F07BB
:101B0000B0F1004F25D02B200E9002984FF0020824
:101B100000280CDA404202902D200E9007E00A21A6
:101B20000298FEF7C1FC3031029007F8011DB8F1B0
:101B30000001A8F10108F2DC02980028EFD1791E1B
:101B40000E980870307800F0200040F0450007F84B
:101B5000020D12A8C01B00F107081498007800B10C
:101B6000012000EB0A01019801EBE0710598414466
:101B7000401A401E0590E00306D45B462146179AA2
:101B8000059800F05DF805441498007818B15A469D
:101B9000179990476D1CE00324D55B462146179AA0
:101BA000059800F04DF805441CE00498002807DB78
:101BB000DDE90301884203DD0098405C179901E0EC
:101BC000179930205A469047049805F10105401CAA
:101BD00004900198401E019004D12E205A46179976
:101BE00090476D1CBAF10001AAF1010ADDDC05E0A5
:101BF00017F8010B5A46179990476D1CB8F1000170
:101C0000A8F10108F4DC5B462146179A0598ABE67B
:101C10002D0000002B000000200000002DE9F04105
:101C2000044600251E461746880404D405E03946BC
:101C30002020B0476D1C641EF9D52846BDE8F08110
:101C40002DE9F041044600251E469046C80301D503
:101C5000302700E02027880404D505E041463846B7
:101C6000B0476D1C641EF9D52846BDE8F0810A68AE
:101C7000531C0B601070704708B5FEF737FEFFF776
:101C80003AFBFFF717F9FFF7E2F9FFF7E3FAA56868
:101C9000FEF7FCFC01220A21FEF703FD2868002163
:101CA000009004A308220846FFF71FFAFFF7D2FAB4
:101CB000FEE70000312E256400000000F0B50B3077
:101CC000154D20F007010024144A0FE003688B42F1
:101CD0000BD38B4205D95E1A43184768C3E90067E6
:101CE00000E04368136002C004E0021D1068002891
:101CF000ECD12046002802D1286808B10020F0BDB0
:101D0000064A07481060074A121A22F00702C0E983
:101D1000002401202860D7E71400002010000020D4
:101D20001C04002018060020010202030405060717
:101D300008090A0B0C0D0E0F101000000000000027
:101D4000000001020304060708090000000000006B
:101D500000000000000000000000000000F800008B
:101D60000000000000333000000000160E00160EC8
:101D70000000000000000000000040C07840C07873
:101D80004000043F04043F040400007088FC083055
:101D90000000001820FF211E0000F008F000E018ED
:101DA000000000211C031E211E0000F008887000A6
:101DB00000001E21232419272110000000160E0008
:101DC00000000000000000000000000000E0180417
:101DD0000200000000071820400000020418E00084
:101DE00000000040201807000000404080F08040C4
:101DF00040000202010F01020200000000F000009A
:101E000000000101011F01010100000000000000AD
:101E1000000000B0700000000000000000000000A2
:101E200000000001010101010101000000000000AB
:101E30000000003030000000000000000000806062
:101E40001804006018060100000000E010080810E7
:101E5000E000000F102020100F00001010F800000C
:101E600000000020203F20200000007008080888A3
:101E70007000003028242221300000300888884873
:101E800030000018202020110E000000C02010F8A3
:101E9000000000070424243F240000F80888880874
:101EA00008000019212020110E0000E01088881879
:101EB0000000000F112020110E0000380808C8385B
:101EC00008000000003F000000000070880808883B
:101ED0007000001C222121221C0000E010080810C4
:101EE000E0000000312222110F00000000C0C000FD
:101EF00000000000003030000000000000C0C00002
:101F00000000000080B07000000000008040201041
:101F100008000001020408102000404040404040FA
:101F2000400004040404040404000008102040805D
:101F30000000002010080402010000704808080892
:101F4000F0000000003036010000C030C828E81062
:101F5000E0000718272423140B000000C038E0001D
:101F60000000203C23020227382008F88888887067
:101F70000000203F202020110E00C0300808080873
:101F80003800071820202010080008F8080808105A
:101F9000E000203F202020100F0008F88888E80883
:101FA0001000203F20202320180008F88888E80827
:101FB0001000203F200003000000C030080808384F
:101FC000000007182020221E020008F80800000860
:101FD000F808203F210101213F20000808F80808E7
:101FE00000000020203F2020000000000808F80822
:101FF0000800C08080807F00000008F888C0281892
:102000000800203F20012638200008F808000000C2
:102010000000203F20202020300008F8F800F8F8C9
:102020000800203F003F003F200008F830C00008B3
:10203000F808203F200007183F00E01008080810AB
:10204000E0000F10202020100F0008F808080808F2
:10205000F000203F210101010000E01008080810F5
:10206000E0000F18242438504F0008F8888888882A
:102070007000203F2000030C302000708808080802
:1020800038000038202121221C00180808F8080810
:1020900018000000203F2000000008F80800000899
:1020A000F808001F202020201F000878880000C8A2
:1020B0003808000007380E010000F80800F8000892
:1020C000F800033C0700073C03000818688080689C
:1020D000180820302C03032C30200838C800C838DA
:1020E00008000000203F2000000010080808C83841
:1020F00008002038262120201800000000FE0202DF
:1021000002000000007F40404000000C30C0000092
:102110000000000000010638C00000020202FE00BC
:102120000000004040407F0000000020100804082C
:10213000102000000000000000000000000000006F
:102140000000808080808080808000020408000081
:10215000000000000000000000000000808080807F
:1021600000000019242222223F2008F8008080006D
:102170000000003F112020110E0000000080808030
:102180000000000E11202020110000000080808837
:10219000F800000E112020103F2000008080808079
:1021A0000000001F222222221300008080F0888875
:1021B00088180020203F20200000000080808080C0
:1021C0008000006B94949493600008F800808080F5
:1021D0000000203F210000203F2000809898000050
:1021E00000000020203F2020000000000080989880
:1021F000000000C08080807F000008F80000808020
:102200008000203F24022D302000000808F8000044
:1022100000000020203F20200000808080808080FF
:102220008000203F20003F20003F00808000808011
:10223000000000203F2100203F200000808080809F
:102240000000001F202020201F00808000808000D0
:10225000000080FFA12020110E000000008080807F
:102260008000000E112020A0FF80808080008080F0
:10227000800020203F21200001000000808080801D
:1022800080000033242424241900008080E0808012
:1022900000000000001F202000008080000000805F
:1022A0008000001F202020103F20808080000080C0
:1022B000808000010E3008060100808000800080D0
:1022C00080800F300C030C300F0000808000808075
:1022D00080000020312E0E312000808080000080A0
:1022E000808080818E701806010000808080808050
:1022F00080000021302C2221300000000000807C72
:10230000020200000000003F404000000000FF000B
:10231000000000000000FF0000000002027C8000BE
:1023200000000040403F000000000080404080006E
:10233000008000000000000101000000000000001B
:102340000000002F000000000700070000147F14A9
:102350007F1400242A7F2A120023130864620036A7
:102360004955225000000007000000001C224100D7
:10237000000041221C000014083E08140008083E1A
:102380000808000000A06000000808080808000015
:1023900060600000002010080402003E5149453EE4
:1023A0000000427F40000042615149460021414502
:1023B0004B31001814127F10002745454539003C69
:1023C0004A49493000017109050300364949493637
:1023D00000064949291E0000363600000000563626
:1023E000000000081422410000141414141400000A
:1023F00041221408000201510906003E4955592E98
:10240000007C1211127C007F49494936003E41414F
:102410004122007F4141221C007F49494941007F00
:1024200009090901003E4149497A007F0808087FEF
:102430000000417F4100002040413F01007F08141F
:102440002241007F40404040007F020C027F007F1D
:102450000408107F003E4141413E007F0909090602
:10246000003E4151215E007F091929460046494935
:1024700049310001017F0101003F4040403F001F02
:102480002040201F003F4038403F00631408146381
:1024900000070870080700615149454300007F416B
:1024A0004100000204081020000041417F000004A8
:1024B00002010204004040404040000001020400CC
:1024C000002054545478007F484444380038444431
:1024D000442000384444487F0038545454180008BD
:1024E0007E0901020018A4A4A47C007F08040478DB
:1024F0000000447D4000004080847D00007F102863
:1025000044000000417F4000007C04180478007CF7
:102510000804047800384444443800FC2424241877
:102520000018242418FC007C0804040800485454B3
:10253000542000043F444020003C4040207C001CCC
:102540002040201C003C4030403C004428102844DF
:10255000001CA0A0A07C004464544C440000087FF0
:1025600041000000007F00000000417F08000008DB
:10257000040810089425000800000020180000003E
:102580009C130008AC25000818000020000A000079
:10259000AC13000801000000100000000000000063
:0C25A0000024F400000000000000000017
:04000005080000ED02
:00000001FF
