:020000040800F2
:1000000038140020750200089735000805340008F0
:1000100095350008EB1B000847540008000000005D
:10002000000000000000000000000000113D00087A
:10003000ED1B0008000000000F3D0008133D000804
:100040008F0200088F0200088F0200088F0200084C
:100050008F0200088F0200088F0200088F0200083C
:100060008F0200088F0200088F0200088F0200082C
:100070008F0200088F0200088F0200088F0200081C
:100080008F0200088F0200088F0200088F0200080C
:10009000D15300088F0200088F0200088F02000869
:1000A000913D0008B53D0008A93D00089D3D0008B0
:1000B0008F0200088F0200088F0200088F020008DC
:1000C0008F0200088F0200088F0200088F020008CC
:1000D0008F0200088F0200088F0200088F020008BC
:1000E0008F0200088F0200088F02000800F002F85B
:1000F00000F0B0F80AA090E8000C82448344AAF112
:100100000107DA4501D100F0A5F8AFF2090EBAE80F
:100110000F0013F0010F18BFFB1A43F0010318473B
:10012000AC5D0000CC5D00000A444FF0000C10F8FC
:10013000013B13F0070408BF10F8014B1D1108BF65
:1001400010F8015B641E05D010F8016B641E01F805
:10015000016BF9D113F0080F1EBF10F8014BAD1C55
:100160000C1B09D16D1E58BF01F801CBFAD505E073
:1001700014F8016B01F8016B6D1EF9D59142D6D3CD
:10018000704700000023002400250026103A28BFF5
:1001900078C1FBD8520728BF30C148BF0B607047F9
:1001A0006E2900F0D581702900F01783662905F0CB
:1001B000E181652905F0DE81672905F0DB81612990
:1001C00005F0DA8103681B0A28BF41F08001692924
:1001D00000F08281642900F07F81752900F07C8124
:1001E0006F2900F0A482782900F0E382E92900F069
:1001F0003F82E42900F03C82F52900F03982EF29A2
:1002000000F0A182F82900F0E2820368DB0928BF30
:1002100041F08001632900F0E587732900F0EA8747
:10022000E32900F0F587F32900F0FA8700207047F2
:100230001FB501F04BF804000020002105F084F9FF
:10024000401C60600020002105F068F9E0601FBDDF
:1002500010B510BD01F00CF81146FFF7E9FF05F0ED
:100260001FF901F0E9F803B4FFF7F2FF03BC01F056
:10027000EDF800000948804709480047FEE7FEE71F
:10028000FEE7FEE7FEE7FEE7FEE7FEE7FEE7FEE746
:1002900004480549054A064B704700008D3D00089B
:1002A000ED000008380E002038140020381000201F
:1002B000381000201CB50C46064B7B446946009064
:1002C000204600F05EF904460020694600F06CF913
:1002D00020461CBDEB02000010B5203AC0F00B8098
:1002E000B1E81850203AA0E81850B1E81850A0E83A
:1002F0001850BFF4F5AF5FEA027C24BFB1E8185094
:10030000A0E8185044BF18C918C0BDE810405FEA03
:10031000827C24BF51F8043B40F8043B08BF70477F
:10032000D20728BF31F8023B48BF11F8012B28BF84
:1003300020F8023B48BF00F8012B70474FF0000245
:1003400000B5134694469646203922BFA0E80C50CB
:10035000A0E80C50B1F12001BFF4F7AF090728BFA6
:10036000A0E80C5048BF0CC05DF804EB890028BF22
:1003700040F8042B08BF704748BF20F8022B11F04B
:10038000804F18BF00F8012B704700004FF0013C70
:1003900050F8042B51F8043B9A4221D1A2EB0C03F4
:1003A000934313EACC1317D150F8042B51F8043BB4
:1003B0009A4215D1A2EB0C03934313EACC130BD151
:1003C00050F8042B51F8043B9A4209D1A2EB0C03DC
:1003D000934313EACC13DBD04FF00000704700BF0B
:1003E000D01A01BAB1FA81F101F0180122FA01F034
:1003F000CB40C1F12001DBB2C0B2C01A2CFA01F32C
:10040000D11A914311EAC311E6D170477047704782
:10041000704770B5044685690068C10601D530266D
:1004200000E02026C00707D070BDD4E90121304686
:100430009047206A401C20626D1EF6D570BD70B5D5
:10044000044685690078C00707D170BDD4E9012151
:1004500020209047206A401C20626D1EF6D570BD9A
:1004600009684A0501D540B27047C905FCD500B2FC
:10047000704709684A0501D5C0B27047C905FCD567
:1004800080B2704770B50C460546012A05D0287821
:10049000800600D5EA69002302E0012305E05B1C29
:1004A000934202D2E05C0028F9D1A869E618C01A8C
:1004B000A861286A184428622846FFF7AAFF04E0CA
:1004C000D5E9012114F8010B9047B442F8D328462E
:1004D000FFF7B5FF70BD00002DE9F041064600248E
:1004E00010687529314616A510D0FFF7B9FF00280E
:1004F00002DA404213A507E031688A0701D512A548
:1005000002E0490704D511A5012401E0FFF7B1FF7E
:1005100000210A2206F1240709E0B0FBF2FCB0FB3F
:10052000F2F302FB1C00303078541846491C0028B6
:10053000F3D123462A463046BDE8F04100F061BAC7
:10054000000000002D0000002B0000002000000033
:1005500011680268006A530501D508700AE0D305E6
:1005600001D5088006E0130603D5C217C1E90002D1
:1005700000E008600120704701694A1C02610878A8
:10058000704700B58FB0CDE90131002105910549D3
:100590007944CDE903101146684600F029F90FB0FF
:1005A00000BD0000E5FFFFFF0A6802F8010B0A60CA
:1005B000704700002DE9FF5F15468A460446DFF8C4
:1005C000AC80F8440027D8E900103E46CDE9001081
:1005D00010E03AF816106A4602A800F025FE411C09
:1005E00007D02178890603D5E269391891420DD8E0
:1005F0000744761C2078800602D5E069B84205DD04
:10060000AE42E6DB3AF816000028E2D1A069C01B32
:10061000A0612046FFF7FDFED8E90010CDE90010EB
:10062000002017E03AF818106A4602A800F0FCFD16
:10063000B0F1FF3F81460BD000250DF1080B05E01E
:10064000D4E901211BF8050090476D1C4D45F7D3F7
:1006500008F10100B0428046E4DB206A38442062A1
:100660002046FFF7ECFEBDE8FF9F00000A5800009F
:100670002DE9F0418046D21D22F007020025D2E983
:100680000002F52915A614D0011E72F1000106DA48
:100690000023D0EB030063EB020211A608E0D8F8B8
:1006A00000108B0701D50FA602E0490701D50EA661
:1006B00001251146002408F1240704E000F05CF94C
:1006C00030323A55641C50EA0102F7D12B463246CB
:1006D00021464046BDE8F04100F093B9000000001B
:1006E0002D0000002B0000002000000030B400218D
:1006F00000F1240408E002F00705D208303542EA90
:100700004372DB086554491C52EA0305F3D10468BF
:10071000002310A2250707D5A40600D421B1C4697F
:1007200001230DA2641EC46130BC00F06AB910B58B
:10073000044621461068FFF79CFE02462046BDE8AD
:1007400010400023D2E7D21D22F00701D1E9002397
:10075000CCE700000000000030000000F0B40D46BF
:100760000188090502D5214C7C4402E01F4C7C44E1
:100770000E34002100F1240608E002F00F071209F0
:10078000E75D42EA03721B097754491C52EA0307EA
:10079000F3D102780023120704D5702D06D009B1D9
:1007A000022311342246F0BC00F02BB9012310348F
:1007B000F8E770B504460D4621461068FFF759FE6C
:1007C000024629462046BDE870400023C6E7D21DF8
:1007D00022F00703D3E90023C0E70368126843F05F
:1007E000200303600823C3610023B7E76C560000B1
:1007F0002DE9F05F894604464FF0000ADFF874B136
:10080000FB44C0F820A02046E1688847002874D047
:10081000252806D0D4E901219047206A401C206297
:10082000F1E700265F462046E16888472028054614
:1008300007DB312D05D2781910F8200C08B10643DA
:10084000F1E7B00701D526F00406C4F81CA0002784
:10085000C4F818A02A2D09D0284604F019FE38B390
:1008600004EB8708303DC8F8185019E059F8041B0C
:10087000204604EB87029161E1688847012F054615
:1008800018D1E069002820DA26F020061DE0D8F80B
:10089000180000EB800005EB40003038C8F8180065
:1008A0002046E1688847054604F0F2FD0028EED1B5
:1008B000012F0AD02E2D08D12046E16888477F1CE1
:1008C0000546022F46F02006C4DBA069002803DAA3
:1008D000404246F00106A061F00701D026F0100664
:1008E0006C2D0BD0682D09D04C2D39D06A2D35D008
:1008F000742D35D07A2D33D016E038E0E1682F46DC
:1009000020468847B842054609D16C2F26D04FF4BF
:100910008060E168064320468847054604E06C2F66
:100920001AD04FF4807006430DB3A5F14100192889
:1009300002D8203546F400664A46294620462660FD
:100940004E46FFF72DFC80B101280BD0F61D26F096
:10095000070000F1080956E74020E4E78020D8E7C7
:100960000020D6E706F104094DE7284652E7206A41
:10097000BDE8F09FFC55000030B5B0F10A024FEA27
:10098000900E71F100034EEA817EB0EB0E0061EB38
:1009900091014FEA101E4EEA017E10EB0E0041EB72
:1009A00011114FEA102E4EEA016E10EB0E0041EBD2
:1009B00011214FEA104E4EEA014E10EB0E0041EBB2
:1009C0001141401841F100014FEAD00040EA417066
:1009D0004FEAD10110EB80054FEA810444EA90749C
:1009E00044EB01046D1944EB0404521BA3414FF086
:1009F000000348BF0A3200D530BD401C41F1000160
:100A000030BD2DE9F0470D4699469246044600F167
:100A100024080168880604D5E06921F010012160EE
:100A200000E00120A84201DD471B00E00027A1698A
:100A30007A1902EB0900081AA0612078C00602D4D6
:100A40002046FFF7E6FC002608E0D4E901211AF869
:100A500006009047206A401C761C20624E45F4DB5D
:100A60002078C0060AD52046FFF7D3FC06E0D4E97B
:100A7000012130209047206A401C2062381EA7F1D7
:100A80000107F4DC07E0D4E9012118F805009047DC
:100A9000206A401C2062281EA5F10105F3DC2046D7
:100AA000FFF7CDFC2078000602D50220BDE8F087D4
:100AB0000120FBE770472DE9FF4F0C461E464FF023
:100AC000FF378BB0D2E90001DDF860800A908A46DA
:100AD000C1F30A5505B93D46002108464FF0000014
:100AE000BAF1000F00F4400005DA00EB80004FF48B
:100AF000400101EA50004FEA9059B9F1010F00DDC1
:100B0000B9460A9850EA4A000ED044F61050A5F2B1
:100B1000FF3545432F14B8F1000F1ED07542291E32
:100B20001EDDC9F100021CE0B8F1010F4FF000001A
:100B300001D0302103E0F24305E02154401CB042D3
:100B4000FBDB30460022002121540B99C1F80880BC
:100B5000C1E900200FB0BDE8F08FBD1B6D1CDEE7C2
:100B60004A4600DA694206A800F0F4FB06AB93E8B7
:100B7000070003AB83E8070050460A9900F06DFCBC
:100B80008DE80700A0F500501F3800900398002D55
:100B90000ADD42F21F014A460844002303A90390DC
:100BA000684600F0D6FE09E0A0F500504A461F381E
:100BB000002303A90390684600F0E0FE8DE80700DB
:100BC0000004000C03D04FF0FF30410800E0104655
:100BD000B8F1000F03D00022009215461EE0751EEA
:100BE00005D4FFF7C9FE303262556D1EF9D5B34604
:100BF0000122084302D000227F1C04E02078302824
:100C000001D100227F1E002A099784D01DE0112DFA
:100C100007DAFFF7B1FE303262556D1C50EA01026F
:100C2000F5D1084302D00098C8B10EE00021681E3B
:100C300005E0235C625C63542254401E491C8142DF
:100C4000F7DBAB46A81B401E0990002004F80B0000
:100C50000B98099AC0F80880C0E9002B7AE71126A2
:100C60004FF0000857E72DE9F04F88460446D21DA3
:100C700022F0070191B0D1E90001CDE90A0104F0A9
:100C8000E3FB02460B98C00F01D02D2007E020683F
:100C9000810701D52B2002E0202101EAC000032AB0
:100CA000099001D0072A05DB03464146204600F0A3
:100CB00011FB0BE12078800601D5E06900E00620F9
:100CC000B8F1650F814606D0B8F1660F18D0B8F1BB
:100CD000670F70D131E00020B9F1110F009001DBF6
:100CE000112301E009F101030AAA01A90CA8FFF7E9
:100CF000E2FEDDE90C70002609F10105834647E0BC
:100D000001204B4600904FF000470AAA01A90CA809
:100D1000FFF7D1FEDDE90DB00C995D46002610B954
:100D200009F101000D18B9EB050003D4C0F1FF363D
:100D300009F10105A5EB09002BE0B9F1010F01DA7A
:100D40004FF001090020B9F1110F0090484601DD74
:100D5000112300E003460AAA01A90CA8FFF7ABFE85
:100D6000DDE90C704D4600268346207800070AD442
:100D7000AB4500DA5D4601A8012D04DD411911F8EB
:100D8000011C302907D04F4502DA17F1040F04DAAD
:100D9000012082460FE06D1EEEE7002F02DCED1B06
:100DA0003E4403E0781CA84200DD7D1CB81B00F126
:100DB000010A4FF000472078000703D4AA4501DB61
:100DC0004FF0FF3A0021B7F1004F0DF143088DF8C5
:100DD000431024D002202B23002F01DA7F422D2341
:100DE0000A21021EA0F1010000DC5FB197FBF1FCBB
:100DF00097FBF1F201FB1C7C17460CF1300C08F854
:100E000001CDEEE7A8F1010003702188090501D5A5
:100E1000452100E06521A0F1010800F8011C0998B6
:100E20000FA9A1EB0807FF1D00B10120411901EB3B
:100E3000EA70A1693844081A401EA0612078C006F3
:100E400002D42046FFF7E5FA099828B1D4E9012138
:100E50009047206A401C20622078C00622D5204698
:100E6000FFF7D7FA1EE0002E04DBB34502DD01A830
:100E7000805D00E03020D4E901219047206A401CC9
:100E80002062761CAAF101005FEA000A0AD100F094
:100E90001DFAC0680168405CD4E901219047206ACE
:100EA000401C2062281EA5F10105DCDC07E0D4E926
:100EB000012118F8010B9047206A401C2062381E5F
:100EC000A7F10107F3DC2046FFF7B9FA032011B0C0
:100ED00041E600002DE9F04F04460D46D21D22F0F8
:100EE000070089B0D0E900974846394604F0ACFACB
:100EF0000246F80F01D02D2307E02068810701D5B5
:100F00002B2302E0202101EAC0038DF820300BB131
:100F1000012000E00020032A824601D0072A04DBDA
:100F20002946204600F0D6F93FE12078800601D41A
:100F30000D2500E0E569C7F30A560D2D49DA0021B9
:100F40004FEA175B08464FF00000002F00F4400006
:100F500007DA00EB80004FF4400100EBD07001EAAB
:100F600060008115012901DD4FF0FF3100224FEAB9
:100F7000850CBCF1180F06D31346ACF118004FF0E6
:100F80008052C24003E04FF4801323FA0CF30CF1BB
:100F90000C0CBCF1200F04D3ACF1200C09FA0CF0BE
:100FA00001E007FA0CF000294FF0004801DD18B904
:100FB0000FE00ED140450CD319EB02095F4121B976
:100FC000404502D19F4329EA0209BBEB175F00D0DD
:100FD000761C2088000502D57B48784402E07A48D8
:100FE0007844193808AA302302F80A30037C0AF141
:100FF0000101002E0AF1020A53546A4602DC4FF046
:10100000300101E04FF031014FF001088DF8001080
:1010100002D0A6F2FF3603E059EA470100D06B4E3A
:10102000002D02DC2178090704D54FF002082E219B
:101030008DF80110C44600210BE0C7F303433F01C4
:10104000C35C491C6D1E02F80830052908F101082F
:1010500001DA002DF1DC00210CE000EB1973491CD2
:101060001B786D1E082902F808304FEA091908F1AB
:10107000010801DA002DF0DC21688B0602D516E0AC
:10108000A8F10108E04505DD02EB080313F8013C77
:10109000302BF5D0B8F1000F09DD02EB080313F88F
:1010A000013C2E2B03D1090701D4A8F10108002D22
:1010B00005DD3E2102F808106D1E08F10108407C94
:1010C000002E02F8080008F1010804DA2D2076420B
:1010D00002F8080002E02B2002F808000A214FF471
:1010E0007A70864208F101080BDB96FBF0F330338F
:1010F00002F8083096FBF0F308F1010800FB1366D4
:1011000001E0642E0CDB642096FBF0F3303302F830
:10111000083096FBF0F308F1010800FB136601E0CC
:101120000A2E06DB96FBF1F0303002F8080008F1D9
:10113000010896FBF1F001FB1060303002F8080066
:10114000A16908F1010808EB050202EB0A00081A80
:10115000A0612078C00602D42046FFF75AF9216A20
:1011600008AE01EB0A00206204E0D4E9012116F880
:10117000010B9047BAF1010AF7D22078C00602D5D8
:101180002046FFF746F96E4609E016F8010B3E28A7
:101190000FD0D4E901219047206A401C2062B8F1A9
:1011A0000108F2D22046FFF74AF909B00320BDE852
:1011B000F08F206A2844206203E0D4E90121302026
:1011C00090476D1EEBD3F8E7464E000002FCFFFF90
:1011D00010B5436913B1AFF3008001E0FFF752F996
:1011E000012010BD127800F124010A7000224A701B
:1011F0000122EDE711684FF0FF32E9E710B54369CE
:1012000013B1AFF3008001E0FFF7D4F9012010BD66
:10121000128800F1240182840022C2840122EDE7B9
:1012200011684FF0FF32E9E770B516460C460546E7
:1012300000F044F8036893F80101012806D0FF2C60
:101240000FD8185D68B101202C7070BDD3F807016C
:101250003246214603F2071303442846BDE8704096
:1012600018474FF0FF3070BD00487047D40D002084
:101270007546FFF7F9FFAE4605006946534620F074
:101280000700854618B020B5FFF702F8BDE82040FA
:101290004FF000064FF000074FF000084FF0000B32
:1012A00021F00701AC46ACE8C009ACE8C009ACE8E5
:1012B000C009ACE8C0098D467047000010B500F0C9
:1012C00005F8001D10BD00BF8142000000487047B6
:1012D000F40D00202DE9F0411F4604460326016865
:1012E000072A01F4006004DB08B116A505E016A585
:1012F00003E008B115A500E015A521F0100020605D
:10130000A069C01EA0610FB1401EA0612046FFF77A
:1013100080F84FB1D4E9012138469047206A401C3B
:101320002062C01C206206E0206AFAE7D4E90121AD
:1013300015F8010B9047761EF8D22046FFF77FF88C
:10134000BDE8F0814E414E006E616E00494E460090
:10135000696E66002DE9F047814616468AB0354829
:1013600078440DC88DE80D0032487844801C03ACE9
:101370000DC884E80D0041F69B300844372190FBEE
:10138000F1F290FBF1F5A5F1800501FB12041B3C85
:1013900002D56442012000E00020DFF898A08046DA
:1013A0000027FA44AAF1BE0A0EE0E0070AD032464E
:1013B000684607EB470101230AEB810100F0DEFAE2
:1013C0008DE8070064107F1C002CEED1194F7F447C
:1013D000AE3F19E0E80715D007EB04100DF1180A2D
:1013E00090E80E008AE80E00C068F04201D198191A
:1013F00008903246012306A903A800F0BFFA03AB08
:1014000083E807006D10641C002DE3D14FF0010349
:1014100032466946B8F1000F03A802D000F099FAED
:1014200001E000F0ABFAC9E90001C9F808200AB0F0
:10143000BDE8F087504B000010B50446AFF30080C4
:101440002046BDE81040FEF70EBF000001491820FD
:10145000ABBEFEE72600020070475FEA400C08BF03
:1014600091F0000F4FEA8C234FEAC12243EA515119
:101470004FEA1C5018BF00F5F0404FEA300018BF8B
:1014800041F000415FEA6C5C00F02980BCF1FF3F55
:1014900008BF40F080407047130C06BF12044FF0A5
:1014A000100C4FF0000C130E04BF12020CF1080CCC
:1014B000130F04BF12010CF1040C930F04BF920030
:1014C0000CF1020CD30F04BF52000CF1010C1146B9
:1014D0004FF00002A0F11F00A0EB0C00704711F0CC
:1014E000004F08BF704731F000413FF4D5AF0B0CFF
:1014F00006BF09044FF0100C4FF0000C0B0E04BF98
:1015000009020CF1080C0B0F04BF09010CF1040CCB
:101510008B0F04BF89000CF1020CCB0F04BF4900F4
:101520000CF1010CCCF12003A0EB0C0022FA03F328
:1015300002FA0CF241EA030100F10100704720F0C9
:101540007F4C80EA030023F07F47ACEB070303F5F1
:101550007C5300F0004003F1FF032DE980494FEA7E
:10156000154B09B44FEA144325EA0B4E24EA03480D
:101570000FF2042606EB132749083E785FEA320291
:1015800003FB0667C7F5000707FB06F64FEA54376B
:101590004FEAD64606F1020607FB066CCCF1005C6A
:1015A0004FEA1C472CEA074C07FB06F40CFB06F538
:1015B00004EB15464FEA961634BF00204FF000406A
:1015C0004FEAD13706FB07FC4FEA1C4C0CFB0BF72C
:1015D000D21B03FB0CF761EB07010CFB0EF7B0EB22
:1015E000074072EB17420CFB08F734BFA2EB07422F
:1015F000B2EB074261EB17414FEA0C444FEA910707
:1016000006FB07FC4FEA1C4C0CFB0BF7B0EBC7408A
:1016100072EB573203FB0CF734BFA2EBC742B2EBBD
:10162000C74261EB57310CFB0EF7B0EBC70072EB12
:1016300057720CFB08F734BFA2EBC702B2EBC7022C
:1016400061EB5771039F4FEA816141EA921104EB0C
:10165000CC044FEAD1374FEA826206FB07FC42EA2C
:1016600090124FEA80604FEA1C4C0CFB0BF7D21B28
:1016700003FB0CF761EB07010CFB0EF7B0EB074027
:1016800072EB17420CFB08F734BFA2EB0742B2EB38
:10169000074261EB17414FEA8C554FEA910704EB83
:1016A0009C2406FB07FC4FEA1C4C0CFB0BF7B0EB31
:1016B000C74072EB573203FB0CF734BFA2EBC742B3
:1016C000B2EBC74261EB57310CFB0EF7B0EBC70032
:1016D00072EB57720CFB08F734BFA2EBC702B2EBF8
:1016E000C70261EB577115EB4C254FEA816141EA66
:1016F00092114FEA82624FEAD13742EA901206FB1A
:1017000007FC44F100044FEA80604FEA1C4C0CFBDC
:101710000BF7D21B03FB0CF761EB07010CFB0EF779
:10172000B0EB074072EB17420CFB08F734BFA2EB9B
:101730000742B2EB074261EB174115EB1C154FEA6C
:10174000813141EA92414FEA823242EA90424FEAC5
:1017500080304FEA0C7644F1000448EA03434EEA35
:101760000B484FF0000EB2EB080C71EB030724BFDF
:10177000624639464EEB0E0E4FF0000B00185241F8
:1017800049414BEB0B0BB2EB080C71EB03077BF100
:10179000000B24BF624639464EEB0E0E4FF0000B95
:1017A0000018524149414BEB0B0BB2EB080C71EBAB
:1017B00003077BF1000B24BF624639464EEB0E0E49
:1017C00051EA020718BF46F0010616EB0E7655F1F6
:1017D000000254F1000103D5BDE88901BDE800888D
:1017E000BDE88901BDE80048B619524141EB01014D
:1017F000A3F10103704780807F7E7D7C7B7A7978BE
:10180000777676757473727171706F6E6E6D6C6CC5
:101810006B6A6A6968686766666564646363626167
:101820006160605F5F5E5E5D5D5C5C5B5B5A5A59E8
:101830005958585757565655555554545353525254
:101840005251515050504F4F4F4E4E4D4D4D4C4CAC
:101850004C4B4B4B4A4A4A494949484848474747F5
:101860004746464645454544444444434343434232
:10187000424242414141002B9C4630D477002BD05C
:101880001CB54FEA370703B44FF010004FF01001BA
:10189000BAF1000F06D0BCF1000FDCBF40F0080029
:1018A00040F008014FF000000FBCBDE810400BF104
:1018B000010BBBF1010F08BF5FEA170722BF12F14E
:1018C000010211F101014FF0004143F1000300F06A
:1018D000004043EA00007047F9D35708D0E746EAD2
:1018E000064613F1400F4FEA16461FDD13F1200F95
:1018F000DFBF16430A46002120335B42BED0C3F14E
:10190000200746EA064602FA07F74FEA164646EA75
:101910000706C3F1200722FA03F201FA07F721FABA
:1019200003F14FF0000342EA0702A7E746EA020686
:1019300046EA06464FEA164646EA0106BCBF46EAB4
:101940000646360C4FF000034FF000024FF0000146
:1019500094E72DE9804C9A46934670B491E838009C
:1019600007C831EA400C48BF34EA430C03D5FFF7FF
:10197000E6FDFFF780FFF0BCBDE8008C2DE9804C50
:101980009A46934670B491E8380007C810F0804F2B
:1019900008BF13F0804F03D100F005F8FFF76BFF8D
:1019A000F0BCBDE8008C20F07F4780EA030023F004
:1019B0007F4C07EB0C03A3F57C5300F00040A3F130
:1019C000FE0392F0000F00F0B38095F0000F00F0DE
:1019D00077802DE901494FEA11404FEA144621EA88
:1019E000004800FB06FC24EA064708FB06F607FB56
:1019F00008F800FB07F718EB06484CEB164C4FEACB
:101A0000124B18EB07484FEA15464CEB174022EAF9
:101A10000B4E0BFB06FC25EA06470EFB06F607FB02
:101A20000EFE0BFB07F71EEB064E4CEB164C4FF071
:101A300000061EEB074E4CEB174B18EB0B0840F162
:101A4000000018EB0E0B58EB000840F100008F1A55
:101A50004FF000013CBFC943661B14BFB5EB040C3B
:101A600000213CBFC943F61B4FEA17444EEA8E0ED5
:101A700027EA04454FEA1C4704FB07622CEA074C9F
:101A800005FB07F70CFB05F604FB0CFC16EB074601
:101A900042EB174216EB0C4642EB1C421BEB0606D0
:101AA00058EB0202414146EA9E0601D5BDE8018994
:101AB000B619524141EB0101A3F10103BDE80189CF
:101AC0004FEA14454FEA114724EA054621EA074C3C
:101AD00005FB07F406FB07F70CFB06F105FB0CFC06
:101AE00011EB074144EB17444FEA124711EB0C414D
:101AF00044EB1C4422EA074C05FB07F206FB07F700
:101B00000CFB06F605FB0CFC16EB074642EB1742F6
:101B100016EB0C4642EB1C456A1854F1000148BF15
:101B20007047B619524141EB0101A3F1010370471F
:101B300095F0000F37D04FEA11424FEA144721EADF
:101B4000024624EA074C02FB07F106FB07F70CFBF1
:101B500006F402FB0CFC14EB074441EB17414FEA7F
:101B6000154714EB0C4441EB1C4125EA074C02FBE2
:101B700007F506FB07F70CFB06F602FB0CFC16EB61
:101B8000074645EB174516EB0C4645EB1C42121970
:101B900051F1000148BF7047B619524141EB0101B4
:101BA000A3F1010370474FEA14454FEA114724EAB5
:101BB000054621EA074C05FB07F106FB07F70CFB7E
:101BC00006F24FF0000605FB0CFC12EB074241EB5E
:101BD000174112EB0C4251EB1C4148BF7047921861
:101BE00041EB0101A3F101037047FEE770470000DC
:101BF00008484168CA0701D0491E4160282902DA15
:101C000011F1280F01DC0020704701EB4101017048
:101C1000704700001C00002010B53C21064801F070
:101C200023FA05480168CA6842F00102CA600068E8
:101C300042F21071416210BD7C01002072B6FEE7D5
:101C40002DE9F84FDFF8B8910024A9F1040B2346E1
:101C50000F2709F1040AABF1040EC9E00125A540E4
:101C60002A40AA427DD1674ED1F804C0ACEB0608E9
:101C7000B44532D014DCBCF1030F3AD009DCBCF11E
:101C8000000F2AD0BCF1010F1CD0BCF1020F31D1E2
:101C90001DE0BCF1110F17D0BCF1120F2AD119E0D1
:101CA000B8F5881F19D006DCB8F5803F15D0B8F517
:101CB000801F1FD111E0B8F5001F0ED0B8F5041F2A
:101CC00018D10AE0CB6815E0CB681B1D12E0CB6889
:101CD00008330FE0CB680C330CE08B682BB1012B81
:101CE0004FF0080303D0456104E0042302E00561DE
:101CF00000E00023FF2A01D8064601E000F10406B7
:101D00004FEA840501D9A5F12005D6F8008007FA2D
:101D100005FC28EA0C0803FA05F548EA0508C6F8A8
:101D200000804D68ED0062D5374DAE6946F0010682
:101D3000AE61AD6924F0030605F001050095334D51
:101D400006EB050CDCF80850A607360F07FA06F874
:101D500025EA0805DFF8B880404503D14FF00008B8
:101D600017E044E0DFF8AC80404502D14FF00108B5
:101D70000FE0DFF8A480404502D14FF0020808E0F0
:101D8000DFF89880404502D14FF0030801E04FF0A2
:101D9000040808FA06F848EA0508CCF808804D68F7
:101DA000D9F80060ED024D4601D5164300E0964398
:101DB0002E604D68DAF80060AD02554601D5164335
:101DC00000E096432E604D68DBF80060AD035D4691
:101DD00001D5164300E096432E604D68DEF80060A2
:101DE000ED03754601D5164300E096432E60641C52
:101DF0000D682A46E5407FF431AFBDE8F88F00005A
:101E000008040140000011100010024000000140D1
:101E100000080140000C0140001001400014014086
:101E20008068084000D0012070470AB10161704706
:101E30000904FBE7014880687047000000000020AB
:101E400002488168027811448160704700000020D8
:101E5000074810B5016841F010010160032000F04F
:101E600075F80F2000F006F800F024F8002010BDEF
:101E70000020024070B50D4D04464FF47A71287869
:101E8000B1FBF0F00A490968B1FBF0F001F004F889
:101E900048B9102C07D200222146501E00F036F817
:101EA00000206C6070BD012070BD000000000020AB
:101EB0000C0000200C4808B5816941F001018161E6
:101EC000816901F001010091C16941F08051C16156
:101ED000C06900F0805000900448416821F0E06142
:101EE00041F00071416008BD001002400000014057
:101EF000002809DB00F01F02012191404009800009
:101F000000F1E020C0F8001170470000F0B40E4B63
:101F10001B680C46C3F30223C3F10705042D00D947
:101F20000425191D072901D2002300E0DB1E01262C
:101F300006FA05F1491E214099409E40761E164042
:101F40003143F0BC03F094BA0CED00E0064900F018
:101F5000070208684FF6FF03184040EA0220034AD0
:101F600010430860704700000CED00E00000FA0527
:101F700010B50C0607D501F0070101EB810100EB5C
:101F8000C100283005E001EB810100EBC10000F544
:101F9000B47099B232B1012202730181190C4181EE
:101FA000002010BD00220273C180F9E7704701EBE9
:101FB000810200EBC202D0F8EC02D26B02F0E7B96A
:101FC00001EB810200EBC202D0F8EC02D2F87C21D6
:101FD00002F040BA70B504460B0601F0070000EBB2
:101FE000800104EBC1014FF001024FF0000503D561
:101FF00081F82920283103E081F8695101F5B47195
:10200000087094F8A802012808D084F8A822206853
:1020100002F072FE84F8A852002070BD022070BD4C
:1020200070B5044601F00F006268904201D90120AA
:1020300070BD0B0601F0070000EB800104EBC1014D
:102040004FF001024FF0000503D581F82920283117
:1020500003E081F8695101F5B4718D70087094F84E
:10206000A802012808D084F8A822206802F0E1FE26
:1020700084F8A852002070BD022070BD2DE9F05FE9
:1020800004685FEA424C0B788D69B4F850C04FF099
:1020900000064BF68F7948F2800A48F68F7B48F2AB
:1020A000C00E4FF480672AD54FF0020808EBC30832
:1020B000C44407EB4C07E45BC4F30904A54203D313
:1020C0002D1B8D6101D00BE08E61066836F8235020
:1020D00005EA090585F4005545EA0A0526F8235066
:1020E000520609D50D78036833F8252002EA0B0261
:1020F00042EA0E0223F8252084B30A8929E04FF032
:10210000060808EBC308C44407EB4C07E45BC4F3C0
:102110000904A54203D32D1B8D6101D00BE08E6114
:10212000066836F8235005EA090585F4005545EAA6
:102130000A0526F82350520609D40B78056835F8AD
:10214000232002EA0B0242EA0E0225F823202CB1DA
:102150004A8949690068234603F044F92046BDE8EE
:10216000F09F2DE9F05F054600680C465FEA426C7F
:1021700016468B692278B0F850C048F68F774CF23B
:1021800080094FF4004B4FF6FF7E4FF4806A4FF00A
:10219000000172D54FF0020808EBC208E0440AEBD8
:1021A000480C30F80C00C0F30900834211D91B1A07
:1021B000A3610FD0730407D52E6836F822303B4058
:1021C00043EA090326F8223094F82420012A47D054
:1021D00052E1A161607810B1012813D01AE028689B
:1021E000B0F85030184400EB0210B0F80424C2F3E9
:1021F0000902A0F80424B0F8042442F40042A0F834
:10220000042407E02868B0F85030184400EB0210AE
:10221000A0F804146278286812B1012A11D018E0DD
:10222000B0F850100844217800EB0110B0F80C14FD
:10223000C1F30901A0F80C14B0F80C1441F40041EA
:1022400005E0B0F850201044227800EB0210A0F80E
:102250000C1421782846FFF7AAFE700472D40BE113
:10226000626902446261E2690244E2612369226AAE
:102270009A4203D31846111A04E03EE084F8241071
:102280000AB110462162617811B1012929D031E0EB
:102290002968B1F850201144227801EB0211B1F8FD
:1022A0000424C2F30902A1F8042401F204413E28E7
:1022B00007D94209C30600D1521E0B884BEA82227D
:1022C00007E048B14208C30700D0521C0B880EEA51
:1022D000822213430B800DE00A8842F400420A80F8
:1022E00008E02968B1F850201144227801EB02116E
:1022F000A1F8040483B22289BAE04FF0060808EB83
:10230000C208E0440AEB480C30F80C00C0F30900A6
:10231000834211D31B1AA3610FD0730407D42E6814
:1023200036F822303B4043EA090326F8223094F87D
:102330002420012A51D09FE0A161607818B10128C2
:1023400014D01BE03FE02868B0F85030184400EB90
:102350000210B0F80424C2F30902A0F80424B0F873
:10236000042442F40042A0F8042407E02868B0F8EE
:102370005030184400EB0210A0F80414627828686A
:1023800012B1012A11D018E0B0F850100844217899
:1023900000EB0110B0F80C14C1F30901A0F80C1403
:1023A000B0F80C1441F4004105E0B0F8502010449E
:1023B000227800EB0210A0F80C1421782846FFF7D1
:1023C000F6FD700458D42278296831F8220038408C
:1023D00040EA090021F822004EE06269024462618D
:1023E000E2690244E2612369226A9A4203D31846F1
:1023F000111A216204E00AB11046216284F8241007
:102400006278296812B1012A28D02FE0B1F8502053
:102410001144227801EB0211B1F80C24C2F3090235
:10242000A1F80C2401F20C413E2807D94209C30649
:1024300000D1521E0B884BEA822207E048B14208C5
:10244000C30700D0521C0B880EEA822213430B8074
:102450000CE00A8842F400420A8007E0B1F85020FC
:102460001144227801EB0211A1F80C04628983B2B5
:102470006169286802F0D4FF2278296831F82200C7
:1024800048F6BF73184080F0300048F280031843CC
:1024900021F822000020BDE8F09F2DE9F04104461C
:1024A0000F0601F0070000EB800104EBC1014FF0C3
:1024B00001064FF0000503D581F82960283103E0BB
:1024C00081F8695101F5B471022B08700A61CB7073
:1024D00000D10D7194F8A802012809D084F8A862EF
:1024E000206802F0B9FA284684F8A852BDE8F081C5
:1024F0000220FBE710B501F0070404EB840100EBB8
:10250000C101C1E95F230022C1F8842181F869215A
:1025100081F86841006801F5B47102F0DFFC002029
:1025200010BD70B504460D4601F007006168884291
:1025300001D9012070BD29064FF000064FF00102BD
:1025400007D500EB800104EBC10181F82920283177
:1025500007E005EB850104EBC10181F8696101F534
:10256000B4718A70087094F8A802012807D084F822
:10257000A822206802F099FC680702D006E0022039
:1025800070BD04F52C71206802F051FC84F8A8623B
:10259000002070BD10B501F0070404EB840100EBCE
:1025A000C101C1E90F23012281F84C208B64002373
:1025B0004B6481F8292001F8284F006802F08EFC56
:1025C000002010BD1FB50446006802F007FF01049B
:1025D00003D5204601F0C5F91FBD41050DD5206882
:1025E00030F8441F21F480610180204600F010F98A
:1025F0000021204600F027F91FBD410405D52068C1
:1026000030F8441F21F4804174E0810405D520682E
:1026100030F8441F21F400516CE0C10414D5206847
:1026200030F8401F21F004010180206830F8401F7D
:1026300021F008010180204600F0FDF8206830F804
:10264000441F21F4805155E0010540D5D4F8002005
:102650000020694632F8203021F81030401CC0B20A
:102660000828F7D332F8400F40F0010010802068AE
:1026700030F8402F22F0010202802068B0F8442098
:102680005205FBD530F8442F22F4806202800020EE
:10269000236831F8102023F82020401CC0B20828FD
:1026A000F6D3206830F8401F41F00801018020680F
:1026B00030F8441F21F400610180206830F8401F89
:1026C00041F004010180204600F0F2F81FBD8105B1
:1026D00009D5206830F8441F21F40071018020469C
:1026E00000F0ADF81FBDC005FCD5206830F8441FD0
:1026F00021F4807101801FBD2DE9F04186B00400F6
:1027000004D094F8A902002520B108E0012006B009
:10271000BDE8F08184F8A852204600F05BF8032061
:1027200084F8A902206802F07BFB04F11001142256
:1027300088466846FDF7D0FD94E80F0002F0DAFA0B
:102740000227D0BB0021206802F062FE0020012693
:102750000EE000BF00EB800104EBC10181F82960AD
:1027600001F8280F401CCD700D614D61C0B28D6124
:1027700061688142EED8002012E000BF00EB8001CA
:1027800004EBC10181F8695181F8680181F86B514E
:10279000C1F87851C1F87C51401CC0B2C1F88051D9
:1027A00061688142EAD8142241466846FDF794FDEB
:1027B00094E80F0002F02BFB10B184F8A972A5E792
:1027C00084F8245084F8A962206802F01EFB0020DF
:1027D0009DE7000008B500680B49884212D10B48FC
:1027E000C16941F40001C161C069002200F4000028
:1027F000009011461420FFF789FBBDE80840142023
:10280000FFF776BB08BD0000005C004000100240EE
:1028100070B5044680680125022801D0FFF70EFA42
:102820002946D4F8EC0201F0EEFED4F8EC02BDE843
:10283000704001F0AABED0F8EC0201F0CEBED0F894
:10284000EC0201F0D4BE10B5044690F8A8020128AD
:102850000BD0012084F8A80284F82410206802F02C
:10286000D9FD002084F8A80210BD022010BDD0F8C8
:10287000EC2200F52C71104601F0D1BE10B50446D3
:1028800090F8A802012810D0012084F8A80220683E
:1028900002F095FD01212046FFF788FB206802F039
:1028A000B2FA002084F8A80210BD022010BD00007A
:1028B00010B50446D0F8EC0201F0F0FEA069002843
:1028C00004D00348016841F00601016010BD00001A
:1028D00010ED00E02DE9F84305460078354CC007BF
:1028E00054D0E0690026C00008D4E06940F0805070
:1028F000E061E069012600F0805000902E480168F8
:10290000C90512D40168804641F480710160FFF767
:1029100091FA074605E000BFFFF78CFAC01B642858
:1029200023D8D8F80000C005F6D5206A10F440700E
:1029300021D0A98801F4407181421CD0206A1F492E
:10294000012220F440700A6000220A602062C00761
:1029500011D0FFF76FFA074641F2883808E000BF50
:10296000FFF768FAC11B414502D90320BDE8F8838F
:10297000206A8007F4D5206A696820F44070084313
:1029800020621EB1E06920F08050E0612878800765
:1029900005D56068A96820F4404008436060287845
:1029A000C00605D56068E96820F4800008436060CF
:1029B0000020DBE70010024000700040400442426B
:1029C0002DE9F0470F46050061D0434E306800F016
:1029D0000700B84209D2306820F007003843306061
:1029E000306800F00700B84251D128683B4C81079D
:1029F00012D5400703D5606840F4E0606060287835
:102A0000000703D5606840F4605060606068A968A2
:102A100020F0F000084360602878C00728D068687C
:102A2000012810D02168022810D0890700292EDA49
:102A3000616821F0030101436160FFF7FBF9804603
:102A400041F288390DE021688903EFE78901EDE75C
:102A5000FFF7F0F9A0EB0801494502D90320BDE8D2
:102A6000F0876068696800F00C00B0EB810FEFD16F
:102A7000306800F00700B8420BD9306820F007003A
:102A800038433060306800F00700B84201D00120C0
:102A9000E5E72878400705D56068E96820F4E0603C
:102AA000084360602878000706D56068296920F42B
:102AB000605040EAC100606000F038F86168084A80
:102AC000C1F30311515CC84006490860064800681C
:102AD000FFF7D0F90020C2E70020024000100240BA
:102AE0008E5500080C000020040000200448054911
:102AF00000684968044AC1F30221515CC84070472C
:102B00000C000020001002409E55000804480549B2
:102B100000684968044AC1F3C221515CC84070474B
:102B20000C000020001002409E5500080E4A51681B
:102B30000E4801F00C03042B11D0082B0FD10C48C8
:102B4000C1F38343C903C05C0AD55168084AC1F385
:102B50004041921E515C054A5043B0FBF1F0704772
:102B600004494843704700000010024000127A00F8
:102B70007E55000800093D002DE9F84F040070D093
:102B80002078C04DC00749D06868C0F38100012893
:102B900007D06868C0F38100022809D16868C003C3
:102BA00006D52868800339D560680028E7D035E06D
:102BB0006068B0F5803F0BD010B1B0F5A02F11D0F8
:102BC000286820F480302860286820F4802002E003
:102BD000286840F480302860606890B1FFF72AF9D7
:102BE00006460AE0286840F480202860F0E700BF2D
:102BF000FFF720F9801B642873D828688003F7D575
:102C00000CE0FFF717F9064605E000BFFFF712F9E1
:102C1000801B6428F0D828688003F7D420789A4E67
:102C200080074FF001094FF0000839D5686810F0AF
:102C30000C0F07D06868C0F38100022809D16868CA
:102C4000C00306D42868800714D52069012808D15C
:102C500010E02069B0B1C6F80090FFF7EBF8074626
:102C600005E00AE1FFF7E6F8C01B0228C4D828688F
:102C70008007F7D52868616920F0F80040EAC100B4
:102C800028600DE0C6F80080FFF7D4F8074604E09E
:102C9000FFF7D0F8C01B022823D828688007F7D494
:102CA000207800072CD57948A169D9B1C0F80090E7
:102CB000FFF7C0F8074604E0FFF7BCF8C01B022886
:102CC0000FD8686A8007F7D571484FF4FA51006849
:102CD000B0FBF1F0009000BF0098411E0091FAD2C5
:102CE0000EE080E0C0F80080FFF7A4F8074604E09B
:102CF000FFF7A0F8C01B022875D8686A8007F7D4D0
:102D00002078400760D5E8690027C00008D4E8694A
:102D100040F08050E861E869012700F080500090A1
:102D20005C480168C90513D40168834641F4807189
:102D30000160FFF77FF8824606E000BFFFF77AF8F0
:102D4000A0EB0A0064284ED8DBF80000C005F5D5DA
:102D5000E06801280AD008B1052813D0286A20F0BD
:102D600001002862286A20F0040002E0286A40F08E
:102D700001002862E06841F2883B98B1FFF75AF8F9
:102D800082460BE0286A40F004002862EEE700BFAC
:102D9000FFF750F8A0EB0A0159455AD8286A800776
:102DA000F6D50CE0FFF746F8824605E0FFF742F85B
:102DB000A0EB0A0159454CD8286A8007F6D41FB108
:102DC000E86920F08050E861E06988B36968C1F380
:102DD0008101022944D00228C6F8608004D0FFF7A0
:102DE00029F8044638E034E0FFF724F8074604E009
:102DF000FFF720F8C01B02282BD828688001F7D4E1
:102E0000206AB0F5803F05D16868A16820F40030E1
:102E100008436860D4E908010843696821F4741123
:102E200008436860C6F86090FFF704F8044606E0BF
:102E300025E000BFFEF7FEFF001B022809D8286826
:102E40008001F7D51BE000BFFEF7F4FF001B02284E
:102E500002D90320BDE8F88F28688001F4D40EE081
:102E60000128F7D06868226A00F48031914204D1C9
:102E7000616A00F47010884201D00120EAE7002066
:102E8000E8E7000000100240000042428004424295
:102E90000C0000200070004010B5401EB0F1807F93
:102EA00001D3012010BD4FF0E02460610F216017B5
:102EB00002F0DEFA0020A06107202061002010BD92
:102EC0007047704770B590F83C20012A26D0012445
:102ED00080F83C40022280F83D2003685A689D68D3
:102EE00022F070060A6832435A600D4B02689A421B
:102EF00008D0B2F1804F05D00A4B9A4202D00A4B5B
:102F00009A4204D1496825F080031943916080F802
:102F10003D40002180F83C10084670BD022070BD85
:102F2000002C014000040040000800402DE9F04161
:102F30000D46040003D094F83D0018B108E00120CC
:102F4000BDE8F081002084F83C00204600F040F805
:102F5000022084F83D002068816844F20702914312
:102F60008160211D206800F02BFF22689068916924
:102F7000166A2B68AF69034340F20330814341EA8C
:102F80000721A868EF6908434FF6FC418843E968C8
:102F900040EA0720014328692F6A000140EA073010
:102FA000084369686D6926F0220646EA051529433B
:102FB00093602268906154F8460B0162012004F886
:102FC0001F09E0752076E0762077A0750020B7E72E
:102FD00000B585B000210091019102910391006834
:102FE0001E49884237D11E48816941F400618161E0
:102FF000816901F400610491816941F004018161FA
:103000008069694600F0040004904FF4407000901D
:103010001448FEF715FE002211461820FEF776FF31
:103020001820FEF765FF002211461920FEF76EFFFB
:103030001920FEF75DFF002211461A20FEF766FFF9
:103040001A20FEF755FF002211461B20FEF75EFFF7
:103050001B20FEF74DFF05B000BD0000002C014015
:10306000001002400008014070B590F83E60044630
:1030700090F83F5090F8423090F84320022021B160
:1030800004290ED0012E1BD114E0012E18D1012BE2
:1030900016D184F83E0084F8420001220021206805
:1030A00020E0012D0CD1012A0AD184F83F0084F8D8
:1030B000430014E0012D03D1012B01D1012A01D0DD
:1030C000012070BD84F83E0084F83F0084F842007F
:1030D00084F8430001220021206800F0A7FE0122AD
:1030E0000421206800F0A2FE2068016841F001017F
:1030F0000160002070BD0000094910B588420CD164
:10310000007F012809D141020648FEF789FE0649E1
:103110000028486802D0401E486010BD401CFBE7F4
:103120007C010020000801401C00002070B504460E
:10313000006801694FF00005C943890715D4C168CB
:10314000C943890711D4E91E016101202077206855
:1031500080698007204602D0FFF7CEFF04E000F030
:1031600098F8204600F096F8257720680169C94351
:10317000490717D4C168C943490713D46FF0040144
:103180000161022020772068806910F4407F20468A
:1031900002D0FFF7B1FF04E000F07BF8204600F01A
:1031A00079F8257720680169C943090716D4C168F1
:1031B000C943090712D46FF0080101610420207788
:1031C0002068C0698007204602D0FFF795FF04E021
:1031D00000F05FF8204600F05DF82577206801696F
:1031E000C943C90617D4C168C943C90613D46FF0CF
:1031F00010010161082020772068C06910F4407F29
:10320000204602D0FFF778FF04E000F042F82046A5
:1032100000F040F8257720680169C943C90708D143
:10322000C168C943C90704D1891E0161204600F065
:1032300033F820680169C943090609D4C168C94344
:10324000090605D46FF0800101612046FFF738FEC2
:1032500020680169C943490609D4C168C9434906C0
:1032600005D46FF040010161204600F02FF820687E
:103270000169C94389060BD4C168C943890607D4CB
:103280006FF0200101612046BDE87040FFF719BED4
:1032900070BD70477047000010B5026809480168AA
:1032A0008A420ED14C6A084B42F21072944258681E
:1032B00001D2401C03E04C6A944201D9401E586080
:1032C0004A6210BD7C0100201C000020704718B528
:1032D000034690F84200202801D0022018BD61B1B9
:1032E0005AB10120186300205863184600F008FE08
:1032F0000028F3D1196B012901D0012018BD1968EC
:103300000A684968009119680C3151E8002F42F0B1
:10331000100241E80024002CF5D118BD70B504005E
:1033200004D094F84100002510B106E0012070BDE2
:1033300084F84050204600F023F8242084F841000F
:103340002068C16821F40051C160204600F07CFD76
:103350002068016921F4904101612068416921F0F0
:103360002A0141612068C16841F40051C16065646F
:10337000202084F8410084F842006563002070BD7D
:1033800030B585B000240094019402940394006841
:103390001449884224D11448C16941F48021C16193
:1033A000C16901F480210491816941F008018161C2
:1033B00080690E4D00F0080004904FF4806000908A
:1033C000022001900320039069462846FEF738FC4E
:1033D000E814CDE90004694628460294FEF730FC63
:1033E00005B030BD0048004000100240000C014014
:1033F000012202490248FFF76ABF000013000020C3
:10340000C4010020FEE70000F0B500230A243025A7
:1034100037261F4611E000BFB4EB107F02D905EB41
:10342000107C01E006EB107C01F813C001EB430CAB
:1034300000015B1C8CF80170DBB29342ECD3F0BD51
:1034400070B586B000241848009401940294039447
:10345000816941F020018161816901F020010491BD
:10346000816941F008018161816901F008010491DD
:10347000816941F00401816180690C4E00F0040013
:103480004FF440750490002229463046FEF7CDFCEB
:1034900011200095CDE901040220039069463046D1
:1034A000FEF7CEFB06B070BD00100240000C0140DC
:1034B00010B58CB024216846FCF740FF0024164864
:1034C000099414490A94C0E900144FF6FF71C0E949
:1034D00002410461446184610120CDE90004CDE929
:1034E00002040494CDE90540079469460A4808940B
:1034F000FFF71CFD08B1FEF7A1FB099409A90648D6
:103500000A94FFF7DFFC002801D0FEF797FB0CB010
:1035100010BD0000002C01407C0100200C4810B5BB
:103520000A4901604FF4E1314160002181600C22C1
:10353000C160C0E904128161C161FFF7EFFE00289C
:1035400003D0BDE81040FEF779BB10BD0048004035
:10355000C401002010B500220B490C4800F0F0FE19
:1035600008B1FEF76BFB0A49084801F0BDF808B145
:10357000FEF764FB054801F00DF9002803D0BDE813
:103580001040FEF75BBB10BD240000200C0600209D
:1035900074000020FEE7FEE710B50021074C0A4644
:1035A000002004EBC1131A54401CC0B28028FAD387
:1035B000491CC9B20829F3D310BD00000C02002039
:1035C000F0B57F282AD83F2928D88418802C02D922
:1035D000C0F18002D2B2CC18402C02D9C1F1400314
:1035E000DBB20126DFF838E087180B4414E001F065
:1035F000070206FA02F5CA0804460EEBC21207E0FB
:1036000012F804C02CEA050C02F804C0641CE4B2F1
:10361000A742F5D8491CC9B28B42E8D8F0BD0000DA
:103620000C02002010B500204FF47A720021491CD2
:103630009142FCD3401C9042F8D3FFF701FF0120D8
:1036400000F056F9BDE81040012000F059B970B5FE
:1036500000240646802525FA04F0304000D00120E1
:1036600000F04EF9012000F043F9002000F040F98D
:10367000641CE4B2082CEED3012000F039F9BDE857
:103680007040002000F034B910B5012000F038F986
:10369000012000F02DF9002000F032F9BDE81040C3
:1036A000002000F025B910B5002000F029F9012014
:1036B00000F01EF9BDE81040012000F021B910B55E
:1036C000FFF7B0FFAE2000F023F9D52000F020F97D
:1036D000802000F01DF9A82000F01AF93F2000F02A
:1036E00017F9D32000F014F9002000F011F9402060
:1036F00000F00EF9A12000F00BF9C82000F008F945
:10370000DA2000F005F9122000F002F9812000F023
:10371000FFF8CF2000F0FCF8D92000F0F9F8F120F4
:1037200000F0F6F8DB2000F0F3F8302000F0F0F8BD
:10373000A42000F0EDF8A62000F0EAF88D2000F0BB
:10374000E7F8142000F0E4F8AF2000F0E1F8FFF70C
:1037500023FFBDE8104000F0B7B80FB470B588B0D3
:1037600014460D46064610AA68460F99FCF7A2FDBE
:1037700023466A462946304600F090F808B070BCEF
:103780005DF814FB10B50C4640F0B00000F0C0F836
:10379000102040EA141000F0BBF804F00F00BDE860
:1037A000104000F0B5B8000018B5A2F120045F2C5D
:1037B0000ED2082B0DD0062B0AD10A4B02EB420287
:1037C00003EB4202C03A00920823062200F00EF8F2
:1037D00018BD054B03EB0212A2F5007210230092F4
:1037E0000822F3E7965B0008A65500082DE9FC4F78
:1037F0001F4615460C4606467F284AD83F2C48D817
:10380000FFF7DEFE781EC117002300EB5170012187
:10381000DFF884B004F0070901EBE00737E000208F
:1038200031E031187F2930D803EBD40ABAF1070F01
:103830002FD80BEBCA1E03FB05F21EF801C0019244
:10384000DDF82C808044CDF8008012F8082002FAC0
:1038500009F24CEA020C0AF101020EF801C0072A33
:103860000FD80EEB0108DDE900C198F8802011F8AF
:103870000CC0C9F108012CFA01FC42EA0C0288F8DC
:103880008020401CC0B2A842CBD35B1CDBB29F425D
:10389000C5DCBDE8FC8F00000C0200202DE9F041E2
:1038A0001E46154688460746002408E004FB0670BD
:1038B000C0B233464146FFF777FF641CE4B22A5D8D
:1038C000002AF3D1BDE8F08170B5084D0024002135
:1038D0002046FFF757FF05EBC410802100F029F8C0
:1038E000641CE4B2082CF2D370BD00000C0200206E
:1038F00002464FF480710148FEF797BA000C014070
:1039000002464FF400710148FEF78FBA000C0140E7
:1039100010B50446FFF7B8FE7820FFF798FE0020A8
:10392000FFF795FE2046FFF792FEBDE81040FFF737
:10393000BABE70B50D460646FFF7A6FE7820FFF723
:1039400086FE4020FFF783FE002404E0305DFFF791
:103950007EFE641CE4B2AC42F8D3BDE87040FFF7D1
:10396000A2BE2DE9F84F044640F68F7B48F60F794A
:103970004FF480684FF0000AC0E1B0F8441011F035
:103980000F0539D030F8256031047ED530F8251088
:1039900001EA0B0141F0800120F8251005EB8500BC
:1039A00004EBC00797F8740107F5B47700286DD0D1
:1039B000F87802286BD03978226832F8210048F66E
:1039C0008F73184048F2C003184322F82100397859
:1039D000206830F82120B0F8503052047DD5022202
:1039E00002EBC1015A1808EB4201415A8905890DC1
:1039F000009173D03A89DFE0C9062DD4018801EA2D
:103A0000090141F400410180206804F12805B0F863
:103A100050302978022202EBC1015A1808EB42010A
:103A2000405AC0F309006064E16B0844E063002180
:103A30002046FEF7BCFA94F8240000289CD0A86920
:103A4000002899D194F82400216840F08000A1F862
:103A50004C0084F824A051E1018804F5B4750A05EE
:103A600021D5B0F850202B78062101EBC3010A4480
:103A700008EB4201405A04F52C71C0F30903EB61D5
:103A8000EA88206801F0AEFC02E0B0E070E080E07F
:103A90002068018801EA0B0141F080010180204685
:103AA000FEF7E5FE2AE10904D5D5018801EA0B01FC
:103AB00041F0800101802068B0F850202B78062169
:103AC00001EBC3010A4408EB4201405A83059B0DF8
:103AD000EB6110D0696971B101E061E05FE0EA88F3
:103AE000206801F07FFCE969686908446861002189
:103AF0002046FEF765FA216808880205ABD4C0F3BA
:103B000001300328A7D0B1F850000844B0F80C14D5
:103B1000C1F30901A0F80C142A6900F20C403E2AF6
:103B200009D95109D20600D1491E02884FF4004339
:103B300043EA812109E0B2B15108D20700D0491C03
:103B400002884FF6FF7303EA81210A43028021684D
:103B500008884BF68F72104080F4405048F2800283
:103B600010430880CAE0018841F400410180EEE77B
:103B70002068B0F850203B78062101EBC3010A44CD
:103B800008EB4201415A8905890D009118D0FA8845
:103B900012E0324639462046FEF770FA00900FE0F8
:103BA000062202EBC1015A1808EB4201415A89056D
:103BB000890D009104D07A897969009B01F012FC8B
:103BC000F86900990844F8617969009808447861B7
:103BD000B86918B139690098814204D9397820460A
:103BE000FEF7EEF903E03946206801F077F9300678
:103BF0002FD505EB850004EBC001206830F82520A7
:103C000002EA090242F4004220F8252091F82B0034
:103C1000283101281ED0F0056CD42068B0F850304F
:103C20000D78022202EBC5021A4408EB4202805AC8
:103C30008A69C0F30900824255D9121A8A6154D0A8
:103C40004A6902444A61CA691044C861206801F0A7
:103C500045F953E0C1F818A0087B524608B3700636
:103C600020D5487810B1012812D03AE02068B0F889
:103C7000502010440A7800EB0210B0F80424C2F37C
:103C80000902A0F80424B0F8042442F4004206E03B
:103C90002068B0F8503018440B7800EB0310A0F8FF
:103CA00004241EE04B78206813B1012B11D018E0DA
:103CB000B0F8502010440A7800EB0210B0F80C2441
:103CC000C2F30902A0F80C24B0F80C2442F400421C
:103CD00005E0B0F8503018440B7800EB0310A0F862
:103CE0000C24097802E0C1F818A0E9B22046FEF7DA
:103CF0005EF903E032462046FEF733FA2068B0F85A
:103D0000441009043FF539AE0020BDE8F88F704734
:103D10007047FEF795B830B593B028216846FCF798
:103D20000DFB14210AA8FCF709FB002401200F94C5
:103D300010941194010412948DE8130004904FF430
:103D4000E010CDE90810022507956846FEF714FF3C
:103D500008B172B6FEE70F20CDE90A054FF4806086
:103D6000CDE90C4002210AA80E94FEF729FE08B105
:103D700072B6FEE710200F9012940FA8FEF7AAFD6E
:103D8000002801D072B6FEE713B030BD70470000C6
:103D90000148FFF7CBB900007C0100200148FFF784
:103DA000C5B900007C0100200148FFF7BFB9000041
:103DB0007C0100200148FFF7B9B900007C01002018
:103DC000F0B50268164B174C174D4FF080479842DC
:103DD00005D0B84203D0A04201D0A84203D122F0BE
:103DE00070064A683243984205D0B84203D0A042D8
:103DF00001D0A84203D122F44074CA6822434C691E
:103E000022F08002224302608A68C2620A688262EB
:103E1000984201D10969016301214161F0BD0000AF
:103E2000002C0140000400400008004010B501F0E3
:103E30001F030121046A99408C430462016A9A407D
:103E40001143016210BD000070B5044600680169AD
:103E5000E26821F44051114301612169A0680843DF
:103E6000616908432168CA6841F20C639A430243BE
:103E7000CA6020684169A26921F44071114341611F
:103E80001E492068884202D1FEF740FE01E0FEF79D
:103E90002DFE00EBC00101EB001260686421800080
:103EA000B2FBF0F3B3FBF1F36FF018067343B2FB10
:103EB000F0F5B2FBF0F605EB8305322303EB0515B5
:103EC000B5FBF1F5B6FBF1F605F0F00505EB0615CF
:103ED000B2FBF0F6B2FBF0F0B0FBF1F06FF01802BD
:103EE000504306EB800003EB0010B0FBF1F02168BB
:103EF00000F00F002844886070BD000000380140C9
:103F000081628285C28500214164222180F84210AD
:103F1000016921B10168CA6842F48072CA6001680F
:103F20004A6942F001024A610068C16841F020011B
:103F3000C1600020704710B5D0F8B4225268904795
:103F4000002010BD134610B50A46002100F014FBF6
:103F5000002010BD134610B50A46002100F0A7FB53
:103F6000002010BD10B50446802100F085FB2046DE
:103F7000BDE81040002100F07FBB10B505210023F3
:103F8000C0F894121A46194600F0F6FA002010BD47
:103F900010B50223C261C0F89432026213460A4689
:103FA000002100F084FB002010BD10B50421002387
:103FB000C0F894121A46194600F079FB002010BD93
:103FC00010B50A46024903A000F0E2F8004810BD0F
:103FD000D008002048494420436F6E66696700009E
:103FE00012200880004870474400002010B50A469F
:103FF000024903A000F0CCF8004810BDD008002012
:1040000048494420496E746572666163650000002A
:1040100004200880004870474000002010B50A4680
:10402000024903A000F0B4F8004810BDD0080020F9
:1040300053544D6963726F656C656374726F6E691A
:104040006373000010B50A46024903A000F0A0F80F
:10405000004810BDD008002053544D33322048751D
:104060006D616E20696E7465726661636500000043
:1040700010B51A2008800A480168001D0468001D58
:104080000068081809D008220649FFF7BDF905495C
:10409000042210312046FFF7B7F90248801E10BDF8
:1040A000E8F7FF1F5A000020F8B504460020ADF8DD
:1040B000000048880D46010A082948D2DFE801F0CF
:1040C0004704091747473C45D4F8B012207C0A68DA
:1040D00019E0207C02260028D4F8B40205D0C16A79
:1040E00068468847014646703EE0816AF8E7C0B2FC
:1040F00006282CD2DFE800F0030A1014181CD4F8AC
:10410000B002426805E0694690471CE0D4F8B0026E
:104110008268E2B1207CF6E7D4F8B002C268F8E722
:10412000D4F8B0020269F4E7D4F8B0024269F0E7CB
:10413000D4F8B0028269ECE7207C40B9D4F8B4022C
:10414000416B6846884701460EE0207C20B1294635
:104150002046FFF707FFF8BDD4F8B402016B6846AC
:104160008847014607204870BDF8000048B1EA883A
:1041700052B1824200D90246ADF800202046FFF736
:1041800007FFE8880028E6D12046FFF70EFFF8BDBC
:1041900070B5002300281ED00446002502E06D1CE7
:1041A000EDB2641C2678002EF9D1022404EB4504FC
:1041B00014801278CA545B1C0322CA5400245B1C6E
:1041C00006E0CA545B1CDAB28C54521CD3B2401CB9
:1041D0000278002AF5D170BD01004FF0000004D034
:1041E000012901D0022901D0022070470120704727
:1041F000D0F8B802002101730846704770B5044634
:10420000812100F0BBF80025E562D4F8B80218B1AE
:1042100000F01DFCC4F8B852002070BD0A210180D6
:104220000048704724010020222101800048704787
:10423000AC0000202221018000487047D0000020FF
:104240002221018000487047F400002010B5044688
:1042500004230322812100F083F90120E062102071
:1042600000F0F6FBC4F8B80218B10021017308464B
:1042700010BD022010BD000038B503460022D0F862
:10428000B802ADF8002014460A7812F0600216D089
:10429000202A4AD14A78022A0ED0032A06D00A2AB6
:1042A00006D00B2A41D18978016042E001222BE03F
:1042B0004988090A41603CE00122011D25E04A7855
:1042C00032B1062A0BD00A2A23D00B2A2DD128E09E
:1042D00093F89C02032828D10222694615E04888F9
:1042E0002222B2EB102F05D1CA884A2A00D94A22CD
:1042F000124809E02122B2EB102F16D10F48CA88CC
:104300001838092A00D9092201461846FFF740FE4D
:104310000FE093F89C22032A07D1012200F1080143
:10432000F3E793F89C22032A05D01846FFF71AFEFC
:104330000224204638BD89788160FAE730010020E8
:1043400010B580B1D0F8B43213B10023C0F8B43244
:1043500009B1C0F8B012012180F89C12027000F07F
:10436000BBF8002010BD022010BD10B5D0F8C0026F
:10437000FDF756FEBDE81040FFF72EBF10B5D0F890
:10438000C002FDF727FEBDE81040FFF725BF2DE96D
:10439000F0411746044651B1D4F8B40242691AB14B
:1043A00094F89C02032851D00220BDE8F081D4F893
:1043B0009432002504F11400022B03D0042B3AD0D0
:1043C000C3B33CE0D0E903639E4207D9F11AC16050
:1043D0008AB239462046FFF7BDFD12E08068B0FB87
:1043E000F3F103FB110199B9984211D3D4F8981253
:1043F00088420DD2002211462046FFF7ABFDC4F8DB
:10440000985200231A461946204600F0B5F816E0E7
:10441000D4F8B402C16829B194F89C02032801D1F0
:10442000204688478021204600F026F92046FFF7E5
:10443000A4FD04E0FFE78021204600F01DF994F878
:10444000A002012804D184F8A05201E02046904740
:104450000020AAE770B51546044649B1D4F8B40265
:1044600082691AB194F89C02032830D0022070BDF2
:10447000D4F8941204F5AA70032902D005291ED09D
:1044800027E0D0E903218A420BD9531AC3600846BA
:10449000834200D303469AB229462046FFF752FDD5
:1044A00017E0D4F8B402016929B194F89C020328FA
:1044B00001D1204688472046FFF777FD09E000201C
:1044C0000146C4F89402204600F0D6F801E02046E8
:1044D0009047002070BD000010B517490446C1F890
:1044E000EC02C0F8C012154808600820486002209D
:1044F000886000208861C86108620846FEF7FCF801
:1045000008B1FDF79BFB0022D4F8C0021823114626
:1045100004F53074FDF72CFD58230022802120681B
:10452000FDF726FD4FF48073002281212068FDF7FE
:104530001FFD002010BD0000E40A0020005C0040C8
:104540000A0601F07F01D0F8C00201EB810100EB07
:10455000C10002D590F82A00704790F86A017047B0
:1045600010B51C461346D0F8C0022246FDF795FF51
:10457000BDE81040FFF730BE10B5D0F8C002FDF71F
:10458000B9FFBDE81040FFF727BE70B50022044612
:1045900040231146FFF7E4FF40260125C4F864617B
:1045A0003346002280212046C4F85851FFF7D8FF37
:1045B0006662A56184F89C520020C4F89402606091
:1045C000C4F8A402D4F8B80228B1D4F8B402002187
:1045D000426820469047002070BD90F89C12042944
:1045E00003D190F89D1280F89C120020704710B5FE
:1045F00090F89C12032904D1D0F8B412C96901B112
:104600008847002010BD01740020704710B5D0F815
:10461000C002FEF718F9BDE81040FFF7DDBD70B528
:10462000044600F52A70054600F04AF80120C4F857
:104630009402B4F8AE02C4F8980294F8A80210F0FC
:104640001F010AD001290DD0022910D000F08001ED
:10465000204600F011F8002070BD2946204600F0E9
:104660009EF8F8E72946204600F0CAF9F3E7294604
:10467000204600F01DF9EEE710B5D0F8C002FDF7B6
:1046800050FFBDE81040FFF7A7BD10B5D0F8C0023D
:10469000FEF7F4F8BDE81040FFF79EBD90F89C12BD
:1046A00080F89D12042180F89C120020704710B5FC
:1046B000D0F8C002FDF76EFFBDE81040FFF78CBDDB
:1046C0000A7802704A7842708A78CB7802EB03222B
:1046D00042800A794B7902EB032282808A79C97978
:1046E00002EB0121C18070470246002011B1C2F8DF
:1046F000B41270470220704710B5D0F8B4220224DB
:104700001AB11268904700B90024204610BD00007D
:1047100070B50E461E4D897804462970012931D89E
:1047200094F89C0202280BD003280FD03146204673
:10473000FFF718FC29782046BDE87040FFF7FBBB67
:10474000D9B10320616084F89C0209E071B160680E
:10475000884212D0C1B22046FFF7EDFB2978616094
:104760002046FFF7C9FF02280CD006E0022084F89B
:104770009C0220466160FFF7DEFB2046BDE87040EA
:10478000FFF713BC31462046BDE87040FFF7EABB97
:104790007200002010B5FFF778FF002010BD2DE952
:1047A000F0410A78002612F0600208D0202A01D0D9
:1047B000402A70D1D0F8B422926890476DE04B78CF
:1047C000002201250A2B66D2DFE803F0405D655721
:1047D000650805652C29FFF767FC5EE004468888BC
:1047E000D8B9C888C8B94888802816D200F07F0791
:1047F00094F89C02032810D084F89E723946204613
:10480000FFF704FF2046FFF7D0FB1FB1022084F81A
:104810009C0242E084F89C523FE020463BE0FFF7D8
:1048200077FF3AE0CB88012B35D190F89C32012BF1
:1048300004D0022B02D0032B2DD104E08260012290
:1048400000F1080116E00122011D13E090F89C22FE
:10485000012A03D0022A01D0032A1CD1CA88022AC5
:1048600019D1C560D0F8A41209B10321C160022298
:1048700000F10C01FFF78CFB0FE0498801290CD1F6
:10488000C0F8A45211E090F89C32012B08D0022B02
:1048900006D0032B04D0FFF765FB3046BDE8F0815E
:1048A00049880129F9D1C0F8A422FFF77EFBF4E77B
:1048B0002DE9F0410A46044610780027097910F0E6
:1048C00060030AD0202B01D0402B50D1D4F8B40281
:1048D00011468368204698478FE0C0F341100128B5
:1048E00006D05078D0B301282AD003283FD107E062
:1048F000D4F8B402114683682046BDE8F041184759
:1049000094F89C02022802D0032872D10AE071B305
:1049100080296ED02046FFF7AFFE80212046FFF7AA
:10492000ABFE6AE0508838B931B1802904D0D08814
:1049300010B92046FFF7A0FE2046FFF736FB5CE0EB
:1049400094F89C020228E2D0032852D1508898BBE8
:104950004806F1D02046FFF708FDEDE7FFE794F8A1
:104960009C020026022803D0032842D112E040E036
:1049700009B180293DD1080601F07F0000EB8000DD
:1049800004EB800101D5143101E001F5AA71022286
:104990000E602AE0080601F00F0000EB800004EB37
:1049A00080000AD5806920B301F07F0000EB800011
:1049B00004EB800514350BE01FE0D0F85801C0B1BE
:1049C00001F07F0000EB800004EB800505F5AA757F
:1049D00041B1802906D02046FFF7B2FD10B1012079
:1049E000286000E02E60022229462046FFF7D0FA18
:1049F00003E011462046FFF7B5FA3846BDE8F081DE
:104A000070B5054608780C4610F0600003D02028E9
:104A100001D0402816D195F89C02012803D0022825
:104A200001D003280ED1207901280BD8D5F8B40283
:104A3000826828469047E188014306D12846FFF75F
:104A4000B4FA02E02846FFF78DFA002070BD7047E7
:104A500000487047D00A00202DE9F0470C78002666
:104A600030F8243048F68F121340CA78002A78D0E4
:104A7000012A7CD0022A02D0032A75D0012648F2EE
:104A80008002134320F824300D7830F8253048F6A2
:104A90008F7423402B43134320F825300D7B48F2BD
:104AA000C00948F6BF734CF2800A4BF68F77EDB31E
:104AB000CD7891F800C0022D30F82C507DD048F60A
:104AC0008F6805EA0805154320F82C50B0F85050BF
:104AD00091F800C0054405EB0C15B1F808C02CF0A6
:104AE000010CA5F800C4B0F8505091F800C005447E
:104AF00005EB0C15B1F80AC02CF0010CA5F808C4A0
:104B00004D78002D7ED00D7830F825C05FEA4C4CF2
:104B100007D530F825C00CEA040C4CEA0A0C20F842
:104B200025C091F800C030F82C5000E022E06D065E
:104B300006D530F82C50254045EA090520F82C50C0
:104B4000CC780D78012C30F8254004EA03047CD0A1
:104B500084F02003134320F82530C1E001E006E093
:104B600002E043F400738AE743F4C06387E743F449
:104B7000806384E74D784DB3B0F850500F7805440A
:104B800005EB0715CF8827F00107A5F800740F780B
:104B900030F827506D0606D530F82750254045EAF5
:104BA000090520F82750CC78012C07D00C7830F874
:104BB0002410194081F0200104E064E00C7830F802
:104BC00024101940114320F8241090E0B0F8503020
:104BD0000D78034403EB0513CD8825F00105A3F8F8
:104BE0000854B0F850300D78034403EB0513B3F8C4
:104BF0000C54C5F30905A3F80C540D6903F20C43DA
:104C00003E2D00E045E00BD94FEA551CED0601D1E1
:104C1000ACF1010C1D884FF4004848EA8C2C0BE0E5
:104C200035B34FEA550CED0701D00CF1010C1D888E
:104C30004FF6FF7808EA8C2C45EA0C051D800D78AC
:104C400030F825305B0408D500E046E030F8253028
:104C5000234043EA0A0320F82530097861B130F88F
:104C600021303B4083F40053134320F821303EE0D1
:104C70001D8845F40045E1E70188394081F4405141
:104C80001143018033E0254048F2801845EA0805C9
:104C90001AE791F800C030F82C506D0406D530F8B2
:104CA0002C50254045EA0A0520F82C5091F800C008
:104CB00030F82C506D0606D530F82C50254045EACA
:104CC000090520F82C500D7830F825403C4084F43C
:104CD0004054144320F8254070E7144320F8254041
:104CE0000B7830F823103940114320F82310304658
:104CF000BDE8F087002070472DE9F04391F80C8063
:104D00004F780A7848F6BF7C4BF68F7948F28003DB
:104D100048F2C0054CF2800648F68F74B8F1000FD7
:104D200028D0002F30F822704FEA474748D0002F94
:104D300005DA30F822702740374320F822700A78CD
:104D400030F822707F0605D530F8227027402F43B7
:104D500020F822700D7830F825202240324320F8C8
:104D600025200C7830F8242002EA0C021A4320F89F
:104D700024201AE07FB130F82260760605D530F89D
:104D8000226026402E4320F822600A7830F8221054
:104D900001EA0C010EE030F822506D0405D530F820
:104DA00022502540354320F822500A7830F822104E
:104DB00001EA0901194320F822100020BDE8F08320
:104DC000002F05DA30F822702740374320F8227090
:104DD0000A7830F82260760605D530F82260264041
:104DE0002E4320F822600E7830F8262022402A43F5
:104DF00020F826200C7830F8242002EA09021A4311
:104E000020F82420C1E700207047002070470121CE
:104E100020F8401F002101808180018208467047F0
:104E200030F8401F21F43F410180002070470020EE
:104E3000704730B50A7BB2BB4A7848F68F7548F2A6
:104E40008004C2B10B7830F82320520607D530F821
:104E500023202A4048F2C0052A4320F82320CA789C
:104E6000012A20D00A7830F8221048F6BF73194082
:104E700081F0200114E00A7830F822305B0407D575
:104E800030F822302B404CF280052B4320F82230A2
:104E90000A7830F822104BF68F73194081F4405194
:104EA000214320F82210002030BD10B54A7809783F
:104EB000002A48F2800330F8212005D048F6BF745C
:104EC000224082F0100204E04BF68F74224082F4FC
:104ED00080521A4320F82120002010BD2DE9F04710
:104EE0000D464B78097B04464FF0000948F68F7257
:104EF00048F2800A4FF400474FF6FF78012B09D0A3
:104F000000296FD0E87802286DD001286CD00120EC
:104F1000BDE8F087AE692869864200D9064691B19E
:104F2000E97802291ED0286A801B2862287834F884
:104F300020104906B4F85010214401EB001073D53D
:104F4000A0F80C6416E1B3B2EA882046696900F063
:104F500067FAB4F850002978204400EB0110A0F85B
:104F600004640DE1296A814277D9297834F8210057
:104F7000104048F28012104324F82100286A801B58
:104F80002862287834F820104906697871D511B163
:104F900001292AD030E0B4F85010214401EB001070
:104FA000B0F80C14C1F30901A0F80C1400F20C4085
:104FB0003E2E07D97109F20600D1491E028847EA40
:104FC000812107E04EB17108F20700D0491C028828
:104FD00008EA81210A4302800EE0018841F4004181
:104FE000018009E0F1E020E195E1B4F850201119C9
:104FF00001EB0010A0F80C646A89B3B2204669691D
:1050000000F00EFA6869304468612969286A8842AC
:1050100002D9801B286202E00646C5F82090687815
:1050200018B101282BD032E02FE0B4F850002978D5
:10503000204400EB0110B0F80414C1F30901A0F8FA
:10504000041400F204403E2E08D97109F20600D182
:10505000491E028847EA812108E0A1E056B17108A3
:10506000F20700D0491C028808EA81210A43028025
:105070000DE00EE0018841F40041018007E0B4F842
:1050800050002978204400EB0110A0F804642A891C
:1050900071E011B1012927D02DE0B4F8501021445E
:1050A00001EB0010B0F80414C1F30901A0F80414D6
:1050B00000F204403E2E07D97109F20600D1491EC4
:1050C000028847EA812107E04EB17108F20700D05B
:1050D000491C028808EA81210A4302800BE001880A
:1050E00041F40041018006E0B4F85010214401EB86
:1050F0000010A0F804642A89B3B22046696900F060
:105100008FF96869304468612969286A884202D940
:10511000801B286202E00646C5F82090687810B12E
:10512000012836D026E0B4F850002978204400EB5E
:105130000110B0F80C14C1F30901A0F80C1400F22E
:105140000C403E2E07D97109F20600D1491E028893
:1051500047EA812107E04EB17108F20700D0491CEF
:10516000028808EA81210A43028003E0018841F4B1
:10517000004101806A89B3B22046696900F050F9A4
:10518000297834F8210048F6BF72104080F03000D2
:105190000FE1B4F850100819297800EB0110CFE6A0
:1051A0002A7834F8220048F68F63184040EA0A0053
:1051B00024F82200B4F850002A78204400EB0210B2
:1051C0008BB2A0F804342A89D6E7A96928698142FC
:1051D00002D9091AA96102E00846C5F81890B4F886
:1051E00050102A78214401EB0211B1F80C24C2F3CB
:1051F0000902A1F80C2401F20C413E287DD9420994
:10520000C00600D1521E088847EA82220AE00888B8
:1052100040F4004007E04208C00700D0521C088854
:1052200008EA822210430880BBE033BBB4F8500088
:105230002978204400EB0110B0F80414C1F30901EF
:10524000A0F80414296900F204403E2907D94B094B
:10525000C90600D15B1E018847EA832307E041B1FC
:105260004B08C90700D05B1C018808EA8323194357
:1052700002E0018841F400410180687810B1012802
:1052800028D030E0B4F850002978204400EB011019
:10529000B0F80C14C1F30901A0F80C14296900F24C
:1052A0000C403E2907D94B09C90600D15B1E018875
:1052B00047EA832307E041B14B08C90700D05B1CD4
:1052C000018808EA8323194302E0018841F4004180
:1052D000018008E0B4F850100819297800EB01109B
:1052E000298AA0F80C14E869C0B3297834F82100A1
:1052F000430401D5430605D400E046E044F24003F0
:1053000018424ED134F82100104048F2C002104338
:1053100024F8210045E0A9692869814202D9091AC7
:10532000A96102E00846C5F8189013BBB4F8501004
:105330002A78214401EB0211B1F80424C2F30902D6
:10534000A1F8042401F204413E2808D94209C30609
:1053500000D1521E0B8847EA822208E021E078B192
:105360004208C30700D0521C0B8808EA822213436C
:105370000B80697800293FF42EAF012909D010E095
:105380000A8842F400420A80F3E700287FF443AF22
:105390003DE7B4F8502011192A7801EB0211A1F869
:1053A0000C04297834F821004BF68F72104080F4F9
:1053B000405040EA0A0024F821000020A8E500211E
:1053C000A0F844104FF43F41A0F84010002070476F
:1053D0000148FDF7F7B80000E40A0020B0F84400E7
:1053E0007047000010B500EB42005C0800F58060DB
:1053F00009D000BF30F8042B01F8012B120A01F884
:10540000012B641EF6D1DA0701D00088087010BDA8
:105410000020704711B98021A0F84C10002070477F
:1054200010B55B1C00EB42005B0800F5806009D002
:1054300011F8012B11F8014B42EA042220F8042B49
:105440005B1EF5D110BDFEE7490050EAC12018BF30
:1054500004204A0D18BF40F0010040F2FF72B2EB89
:10546000515F08BF40F00200012808BF05207047C7
:105470000907090E002804DB00F1E02080F8001481
:10548000704700F00F0000F1E02080F8141D704715
:1054900030380A2801D201207047002070470000F0
:1054A00008B5FCF7D5FCFEF736FCFDF7C9FFFEF7A3
:1054B00051F8FDF7FDFFFEF731F8FEF700F9FDF7B3
:1054C00097FFFCF7A9FB0C4D0C4C00BFFCF790FBC1
:1054D0002868002100900AA308220846FEF73DF93B
:1054E00094F90000009009A3082210210020FEF783
:1054F00034F9FEF7E9F9E9E7200000201C0000205C
:10550000436F756E743A20252D35640044656772CB
:1055100065653A20252D35640000000010B500298E
:105520000AD00878002807D005487844FAF72EFFFB
:10553000002801D0002010BD0248784410BD0000B2
:10554000C2090000BA09000010B500290AD0087885
:10555000002807D005487844FAF718FF002801D042
:10556000002010BD0248784410BD0000B2090000C0
:10557000AA090000FBF777BBFBF7ACBC01020203F2
:105580000405060708090A0B0C0D0E0F1010000089
:1055900000000000000001020304060708090000E3
:1055A00000000102030400000000000000000000F1
:1055B000000000000000000000F8000000000000F3
:1055C00000333000000000160E00160E0000000030
:1055D00000000000000040C07840C0784000043F58
:1055E00004043F040400007088FC08300000001828
:1055F00020FF211E0000F008F000E018000000214C
:105600001C031E211E0000F00888700000001E21EF
:10561000232419272110000000160E0000000000AE
:10562000000000000000000000E01804020000007C
:1056300000071820400000020418E00000000040AD
:10564000201807000000404080F080404000020227
:10565000010F01020200000000F000000000010143
:10566000011F01010100000000000000000000B067
:1056700070000000000000000000000000000001B9
:1056800001010101010100000000000000000030E4
:10569000300000000000000000008060180400607E
:1056A00018060100000000E010080810E000000FDC
:1056B000102020100F00001010F800000000002043
:1056C000203F20200000007008080888700000308B
:1056D0002824222130000030088888483000001833
:1056E000202020110E000000C02010F8000000074C
:1056F0000424243F240000F80888880808000019C2
:10570000212020110E0000E0108888180000000FF2
:10571000112020110E0000380808C83808000000C9
:10572000003F000000000070880808887000001C1E
:10573000222121221C0000E010080810E0000000D7
:10574000312222110F00000000C0C0000000000044
:10575000003030000000000000C0C0000000000069
:1057600080B07000000000008040201008000001A0
:105770000204081020004040404040404000040423
:1057800004040404040000081020408000000020ED
:10579000100804020100007048080808F00000002A
:1057A000003036010000C030C828E810E0000718BB
:1057B000272423140B000000C038E0000000203C28
:1057C00023020227382008F8888888700000203FCC
:1057D000202020110E00C0300808080838000718E3
:1057E00020202010080008F808080810E000203FDA
:1057F000202020100F0008F88888E8081000203FBB
:1058000020202320180008F88888E8081000203F8E
:10581000200003000000C030080808380000071806
:105820002020221E020008F808000008F808203F87
:10583000210101213F20000808F80808000000208D
:10584000203F2020000000000808F8080800C08061
:1058500080807F00000008F888C028180800203FDA
:1058600020012638200008F8080000000000203F32
:1058700020202020300008F8F800F8F80800203F29
:10588000003F003F200008F830C00008F808203F23
:10589000200007183F00E01008080810E0000F1073
:1058A000202020100F0008F808080808F000203F0A
:1058B000210101010000E01008080810E0000F18A5
:1058C000242438504F0008F8888888887000203FCA
:1058D0002000030C302000708808080838000038C9
:1058E000202121221C00180808F8080818000000D0
:1058F000203F2000000008F808000008F808001FFA
:10590000202020201F000878880000C838080000E8
:1059100007380E010000F80800F80008F800033C02
:105920000700073C030008186880806818082030CA
:105930002C03032C30200838C800C83808000000A9
:10594000203F2000000010080808C8380800203850
:10595000262120201800000000FE020202000000A4
:10596000007F40404000000C30C0000000000000FC
:1059700000010638C00000020202FE0000000040E4
:1059800040407F00000000201008040810200000A4
:105990000000000000000000000000000000808007
:1059A00080808080808000020408000000000000E9
:1059B00000000000000000008080808000000019CE
:1059C000242222223F2008F8008080000000003FAF
:1059D000112020110E000000008080800000000EC9
:1059E000112020201100000000808088F800000EA7
:1059F000112020103F200000808080800000001FC8
:105A0000222222221300008080F08888881800203B
:105A1000203F202000000000808080808000006BFC
:105A200094949493600008F8008080800000203FE8
:105A3000210000203F2000809898000000000020F6
:105A4000203F20200000000000809898000000C047
:105A50008080807F000008F8000080808000203F68
:105A600024022D302000000808F80000000000206B
:105A7000203F202000008080808080808000203FA8
:105A800020003F20003F0080800080800000002038
:105A90003F2100203F200000808080800000001F08
:105AA000202020201F00808000808000000080FFD8
:105AB000A12020110E000000008080808000000ED8
:105AC000112020A0FF808080800080808000202026
:105AD0003F21200001000000808080808000003392
