:020000040800F2
:1000000000280020CD0200089B3F00083B3D00086F
:10001000753F000821210008DD4B000800000000AA
:100020000000000000000000000000003502000891
:100030005B21000800000000790200080147000869
:10004000E7020008E7020008E7020008E7020008EC
:10005000E7020008E7020008E7020008E7020008DC
:10006000E7020008E7020008E7020008252100086F
:10007000E7020008E7020008E7020008E7020008BC
:10008000E7020008E70200084D1D0008E70200082B
:10009000E7020008E7020008E7020008E70200089C
:1000A000E7020008E7020008E7020008E70200088C
:1000B000A9470008E7020008B5470008E702000862
:1000C000E7020008E7020008E7020008E70200086C
:1000D000E7020008BD4B0008E7020008E70200083D
:1000E000E7020008E7020008E702000800F002F853
:1000F00000F090F80AA090E8000C82448344AAF132
:100100000107DA4501D100F085F8AFF2090EBAE82F
:100110000F0013F0010F18BFFB1A43F0010318473B
:10012000E871000008720000103A24BF78C878C156
:10013000FAD8520724BF30C830C144BF04680C60ED
:10014000704700000023002400250026103A28BF35
:1001500078C1FBD8520728BF30C148BF0B60704739
:100160006E2900F03783702900F08F84662906F02D
:100170006D83652906F06A83672906F06783612924
:1001800006F0668303681B0A28BF41F080016929D5
:1001900000F0E482642900F0E182752900F0DE823B
:1001A0006F2900F01C84782900F05B84E92900F0B5
:1001B000B783E42900F0B483F52900F0B183EF2977
:1001C00000F01984F82900F05A840368DB0928BF7D
:1001D00041F08001632900F03883732900F03D83EA
:1001E000E32901F0C580F32901F0CA80002070479F
:1001F0001FB501F01BF904000020002106F010FBE0
:10020000401C60600020002106F0F4FAE0601FBD91
:1002100010B510BD01F0DCF81146FFF7E9FF04F05E
:100220001AFD01F0B9F903B4FFF7F2FF03BC01F0C6
:10023000BDF90000224B19680868B0E8F00F80F3A0
:100240000988BFF36F8F4FF0000080F311884EF0E4
:100250000D0E70470000000006480068006880F33B
:10026000088862B661B6BFF34F8FBFF36F8F00DFB0
:1002700000BF00BF08ED00E0EFF30980BFF36F8F10
:100280000F4B1A6820E9F00F106008B54FF05000CE
:1002900080F31188BFF34F8FBFF36F8F05F062FCBF
:1002A0004FF0000080F31188BDE808401968086825
:1002B000B0E8F00F80F30988BFF36F8F704700BF7D
:1002C00020000020EFF305807047000009488047B8
:1002D00009480047FEE7FEE7FEE7FEE7FEE7FEE728
:1002E000FEE7FEE7FEE7FEE704480549054A064B40
:1002F00070470000A5470008ED000008002200201C
:100300000028002000240020002400201CB50C46FA
:10031000064B7B4469460090204600F074FA044680
:100320000020694600F082FA20461CBD1705000037
:100330000FB41CB5084B06AA7B446946009005988B
:1003400000F061FA04460020694600F06FFA20468A
:100350001CBC5DF814FB0000F104000070B50C46F5
:100360000546012A05D02878800600D5EA690023D1
:1003700002E0012305E05B1C934202D2E05C00280E
:10038000F9D1A869E618C01AA861286A1844286239
:10039000284600F0AAF904E0D5E9012114F8010B80
:1003A0009047B442F8D3284600F0B5F970BD00007C
:1003B0002DE9F05F894604464FF0000ADFF874B17A
:1003C000FB44C0F820A02046E1688847002874D08C
:1003D000252806D0D4E901219047206A401C2062DC
:1003E000F1E700265F462046E16888472028054659
:1003F00007DB312D05D2781910F8200C08B106431F
:10040000F1E7B00701D526F00406C4F81CA00027C8
:10041000C4F818A02A2D09D0284604F015FC38B3DA
:1004200004EB8708303DC8F8185019E059F8041B50
:10043000204604EB87029161E1688847012F054659
:1004400018D1E069002820DA26F020061DE0D8F84F
:10045000180000EB800005EB40003038C8F81800A9
:100460002046E1688847054604F0EEFB0028EED1FF
:10047000012F0AD02E2D08D12046E16888477F1C25
:100480000546022F46F02006C4DBA069002803DAE7
:10049000404246F00106A061F00701D026F01006A8
:1004A0006C2D0BD0682D09D04C2D39D06A2D35D04C
:1004B000742D35D07A2D33D016E038E0E1682F4620
:1004C00020468847B842054609D16C2F26D04FF404
:1004D0008060E168064320468847054604E06C2FAB
:1004E0001AD04FF4807006430DB3A5F141001928CE
:1004F00002D8203546F400664A4629462046266042
:100500004E46FFF72DFE80B101280BD0F61D26F0D8
:10051000070000F1080956E74020E4E78020D8E70B
:100520000020D6E706F104094DE7284652E7206A85
:10053000BDE8F09F606D0000032A40F2308010F0AB
:10054000030C00F0158011F8013BBCF1020F62446E
:1005500098BF11F801CB00F8013B38BF11F8013BFF
:10056000A2F1040298BF00F801CB38BF00F8013BAC
:1005700011F0030300F09482083AC0F0088051F8AB
:10058000043B083A51F804CBA0E80810F5E7121D27
:100590005CBF51F8043B40F8043BAFF30080D20746
:1005A00024BF11F8013B11F801CB48BF11F8012B12
:1005B00024BF00F8013B00F801CB48BF00F8012B35
:1005C000704702F0FF0343EA032242EA024200F0CE
:1005D00002B84FF000020429C0F0128010F0030CA2
:1005E00000F01B80CCF1040CBCF1020F18BF00F826
:1005F000012BA8BF20F8022BA1EB0C0100F00DB8D5
:100600005FEAC17C24BF00F8012B00F8012B48BF32
:1006100000F8012B70474FF0000200B513469446D6
:100620009646203922BFA0E80C50A0E80C50B1F14A
:100630002001BFF4F7AF090728BFA0E80C5048BF5E
:100640000CC05DF804EB890028BF40F8042B08BFFC
:10065000704748BF20F8022B11F0804F18BF00F8F8
:10066000012B70474FF0013C50F8042B51F8043B2C
:100670009A4221D1A2EB0C03934313EACC1317D176
:1006800050F8042B51F8043B9A4215D1A2EB0C030D
:10069000934313EACC130BD150F8042B51F8043BCD
:1006A0009A4209D1A2EB0C03934313EACC13DBD09B
:1006B0004FF00000704700BFD01A01BAB1FA81F1C3
:1006C00001F0180122FA01F0CB40C1F12001DBB2A8
:1006D000C0B2C01A2CFA01F3D11A914311EAC31126
:1006E000E6D1704770477047704770B5044685691A
:1006F0000068C10601D5302600E02026C00707D0DB
:1007000070BDD4E9012130469047206A401C206228
:100710006D1EF6D570BD70B5044685690078C007BA
:1007200007D170BDD4E9012120209047206A401CE8
:1007300020626D1EF6D570BD09684A0501D540B22C
:100740007047C905FCD500B2704709684A0501D554
:10075000C0B27047C905FCD580B270472DE9F041A1
:100760000646002410687529314616A510D0FFF7FB
:10077000E3FF002802DA404213A507E031688A0748
:1007800001D512A502E0490704D511A5012401E015
:10079000FFF7DBFF00210A2206F1240709E0B0FB86
:1007A000F2FCB0FBF2F302FB1C0030307854184628
:1007B000491C0028F3D123462A463046BDE8F041C3
:1007C00000F0E5B9000000002D0000002B00000043
:1007D0002000000011680268006A530501D5087006
:1007E0000AE0D30501D5088006E0130603D5C21739
:1007F000C1E9000200E008600120704701694A1C5D
:1008000002610878704700B58FB0CDE90131002151
:10081000059105497944CDE9031011466846FFF773
:10082000C7FD0FB000BD0000E5FFFFFF0A6802F83A
:10083000010B0A60704710B5436913B1AFF3008034
:1008400001E0FFF78BFD012010BD127800F12401BB
:100850000A7000224A700122EDE711684FF0FF3262
:10086000E9E700002DE9FF5F15468A460446DFF8F8
:10087000AC80F8440027D8E900103E46CDE90010CE
:1008800010E03AF816106A4602A800F07DFD411CFF
:1008900007D02178890603D5E269391891420DD82D
:1008A0000744761C2078800602D5E069B84205DD51
:1008B000AE42E6DB3AF816000028E2D1A069C01B80
:1008C000A0612046FFF711FFD8E90010CDE9001024
:1008D000002017E03AF818106A4602A800F054FD0C
:1008E000B0F1FF3F81460BD000250DF1080B05E06C
:1008F000D4E901211BF8050090476D1C4D45F7D345
:1009000008F10100B0428046E4DB206A38442062EE
:100910002046FFF700FFBDE8FF9F0000C26800000F
:100920002DE9F0418046D21D22F007020025D2E9D0
:100930000002F52915A614D0011E72F1000106DA95
:100940000023D0EB030063EB020211A608E0D8F805
:1009500000108B0701D50FA602E0490701D50EA6AE
:1009600001251146002408F1240704E000F0CAF82C
:1009700030323A55641C50EA0102F7D12B46324618
:1009800021464046BDE8F04100F001B900000000FA
:100990002D0000002B0000002000000030B40021DA
:1009A00000F1240408E002F00705D208303542EADD
:1009B0004372DB086554491C52EA0305F3D104680D
:1009C000002310A2250707D5A40600D421B1C469CD
:1009D00001230DA2641EC46130BC00F0D8B810B56C
:1009E000044621461068FFF7B0FE02462046BDE8E7
:1009F00010400023D2E7D21D22F00701D1E90023E5
:100A0000CCE700000000000030000000F0B40D460C
:100A10000188090502D5214C7C4402E01F4C7C442E
:100A20000E34002100F1240608E002F00F0712093D
:100A3000E75D42EA03721B097754491C52EA030737
:100A4000F3D102780023120704D5702D06D009B126
:100A5000022311342246F0BC00F099B8012310346F
:100A6000F8E770B504460D4621461068FFF76DFEA5
:100A7000024629462046BDE870400023C6E7D21D45
:100A800022F00703D3E90023C0E70368126843F0AC
:100A9000200303600823C3610023B7E72467000035
:100AA00010B5203AC0F00B80B1E81850203AA0E809
:100AB0001850B1E81850A0E81850BFF4F5AF5FEA3D
:100AC000027C24BFB1E81850A0E8185044BF18C9F0
:100AD00018C0BDE810405FEA827C24BF51F8043B97
:100AE00040F8043B08BF7047D20728BF31F8023BEB
:100AF00048BF11F8012B28BF20F8023B48BF00F87F
:100B0000012B704730B5B0F10A024FEA900E71F137
:100B100000034EEA817EB0EB0E0061EB91014FEADB
:100B2000101E4EEA017E10EB0E0041EB11114FEA50
:100B3000102E4EEA016E10EB0E0041EB11214FEA30
:100B4000104E4EEA014E10EB0E0041EB11414018E1
:100B500041F100014FEAD00040EA41704FEAD10173
:100B600010EB80054FEA810444EA907444EB0104E1
:100B70006D1944EB0404521BA3414FF0000348BF1E
:100B80000A3200D530BD401C41F1000130BD2DE9D5
:100B9000F0470D4699469246044600F12408016844
:100BA000880604D5E06921F01001216000E00120F1
:100BB000A84201DD471B00E00027A1697A1902EB7A
:100BC0000900081AA0612078C00602D42046FFF769
:100BD0008CFD002608E0D4E901211AF806009047B0
:100BE000206A401C761C20624E45F4DB2078C0064B
:100BF0000AD52046FFF779FD06E0D4E9012130202F
:100C00009047206A401C2062381EA7F10107F4DCDF
:100C100007E0D4E9012118F805009047206A401C3C
:100C20002062281EA5F10105F3DC2046FFF773FDC5
:100C30002078000602D50220BDE8F0870120FBE7FE
:100C400070472DE9FF4F0C461E464FF0FF378BB023
:100C5000D2E90001DDF860800A908A46C1F30A55A6
:100C600005B93D46002108464FF00000BAF1000FDB
:100C700000F4400005DA00EB80004FF4400101EA87
:100C800050004FEA9059B9F1010F00DDB9460A98BA
:100C900050EA4A000ED044F61050A5F2FF35454305
:100CA0002F14B8F1000F1ED07542291E1EDDC9F1A8
:100CB00000021CE0B8F1010F4FF0000001D030211C
:100CC00003E0F24305E02154401CB042FBDB304618
:100CD0000022002121540B99C1F80880C1E90020AD
:100CE0000FB0BDE8F08FBD1B6D1CDEE74A4600DA91
:100CF000694206A800F0DEFB06AB93E8070003ABF1
:100D000083E8070050460A9900F057FC8DE8070079
:100D1000A0F500501F3800900398002D0ADD42F224
:100D20001F014A460844002303A90390684600F0C7
:100D3000C0FE09E0A0F500504A461F38002303A971
:100D40000390684600F0CAFE8DE807000004000C1E
:100D500003D04FF0FF30410800E01046B8F1000F1B
:100D600003D00022009215461EE0751E05D4FFF741
:100D7000C9FE303262556D1EF9D5B34601220843D3
:100D800002D000227F1C04E02078302801D100220C
:100D90007F1E002A099784D01DE0112D07DAFFF786
:100DA000B1FE303262556D1C50EA0102F5D10843A4
:100DB00002D00098C8B10EE00021681E05E0235C57
:100DC000625C63542254401E491C8142F7DBAB46EF
:100DD000A81B401E0990002004F80B000B98099AEC
:100DE000C0F80880C0E9002B7AE711264FF0000810
:100DF00057E72DE9F04F88460446D21D22F007013F
:100E000091B0D1E90001CDE90A0103F0F9FE0246F3
:100E10000B98C00F01D02D2007E02068810701D575
:100E20002B2002E0202101EAC000032A099001D012
:100E3000072A05DB03464146204600F0FBFA0BE19A
:100E40002078800601D5E06900E00620B8F1650F42
:100E5000814606D0B8F1660F18D0B8F1670F70D18F
:100E600031E00020B9F1110F009001DB112301E006
:100E700009F101030AAA01A90CA8FFF7E2FEDDE9C6
:100E80000C70002609F10105834647E001204B461E
:100E900000904FF000470AAA01A90CA8FFF7D1FE65
:100EA000DDE90DB00C995D46002610B909F101008D
:100EB0000D18B9EB050003D4C0F1FF3609F10105A7
:100EC000A5EB09002BE0B9F1010F01DA4FF00109A0
:100ED0000020B9F1110F0090484601DD112300E018
:100EE00003460AAA01A90CA8FFF7ABFEDDE90C70C6
:100EF0004D4600268346207800070AD4AB4500DA29
:100F00005D4601A8012D04DD411911F8011C3029AD
:100F100007D04F4502DA17F1040F04DA01208246A8
:100F20000FE06D1EEEE7002F02DCED1B3E4403E0F8
:100F3000781CA84200DD7D1CB81B00F1010A4FF0AF
:100F400000472078000703D4AA4501DB4FF0FF3AA1
:100F50000021B7F1004F0DF143088DF8431024D064
:100F600002202B23002F01DA7F422D230A21021EAB
:100F7000A0F1010000DC5FB197FBF1FC97FBF1F2FF
:100F800001FB1C7C17460CF1300C08F801CDEEE794
:100F9000A8F1010003702188090501D5452100E071
:100FA0006521A0F1010800F8011C09980FA9A1EB27
:100FB0000807FF1D00B10120411901EBEA70A1698A
:100FC0003844081A401EA0612078C00602D420468A
:100FD000FFF78BFB099828B1D4E901219047206ADB
:100FE000401C20622078C00622D52046FFF77DFBFA
:100FF0001EE0002E04DBB34502DD01A8805D00E0A9
:101000003020D4E901219047206A401C2062761CE0
:10101000AAF101005FEA000A0AD100F007FAC068ED
:101020000168405CD4E901219047206A401C20629D
:10103000281EA5F10105DCDC07E0D4E9012118F840
:10104000010B9047206A401C2062381EA7F101075F
:10105000F3DC2046FFF75FFB032011B041E6000000
:101060002DE9F04F04460D46D21D22F0070089B04D
:10107000D0E900974846394603F0C2FD0246F80F12
:1010800001D02D2307E02068810701D52B2302E042
:10109000202101EAC0038DF820300BB1012000E0CF
:1010A0000020032A824601D0072A04DB2946204675
:1010B00000F0C0F93FE12078800601D40D2500E062
:1010C000E569C7F30A560D2D49DA00214FEA175B8F
:1010D00008464FF00000002F00F4400007DA00EB54
:1010E00080004FF4400100EBD07001EA60008115F0
:1010F000012901DD4FF0FF3100224FEA850CBCF1E0
:10110000180F06D31346ACF118004FF08052C240BE
:1011100003E04FF4801323FA0CF30CF10C0CBCF138
:10112000200F04D3ACF1200C09FA0CF001E007FA0F
:101130000CF000294FF0004801DD18B90FE00ED186
:1011400040450CD319EB02095F4121B9404502D15A
:101150009F4329EA0209BBEB175F00D0761C208869
:10116000000502D57B48784402E07A487844193873
:1011700008AA302302F80A30037C0AF10101002E8C
:101180000AF1020A53546A4602DC4FF0300101E0D2
:101190004FF031014FF001088DF8001002D0A6F297
:1011A000FF3603E059EA470100D06B4E002D02DC08
:1011B0002178090704D54FF002082E218DF801107F
:1011C000C44600210BE0C7F303433F01C35C491C45
:1011D0006D1E02F80830052908F1010801DA002D1A
:1011E000F1DC00210CE000EB1973491C1B786D1E2B
:1011F000082902F808304FEA091908F1010801DA54
:10120000002DF0DC21688B0602D516E0A8F101085C
:10121000E04505DD02EB080313F8013C302BF5D067
:10122000B8F1000F09DD02EB080313F8013C2E2B87
:1012300003D1090701D4A8F10108002D05DD3E21E5
:1012400002F808106D1E08F10108407C002E02F81B
:10125000080008F1010804DA2D20764202F808009F
:1012600002E02B2002F808000A214FF47A7086422F
:1012700008F101080BDB96FBF0F3303302F808307D
:1012800096FBF0F308F1010800FB136601E0642E01
:101290000CDB642096FBF0F3303302F8083096FB49
:1012A000F0F308F1010800FB136601E00A2E06DBEB
:1012B00096FBF1F0303002F8080008F1010896FBC7
:1012C000F1F001FB1060303002F80800A16908F16C
:1012D000010808EB050202EB0A00081AA061207859
:1012E000C00602D42046FFF700FA216A08AE01EBDF
:1012F0000A00206204E0D4E9012116F8010B9047AE
:10130000BAF1010AF7D22078C00602D52046FFF7CD
:10131000ECF96E4609E016F8010B3E280FD0D4E92F
:1013200001219047206A401C2062B8F10108F2D2E6
:101330002046FFF7F0F909B00320BDE8F08F206ADE
:101340002844206203E0D4E90121302090476D1E3B
:10135000EBD3F8E71160000002FCFFFF10B5436912
:1013600013B1AFF3008001E0FFF77CFA012010BD5C
:10137000128800F1240182840022C2840122EDE758
:1013800011684FF0FF32E9E770B516460C46054686
:1013900000F044F8036893F80101012806D0FF2CFF
:1013A0000FD8185D68B101202C7070BDD3F807010B
:1013B0003246214603F2071303442846BDE8704035
:1013C00018474FF0FF3070BD00487047A021002043
:1013D0007546FFF7F9FFAE4605006946534620F013
:1013E0000700854618B020B5FEF77EFFBDE8204017
:1013F0004FF000064FF000074FF000084FF0000BD1
:1014000021F00701AC46ACE8C009ACE8C009ACE883
:10141000C009ACE8C0098D467047000010B500F067
:1014200005F8001D10BD00BFF953000000487047CB
:10143000C02100202DE9F0411F4604460326016823
:10144000072A01F4006004DB08B116A505E016A523
:1014500003E008B115A500E015A521F010002060FB
:10146000A069C01EA0610FB1401EA0612046FFF719
:101470003CF94FB1D4E9012138469047206A401C1D
:101480002062C01C206206E0206AFAE7D4E901214C
:1014900015F8010B9047761EF8D22046FFF73BF96E
:1014A000BDE8F0814E414E006E616E00494E46002F
:1014B000696E66002DE9F047814616468AB03548C8
:1014C00078440DC88DE80D0032487844801C03AC88
:1014D0000DC884E80D0041F69B300844372190FB8D
:1014E000F1F290FBF1F5A5F1800501FB12041B3C24
:1014F00002D56442012000E00020DFF898A0804679
:101500000027FA44AAF1BE0A0EE0E0070AD03246EC
:10151000684607EB470101230AEB810100F0DEFA80
:101520008DE8070064107F1C002CEED1194F7F441A
:10153000AE3F19E0E80715D007EB04100DF1180ACB
:1015400090E80E008AE80E00C068F04201D19819B8
:1015500008903246012306A903A800F0BFFA03ABA6
:1015600083E807006D10641C002DE3D14FF00103E8
:1015700032466946B8F1000F03A802D000F099FA8C
:1015800001E000F0ABFAC9E90001C9F808200AB08F
:10159000BDE8F087485D000010B50446AFF3008059
:1015A0002046BDE81040FEF73EBE0000014918206D
:1015B000ABBEFEE72600020070475FEA400C08BFA2
:1015C00091F0000F4FEA8C234FEAC12243EA5151B8
:1015D0004FEA1C5018BF00F5F0404FEA300018BF2A
:1015E00041F000415FEA6C5C00F02980BCF1FF3FF4
:1015F00008BF40F080407047130C06BF12044FF044
:10160000100C4FF0000C130E04BF12020CF1080C6A
:10161000130F04BF12010CF1040C930F04BF9200CE
:101620000CF1020CD30F04BF52000CF1010C114657
:101630004FF00002A0F11F00A0EB0C00704711F06A
:10164000004F08BF704731F000413FF4D5AF0B0C9D
:1016500006BF09044FF0100C4FF0000C0B0E04BF36
:1016600009020CF1080C0B0F04BF09010CF1040C6A
:101670008B0F04BF89000CF1020CCB0F04BF490093
:101680000CF1010CCCF12003A0EB0C0022FA03F3C7
:1016900002FA0CF241EA030100F10100704720F068
:1016A0007F4C80EA030023F07F47ACEB070303F590
:1016B0007C5300F0004003F1FF032DE980494FEA1D
:1016C000154B09B44FEA144325EA0B4E24EA0348AC
:1016D0000FF2042606EB132749083E785FEA320230
:1016E00003FB0667C7F5000707FB06F64FEA54370A
:1016F0004FEAD64606F1020607FB066CCCF1005C09
:101700004FEA1C472CEA074C07FB06F40CFB06F5D6
:1017100004EB15464FEA961634BF00204FF0004008
:101720004FEAD13706FB07FC4FEA1C4C0CFB0BF7CA
:10173000D21B03FB0CF761EB07010CFB0EF7B0EBC0
:10174000074072EB17420CFB08F734BFA2EB0742CD
:10175000B2EB074261EB17414FEA0C444FEA9107A5
:1017600006FB07FC4FEA1C4C0CFB0BF7B0EBC74029
:1017700072EB573203FB0CF734BFA2EBC742B2EB5C
:10178000C74261EB57310CFB0EF7B0EBC70072EBB1
:1017900057720CFB08F734BFA2EBC702B2EBC702CB
:1017A00061EB5771039F4FEA816141EA921104EBAB
:1017B000CC044FEAD1374FEA826206FB07FC42EACB
:1017C00090124FEA80604FEA1C4C0CFB0BF7D21BC7
:1017D00003FB0CF761EB07010CFB0EF7B0EB0740C6
:1017E00072EB17420CFB08F734BFA2EB0742B2EBD7
:1017F000074261EB17414FEA8C554FEA910704EB22
:101800009C2406FB07FC4FEA1C4C0CFB0BF7B0EBCF
:10181000C74072EB573203FB0CF734BFA2EBC74251
:10182000B2EBC74261EB57310CFB0EF7B0EBC700D0
:1018300072EB57720CFB08F734BFA2EBC702B2EB96
:10184000C70261EB577115EB4C254FEA816141EA04
:1018500092114FEA82624FEAD13742EA901206FBB8
:1018600007FC44F100044FEA80604FEA1C4C0CFB7B
:101870000BF7D21B03FB0CF761EB07010CFB0EF718
:10188000B0EB074072EB17420CFB08F734BFA2EB3A
:101890000742B2EB074261EB174115EB1C154FEA0B
:1018A000813141EA92414FEA823242EA90424FEA64
:1018B00080304FEA0C7644F1000448EA03434EEAD4
:1018C0000B484FF0000EB2EB080C71EB030724BF7E
:1018D000624639464EEB0E0E4FF0000B0018524197
:1018E00049414BEB0B0BB2EB080C71EB03077BF19F
:1018F000000B24BF624639464EEB0E0E4FF0000B34
:101900000018524149414BEB0B0BB2EB080C71EB49
:1019100003077BF1000B24BF624639464EEB0E0EE7
:1019200051EA020718BF46F0010616EB0E7655F194
:10193000000254F1000103D5BDE88901BDE800882B
:10194000BDE88901BDE80048B619524141EB0101EB
:10195000A3F10103704780807F7E7D7C7B7A79785C
:10196000777676757473727171706F6E6E6D6C6C64
:101970006B6A6A6968686766666564646363626106
:101980006160605F5F5E5E5D5D5C5C5B5B5A5A5987
:1019900059585857575656555555545453535252F3
:1019A0005251515050504F4F4F4E4E4D4D4D4C4C4B
:1019B0004C4B4B4B4A4A4A49494948484847474794
:1019C00047464646454545444444444343434342D1
:1019D000424242414141002B9C4630D477002BD0FB
:1019E0001CB54FEA370703B44FF010004FF0100159
:1019F000BAF1000F06D0BCF1000FDCBF40F00800C8
:101A000040F008014FF000000FBCBDE810400BF1A2
:101A1000010BBBF1010F08BF5FEA170722BF12F1EC
:101A2000010211F101014FF0004143F1000300F008
:101A3000004043EA00007047F9D35708D0E746EA70
:101A4000064613F1400F4FEA16461FDD13F1200F33
:101A5000DFBF16430A46002120335B42BED0C3F1EC
:101A6000200746EA064602FA07F74FEA164646EA14
:101A70000706C3F1200722FA03F201FA07F721FA59
:101A800003F14FF0000342EA0702A7E746EA020625
:101A900046EA06464FEA164646EA0106BCBF46EA53
:101AA0000646360C4FF000034FF000024FF00001E5
:101AB00094E72DE9804C9A46934670B491E838003B
:101AC00007C831EA400C48BF34EA430C03D5FFF79E
:101AD000E6FDFFF780FFF0BCBDE8008C2DE9804CEF
:101AE0009A46934670B491E8380007C810F0804FCA
:101AF00008BF13F0804F03D100F005F8FFF76BFF2C
:101B0000F0BCBDE8008C20F07F4780EA030023F0A2
:101B10007F4C07EB0C03A3F57C5300F00040A3F1CE
:101B2000FE0392F0000F00F0B38095F0000F00F07C
:101B300077802DE901494FEA11404FEA144621EA26
:101B4000004800FB06FC24EA064708FB06F607FBF4
:101B500008F800FB07F718EB06484CEB164C4FEA69
:101B6000124B18EB07484FEA15464CEB174022EA98
:101B70000B4E0BFB06FC25EA06470EFB06F607FBA1
:101B80000EFE0BFB07F71EEB064E4CEB164C4FF010
:101B900000061EEB074E4CEB174B18EB0B0840F101
:101BA000000018EB0E0B58EB000840F100008F1AF4
:101BB0004FF000013CBFC943661B14BFB5EB040CDA
:101BC00000213CBFC943F61B4FEA17444EEA8E0E74
:101BD00027EA04454FEA1C4704FB07622CEA074C3E
:101BE00005FB07F70CFB05F604FB0CFC16EB0746A0
:101BF00042EB174216EB0C4642EB1C421BEB06066F
:101C000058EB0202414146EA9E0601D5BDE8018932
:101C1000B619524141EB0101A3F10103BDE801896D
:101C20004FEA14454FEA114724EA054621EA074CDA
:101C300005FB07F406FB07F70CFB06F105FB0CFCA4
:101C400011EB074144EB17444FEA124711EB0C41EB
:101C500044EB1C4422EA074C05FB07F206FB07F79E
:101C60000CFB06F605FB0CFC16EB074642EB174295
:101C700016EB0C4642EB1C456A1854F1000148BFB4
:101C80007047B619524141EB0101A3F101037047BE
:101C900095F0000F37D04FEA11424FEA144721EA7E
:101CA000024624EA074C02FB07F106FB07F70CFB90
:101CB00006F402FB0CFC14EB074441EB17414FEA1E
:101CC000154714EB0C4441EB1C4125EA074C02FB81
:101CD00007F506FB07F70CFB06F602FB0CFC16EB00
:101CE000074645EB174516EB0C4645EB1C4212190F
:101CF00051F1000148BF7047B619524141EB010153
:101D0000A3F1010370474FEA14454FEA114724EA53
:101D1000054621EA074C05FB07F106FB07F70CFB1C
:101D200006F24FF0000605FB0CFC12EB074241EBFC
:101D3000174112EB0C4251EB1C4148BF70479218FF
:101D400041EB0101A3F1010370470000014800F0DD
:101D50006FBB00002001002070B504460068816858
:101D6000C943C90717D1816821F00101816000F0E2
:101D7000ABFF05460AE000BF00F0A6FF401B0228AB
:101D800004D920688068C043C00706D020688068F6
:101D9000C043C007F0D0002070BDA06A40F0100022
:101DA000A062E06A40F00100E062012070BD10B561
:101DB0000146406A826A12F0500F05D0006A026B39
:101DC000BDE8104008461047816A41F40071816205
:101DD00001688968C1F3424107290CD1017B51B9DF
:101DE000816A21F480718162816AC90403D4816AA5
:101DF00041F00101816200F0F1FA10BD10B5406AB6
:101E0000816A41F040018162C16A41F00401C1620E
:101E100000F00DFB10BD10B5406A00F007FB10BDCF
:101E2000F8B500260446009600688168C943C907D2
:101E30002DD0816841F00101816016481649006883
:101E4000B0FBF1F000E0401E00900028FBD100F054
:101E50003BFF054616E000BF00F036FF401B02289E
:101E600010D920688068C043C0070BD0A06A40F03A
:101E70001000A062E06A40F00100E06284F8246093
:101E80000120F8BD20688068C043C007E4D100206D
:101E9000F8BD00001C00002040420F002DE9F04179
:101EA000B4B00F468046C82101A8FEF7B4FB2F4C02
:101EB0000025A5602EA14046FEF7D4FB012670B197
:101EC0002FA14046FEF7CEFB80B1032F24D0042F74
:101ED00042462FA101A830D0FEF72AFA19E0A670D9
:101EE0002CA02FA3424630A100900FE00220A0704A
:101EF000012F02D0022F04D00BE02FA030A30090BE
:101F000002E033A033A30090424636A101A8FEF7B9
:101F10000FFAFF23C82214E00420A07042461CA13F
:101F200001A8FEF705FAFF23C82201A9324801F0F3
:101F3000B6FE41F28830A06007E0FEF7F9F9FF2312
:101F40000C2201A92C4801F0AAFE207841F2707100
:101F5000627822B1A570657034B0BDE8F0810028C8
:101F6000FAD1A2688A42F3D32670F5E70401002073
:101F700041542B43574A41505F4445463D000000C1
:101F800041542B43495053544152543D00000000EA
:101F90002573000032353630383633390000000002
:101FA0004C5A50322E3400002573222573222C22E5
:101FB0002573220D0A000000383038300000000080
:101FC0003139322E3136382E312E31303100000089
:101FD000383000006170692E6B3738302E636F6DBA
:101FE00000000000257322544350222C2225732226
:101FF0002C25730D0A000000DC0100200A4C0B4E5A
:10200000002547F2305700BF00F05CF802F09EFA5E
:10201000207828B900F0A2F83580384603F0A6FCF5
:10202000012003F0A3FCEFE7980000200801002046
:102030000A4C0A20207000F0CFF800F08FF8002042
:1020400020700346024601460548C06803F0E8FEDA
:1020500002F022FC012003F089FCF9E7980000203F
:10206000000000200B484FF0FF31C06804F082F8F8
:10207000094C0A4D0A4E206840688047288818B1EC
:10208000308802F0EEF901E002F020F9C82003F0F8
:102090006DFCF0E700000020A00000209E00002062
:1020A0009A00002010B501F079FF08220021BDE858
:1020B000104002A3084602F052B80000342E2E2E23
:1020C0002E000000FEB500200190044601AE4FF442
:1020D000FA770F4D029016E001F060FF0DA101A804
:1020E000FEF726F904EB84004006000E0BA308223D
:1020F0001721009602F033F802F0E8F8384603F0B2
:1021000035FC641CE4B228788442E5D3FEBD0000AF
:1021100098000020576169740000000025730000DA
:10212000FEE70000014800F0C5BB000050010020A0
:1021300030B590F840500124AC40C56B6C60046829
:1021400063604368102B036803D099600068C26025
:1021500030BD9A600068C16030BD704708B5FF238C
:10216000032214A1144801F09AFD0A2003F0FEFB9B
:1021700003211248FFF792FE1420154900900E2308
:102180000FA201F5967002F09BFA12490B2201F1A1
:102190001E0002F08BFA0F4908220B3101F11E00DC
:1021A00002F084FA0B4900201E3188720B3108724C
:1021B00008BD000041540000DC01002094720008BA
:1021C000226461746574696D655F31223A22000092
:1021D000401B00206C1C002010B500F03FF80021CF
:1021E0000CA0FFF75BFE00210EA0FFF757FE0221B7
:1021F00010A0FFF753FE002112A0FFF74FFE154875
:1022000000F046F814488178002901D000210170BF
:1022100010BD000041542B43574D4F44453D310DF7
:102220000A00000041542B43574A41505F44454641
:102230003D00000041542B43495053544152543DFA
:102240000000000041542B4349504D4F44453D315F
:102250000D0A0000947200080401002070B50B4DB7
:102260004FF4807400222146284600F028FD4FF4E8
:10227000FA76304603F07AFB01222146284600F028
:102280001EFD3046BDE8704003F070BB0008014001
:1022900010B50446042104A0FFF700FE2046BDE867
:1022A00010400321FFF7FABD41542B4349505345D9
:1022B0004E440D0A0000000072B6FEE710B501F0B2
:1022C0006DFE08220021BDE8104002A3084601F07F
:1022D00046BF00004572726F720000007047000038
:1022E000F8B50024009490F824202546012A12D045
:1022F000012280F824204A681F23072A0DD206688D
:10230000776B521E02EB820293409F430B6893400F
:102310001F43776319E00220F8BD06680D2A0AD230
:10232000376BD21F02EB820293409F430B689340AE
:102330001F43376309E0F76A0D3A02EB82029340CC
:102340009F430B6893401F43F7620A6807230668A0
:102350000A2A0AD3F7680A3A02EB420293409F43E3
:102360008B6893401F43F76008E0376902EB420235
:1023700093409F438B6893401F4337610A68102A3C
:1023800001D0112A20D1124B02689A4217D19368CA
:102390001B0219D4936843F4000393600968102961
:1023A00012D10C490C4A0968B1FBF2F101EB810131
:1023B000490000E0491E00910029FBD104E0816A38
:1023C00041F020018162012480F824502046F8BDAC
:1023D000002401401C00002040420F0030B500687E
:1023E000104988421AD1104940F6B83200234C886F
:1023F000881E4FF46175944201D9022402E0AC4278
:1024000002D20124047000E003700988914201D9CE
:10241000032102E0A94202D20421417030BD437081
:1024200030BD0000002401401201002070477047B9
:1024300070B50446006806684568A90625D5B10749
:1024400023D5A16AC90603D4A16A41F40071A1622F
:102450008168C1F34241072910D1217B71B94168DC
:1024600021F020014160A06A20F48070A062A06A7F
:10247000C00403D4A06A40F00100A0622046FFF728
:10248000ADFF21686FF01200086028062ED5700796
:102490002CD5A06AC00603D4A06A40F40050A06204
:1024A00020688168C1F30231072909D041684905D4
:1024B00015D48168C1F34241072910D1217B71B93C
:1024C000416821F080014160A06A20F48050A06240
:1024D000A06AC00503D4A06A40F00100A0622046B3
:1024E000FFF7FCFE21686FF00C00086068060CD551
:1024F000F0070AD0A06A40F48030A062204600F0C5
:1025000093F821686FF00100086070BD2DE9F0417B
:102510004FF0000704003D467ED0A06A002628B98F
:10252000E66284F82460204600F080F82046FFF739
:1025300013FCA16AC90600D420B1A06A40F01000C3
:10254000A06269E0A16A21F4885141F00201A16210
:102550006268E169237B0A4347EA43010A43A168B1
:102560004FF48077B94209D0012907D05FF000010C
:1025700094F814C0BCF1010F02D00AE03946F7E725
:10258000F3B1A36A43F02003A362E36A43F00103BB
:10259000E3622368D3F804C02CF4694C4CEA010CC4
:1025A000C3F804C021688B68DFF870C003EA0C032D
:1025B00013438B60A168B9420BD0012909D00CE00C
:1025C000DFF85CC0A3690CEB43330B4343F40061B9
:1025D000DFE7218A0D05A5F580152168CB6A23F474
:1025E00070032B43CB62216889680E4B19409142DE
:1025F00008D1E662A16A21F0020141F00101A16265
:10260000BDE8F081A06A20F0020040F01000A06256
:10261000E06A40F00100E0620120F1E7FDF7E1FF30
:1026200000E0FFFFFE0E1FFF7047000070B586B090
:1026300000250646009501950295039500681D4901
:10264000884235D11C49886940F4007088618869E6
:1026500000F400700490886940F004008861886983
:10266000694600F004000490032000900190134894
:1026700000F030FA134C1248C4E900058020C4E988
:10268000025040002061800060612020C4E90605FE
:10269000204600F0B9F908B1FFF70EFE34620022BF
:1026A00005211220666200F0ADFB122000F09CFBB9
:1026B00006B070BD00240140001002400008014037
:1026C00008000240500100202DE9F04789460446E9
:1026D0003B4900683B4F0E1D9046884201D0B842EE
:1026E00007D1306810F4702F03D001252846BDE8CB
:1026F000F08794F8240001280CD0012084F82400ED
:102700002046FFF78DFB05004FF0000004D084F851
:102710002400EBE70220EAE7A16A40F60162914358
:1027200041F48071A1622168B94218D1326812F473
:10273000702F14D0A16A41F48011A162316849055B
:1027400005D5A16A21F4005141F48051A162A16A2A
:10275000C9040AD5E16A21F00601E16206E0A26A35
:1027600022F48012A2624968E9E7E06284F824005A
:10277000216A15488862216A1448C862216A14488F
:10278000086321686FF0020008602068816841F4E6
:1027900080718160216843464A464C31206A00F0CE
:1027A00061F920688168C1F342410729816803D03B
:1027B00041F48011816099E741F4A001FAE700003B
:1027C0000024014000280140AF1D0008171E00082A
:1027D000FD1D000810B590F821100022022905D037
:1027E0000421816380F82020012010BD01680B685E
:1027F00023F00E030B6001680B6823F001030B60EC
:1028000090F84030C46B012101FA03F3636080F853
:10281000211080F82020104610BD000010B590F85F
:1028200021100024022903D00421816301243DE00A
:1028300001680A6822F00E020A6001680A6822F044
:1028400001020A601A4A0168914201D1012121E086
:10285000174A1432914201D110211BE0144A283248
:10286000914201D1891515E0114A3C32914201D1C2
:1028700089140FE00E4A5032914202D14FF4803158
:1028800008E00B4A6432914202D14FF4801101E01A
:102890004FF08071064A083A5160012180F82110FA
:1028A000002180F82010416B01B18847204610BDFF
:1028B000080002402DE9F05FC16B0C6801680B68ED
:1028C000D0F840C0042202FA0CF2494DDFF824A1EE
:1028D000494E4A4FDFF828B1DFF828E122422CD0D8
:1028E0005A072AD50A68920603D40A6822F004021D
:1028F0000A600168A94201D1042219E0514501D1C1
:10290000402215E0B14202D14FF4806210E0B9429A
:1029100002D14FF480420BE0594502D14FF480229E
:1029200006E0714502D14FF4800201E04FF0806271
:102930002F4908394A60C16A3BE04FF0020808FAA3
:102940000CF818EA040F4FF000094FF0010235D0DF
:102950005FEA837832D50B689B0605D40B6823F0B9
:102960000A030B6080F821200168A94201D10222EC
:1029700019E0514501D1202215E0B14202D14FF4B6
:10298000007210E0B94202D14FF400520BE05945F9
:1029900002D14FF4003206E0714502D14FF400122B
:1029A00001E04FF00072124908394A6080F8209027
:1029B000816A00291AD0BDE8F05F0847082505FAAA
:1029C0000CF5254212D01B0710D50B6823F00E031F
:1029D0000B6090F84010C36B02FA01F159608263FA
:1029E00080F8212080F82090016BE2E7BDE8F09F9D
:1029F000080002401C000240300002404400024037
:102A0000580002406C00024030B528B308C8134992
:102A100014221944B1FBF2F18900C16310498163AA
:102A2000022141771A6843F6F0718A43D0E9001415
:102A30002143D0E902452C432143046921434469E1
:102A4000214384692143114319600021416301221C
:102A500042770177084630BD012030BDF8FFFDBF49
:102A60000000024070B5044690F8200000250128BF
:102A70000CD0012084F8200094F821600020012E61
:102A800006D084F820000225284670BD022070BDC3
:102A9000022684F82160A0632068066826F00106FB
:102AA00006602046FFF744FBE06A002820680168C2
:102AB00002D041F00E0106E021F00401016020681F
:102AC000016841F00A0101602068016841F00101DC
:102AD0000160D9E72DE9F84FDFF8B8910024A9F19A
:102AE000040B23460F2709F1040AABF1040EC9E0D9
:102AF0000125A5402A40AA427DD1674ED1F804C0E5
:102B0000ACEB0608B44532D014DCBCF1030F3AD06C
:102B100009DCBCF1000F2AD0BCF1010F1CD0BCF1C4
:102B2000020F31D11DE0BCF1110F17D0BCF1120F13
:102B30002AD119E0B8F5881F19D006DCB8F5803F16
:102B400015D0B8F5801F1FD111E0B8F5001F0ED0C9
:102B5000B8F5041F18D10AE0CB6815E0CB681B1D3F
:102B600012E0CB6808330FE0CB680C330CE08B68C5
:102B70002BB1012B4FF0080303D0456104E004237F
:102B800002E0056100E00023FF2A01D8064601E0CB
:102B900000F104064FEA840501D9A5F12005D6F815
:102BA000008007FA05FC28EA0C0803FA05F548EA54
:102BB0000508C6F800804D68ED0062D5374DAE6956
:102BC00046F00106AE61AD6924F0030605F001058B
:102BD0000095334D06EB050CDCF80850A607360FC0
:102BE00007FA06F825EA0805DFF8B880404503D162
:102BF0004FF0000817E044E0DFF8AC80404502D118
:102C00004FF001080FE0DFF8A480404502D14FF0FB
:102C1000020808E0DFF89880404502D14FF0030831
:102C200001E04FF0040808FA06F848EA0508CCF875
:102C300008804D68D9F80060ED024D4601D5164375
:102C400000E096432E604D68DAF80060AD0255460C
:102C500001D5164300E096432E604D68DBF8006016
:102C6000AD035D4601D5164300E096432E604D68E6
:102C7000DEF80060ED03754601D5164300E096438B
:102C80002E60641C0D682A46E5407FF431AFBDE834
:102C9000F88F0000080401400000111000100240ED
:102CA0000000014000080140000C014000100140FC
:102CB000001401408068084000D0012070470AB12C
:102CC000016170470904FBE7014880687047000014
:102CD000100000200248816802781144816070472A
:102CE00010000020074810B5016841F01001016094
:102CF000032000F0A7F8002000F006F800F050F8DC
:102D0000002010BD0020024030B505461F4887B0A6
:102D1000C16941F00401C161C06906A900F0040065
:102D2000009001A800F0ACF90498B0B100F0C8F927
:102D300040001749174AB0FBF1F11748491E0260DD
:102D4000416040F2E7320021C0E9032181608161E6
:102D500000F0C2FB040003D015E000F0B1F9E8E791
:102D60000D4800F003FC04000DD11E2000F03CF8DB
:102D7000102D07D2002229461E2000F043F80748F4
:102D8000056000E0012407B0204630BD001002407D
:102D900040420F00000800402402002014000020E0
:102DA0000F4808B5816941F001018161816901F035
:102DB00001010091C16941F08051C161C0690022E7
:102DC00000F0805000900F21901E00F01BF8054885
:102DD000416821F0E06141F00071416008BD0000F0
:102DE0000010024000000140002809DB00F01F0233
:102DF000012191404009800000F1E020C0F800115D
:102E000070470000F0B40E4B1B680C46C3F302235E
:102E1000C3F10705042D00D90425191D072901D286
:102E2000002300E0DB1E012606FA05F1491E2140C1
:102E300099409E40761E16403143F0BC01F0F4BE2E
:102E40000CED00E0064900F0070208684FF6FF03AA
:102E5000184040EA0220034A10430860704700000F
:102E60000CED00E00000FA052DE9F8430546007876
:102E7000354CC00754D0E0690026C00008D4E06992
:102E800040F08050E061E069012600F08050009041
:102E90002E480168C90512D40168804641F480714A
:102EA0000160FFF711FF074605E000BFFFF70CFFC9
:102EB000C01B642823D8D8F80000C005F6D5206AC6
:102EC00010F4407021D0A98801F4407181421CD0D7
:102ED000206A1F49012220F440700A6000220A6023
:102EE0002062C00711D0FFF7EFFE074641F2883895
:102EF00008E000BFFFF7E8FEC11B414502D90320EF
:102F0000BDE8F883206A8007F4D5206A696820F458
:102F10004070084320621EB1E06920F08050E061FB
:102F20002878800705D56068A96820F440400843E8
:102F300060602878C00605D56068E96820F48000E4
:102F4000084360600020DBE7001002400070004092
:102F5000400442422DE9F0470F46050061D0434E40
:102F6000306800F00700B84209D2306820F007004E
:102F700038433060306800F00700B84251D128680B
:102F80003B4C810712D5400703D5606840F4E060F0
:102F900060602878000703D5606840F46050606086
:102FA0006068A96820F0F000084360602878C007D6
:102FB00028D06868012810D02168022810D089071D
:102FC00000292EDA616821F0030101436160FFF7F7
:102FD0007BFE804641F288390DE021688903EFE7E6
:102FE0008901EDE7FFF770FEA0EB0801494502D922
:102FF0000320BDE8F0876068696800F00C00B0EB62
:10300000810FEFD1306800F00700B8420BD930686B
:1030100020F0070038433060306800F00700B84205
:1030200001D00120E5E72878400705D56068E96808
:1030300020F4E060084360602878000706D56068E7
:10304000296920F4605040EAC100606000F058F83F
:103050006168084AC1F30311515CC8400649086021
:1030600006480068FFF750FE0020C2E7002002403B
:1030700000100240E26800081C000020140000203C
:103080000F2202600C4A536803F003034360536845
:1030900003F0F0038360536803F4E063C360526895
:1030A0004FF4E06303EAD20202610448006800F0D2
:1030B0000700086070470000001002400020024036
:1030C0000448054900684968044AC1F30221515C7B
:1030D000C84070471C00002000100240F268000841
:1030E0000448054900684968044AC1F3C221515C9B
:1030F000C84070471C00002000100240F268000821
:103100000E4A51680E4801F00C03042B11D0082B15
:103110000FD10C48C1F38343C903C05C0AD5516881
:10312000084AC1F34041921E515C054A5043B0FB2E
:10313000F1F0704704494843704700000010024016
:1031400000127A00D268000800093D002DE9F84F0E
:10315000040070D02078C04DC00749D06868C0F323
:103160008100012807D06868C0F38100022809D1D6
:103170006868C00306D52868800339D560680028D0
:10318000E7D035E06068B0F5803F0BD010B1B0F506
:10319000A02F11D0286820F480302860286820F4FF
:1031A000802002E0286840F480302860606890B198
:1031B000FFF78AFD06460AE0286840F48020286070
:1031C000F0E700BFFFF780FD801B642873D82868F4
:1031D0008003F7D50CE0FFF777FD064605E000BF5A
:1031E000FFF772FD801B6428F0D828688003F7D4AD
:1031F00020789A4E80074FF001094FF0000839D52A
:10320000686810F00C0F07D06868C0F381000228CE
:1032100009D16868C00306D42868800714D52069DE
:10322000012808D110E02069B0B1C6F80090FFF77E
:103230004BFD074605E00AE1FFF746FDC01B0228EB
:10324000C4D828688007F7D52868616920F0F8009D
:1032500040EAC10028600DE0C6F80080FFF734FDA9
:10326000074604E0FFF730FDC01B022823D828687A
:103270008007F7D4207800072CD57948A169D9B107
:10328000C0F80090FFF720FD074604E0FFF71CFDA3
:10329000C01B02280FD8686A8007F7D571484FF421
:1032A000FA510068B0FBF1F0009000BF0098411E99
:1032B0000091FAD20EE080E0C0F80080FFF704FD34
:1032C000074604E0FFF700FDC01B022875D8686AB6
:1032D0008007F7D42078400760D5E8690027C00050
:1032E00008D4E86940F08050E861E869012700F0FF
:1032F000805000905C480168C90513D4016883467A
:1033000041F480710160FFF7DFFC824606E000BFF8
:10331000FFF7DAFCA0EB0A0064284ED8DBF80000C7
:10332000C005F5D5E06801280AD008B1052813D0FA
:10333000286A20F001002862286A20F0040002E0D8
:10334000286A40F001002862E06841F2883B98B1A9
:10335000FFF7BAFC82460BE0286A40F004002862BE
:10336000EEE700BFFFF7B0FCA0EB0A0159455AD8C1
:10337000286A8007F6D50CE0FFF7A6FC824605E038
:10338000FFF7A2FCA0EB0A0159454CD8286A800738
:10339000F6D41FB1E86920F08050E861E06988B395
:1033A0006968C1F38101022944D00228C6F860800F
:1033B00004D0FFF789FC044638E034E0FFF784FCD2
:1033C000074604E0FFF780FCC01B02282BD82868C2
:1033D0008001F7D4206AB0F5803F05D16868A16804
:1033E00020F4003008436860D4E9080108436968A4
:1033F00021F4741108436860C6F86090FFF764FC1C
:10340000044606E025E000BFFFF75EFC001B022833
:1034100009D828688001F7D51BE000BFFFF754FCEE
:10342000001B022802D90320BDE8F88F286880011C
:10343000F4D40EE00128F7D06868226A00F48031E5
:10344000914204D1616A00F47010884201D00120D9
:10345000EAE70020E8E700000010024000004242D6
:10346000800442421C0000200070004070477047FA
:1034700070B590F83C20012A26D0012480F83C4009
:10348000022280F83D2003685A689D6822F0700689
:103490000A6832435A600D4B02689A4208D0B2F172
:1034A000804F05D00A4B9A4202D00A4B9A4204D16F
:1034B000496825F080031943916080F83D40002160
:1034C00080F83C10084670BD022070BD002C014001
:1034D000000400400008004010B5040003D094F838
:1034E0003D0010B107E0012010BD002084F83C0031
:1034F000204600F01FF8022084F83D00211D2068BE
:1035000001F05EF9012084F8460084F83E0084F85A
:103510003F0084F8400084F8410084F8420084F8B9
:10352000430084F8440084F8450084F83D000020FE
:1035300010BD000008B50068B0F1804F12D10A48F4
:10354000C16941F00101C161C069002200F00100C0
:10355000009005211C20FFF755FCBDE808401C2009
:10356000FFF742BC08BD00000010024090F83D107B
:10357000012901D001207047022180F83D10016827
:10358000CA6842F00102CA6000680B49884208D04C
:10359000B0F1804F05D00949884202D008498842DD
:1035A00004D1816801F00701062903D0016841F0C8
:1035B0000101016000207047002C01400004004020
:1035C0000008004070B5044690F83C000025012832
:1035D00017D0012684F83C60022084F83D00206862
:1035E000826822F0770222F47F42826008685028C5
:1035F00038D00DDC20284FD005DC90B3102811D135
:103600004AE0022070BD302846D040280AD13BE075
:1036100060282FD070280DD0B0F5805F03D0B0F5B2
:10362000005F12D0012584F83D60002084F83C0042
:10363000284670BDCB68D1E90121206801F0F6F879
:103640002068816841F0770109E0CB68D1E9012168
:10365000206801F0EBF82068816841F480418160C6
:10366000E1E719E0CA684968206801F0F1F85021E3
:10367000206806E0CA684968206801F0FAF860210D
:10368000206801F0DDF8CEE7CA684968206801F0DB
:10369000DFF840212068F4E7226801461046F0E791
:1036A000704770B50446006801694FF00005C943D2
:1036B000890715D4C168C943890711D4E91E01617E
:1036C00001202077206880698007204602D0FFF71C
:1036D000E7FF04E000F098F8204600F096F8257720
:1036E00020680169C943490717D4C168C94349071C
:1036F00013D46FF0040101610220207720688069F3
:1037000010F4407F204602D0FFF7CAFF04E000F02B
:103710007BF8204600F079F8257720680169C943D5
:10372000090716D4C168C943090712D46FF008010C
:103730000161042020772068C0698007204602D0FC
:10374000FFF7AEFF04E000F05FF8204600F05DF800
:10375000257720680169C943C90617D4C168C943E0
:10376000C90613D46FF0100101610820207720688A
:10377000C06910F4407F204602D0FFF791FF04E0BB
:1037800000F042F8204600F040F8257720680169F3
:10379000C943C90708D1C168C943C90704D1891EF3
:1037A0000161204600F032F820680169C94309062A
:1037B00009D4C168C943090605D46FF080010161CD
:1037C0002046FFF753FE20680169C943490609D422
:1037D000C168C943490605D46FF040010161204624
:1037E00000F02EF820680169C94389060BD4C1682E
:1037F000C943890607D46FF0200101612046BDE866
:103800007040FFF734BE70BD704770470168B1F17A
:10381000804F07D107490A68521C0A60064A11887E
:10382000491C118000680549884201D1FFF752BA4E
:10383000704700000C010020080100200008004033
:10384000704718B5034690F84200202801D00220A6
:1038500018BD61B15AB101201863002058631846A1
:1038600001F054F90028F3D1196B012901D001208E
:1038700018BD19680A684968009119680C3151E847
:10388000002F42F0100241E80024002CF5D118BDB1
:103890002DE9F041224988423BD1224D224A6C1E3B
:1038A0002978606800264FF480771154401C6060CE
:1038B0007D290FD10B221DA11B4800F05CFB20B914
:1038C000194A1DA11D48FCF733FD39461648FCF77F
:1038D00080FE666028780A281BD1207888B126707F
:1038E000022217A1104800F046FB10B9154901202B
:1038F000087039460C48FCF76CFE666028780A2888
:1039000007D120783946401C20700748FCF761FE3B
:103910006660BDE8F041012202490148FFF791BF0E
:10392000DC010020190100209E2000203E7B227334
:10393000756363657373220025730000401B0020CC
:103940004F4B00000501002070470000F8B50168EA
:1039500004460868CA684B6910F00F0F4FF0000565
:1039600059D003F0010602F49077374365D0C107C0
:1039700005D0D10503D5616C41F0010161644107B7
:1039800005D5D90703D0616C41F00201616481075C
:1039900005D5D90703D0616C41F0040161640107CA
:1039A00007D502F02001314303D0616C41F00801DA
:1039B0006164616C00293AD0800604D5900602D576
:1039C000204600F0E6FF20684069616CC0F380107B
:1039D000090700D460B3204600F0B4FF20684069B6
:1039E000400621D52068143050E8001F21F0400126
:1039F00040E80012002AF5D1E06BA8B16D4941639F
:103A0000E06BFEF70BFF002811D0E06B416B01B0BB
:103A1000BDE8F040084783060FD593060DD5204634
:103A2000BDE8F84000F0B5BF2046FFF78DFFF8BDB8
:103A30002046FFF789FF6564F8BD266B2023012E21
:103A40007CD1C6067AD5D60678D508684868009035
:103A500048694FF00206400640D5E16B08684068AF
:103A60000004000CE8D0A28D8242E5D9E085886987
:103A700020282DD020680C3050E8001F21F48071E0
:103A800040E80012002AF5D12068143050E8001FE9
:103A900021F0010140E80012002AF5D1206814301D
:103AA00050E8001F21F0400140E80012002AF5D143
:103AB00084F84230256320680C3050E8001F21F064
:103AC000100140E80012002AF5D1E06BFEF782FEFB
:103AD0006663A08DE18D401A81B22AE0A08DE18D50
:103AE000401A81B2E08D0028A6D00029A4D0226817
:103AF0000C3252E8000F20F4907042E80007002FCB
:103B0000F5D12068143050E8002F22F0010240E87F
:103B10000027002FF5D184F84230256320680C304F
:103B200050E8002F22F0100240E80023002BF5D1CE
:103B300066632046FFF7ACFEF8BDFFE705062BD510
:103B4000150629D594F841002128F5D1A068B0F5D3
:103B5000805F01D12069B0B1206A411C21622168D7
:103B600000784860E08C401E0004000CE084E3D143
:103B70002068C16821F08001C1602068C16841F0FF
:103B80004001C160D8E7206A0088C0F3080048609F
:103B9000206A801C2062E5E74006CDD55006CBD5D3
:103BA000CA68204622F04002CA6084F8413000F022
:103BB000C3F8C1E73549000870B5040004D094F893
:103BC0004100002510B106E0012070BD84F840508E
:103BD000204600F023F8242084F841002068C168C2
:103BE00021F40051C160204600F034FF20680169D3
:103BF00021F4904101612068416921F02A0141616D
:103C00002068C16841F40051C1606564202084F8D7
:103C1000410084F842006563002070BD30B585B076
:103C20000024009401940294039400681849884287
:103C30002CD11848816941F480418161816901F486
:103C400080410491816941F0040181618069124DD4
:103C500000F0040004904FF40070009002200190E6
:103C60000320039069462846FEF734FF2815CDE966
:103C70000004694628460294FEF72CFF0022052125
:103C80002520FFF7BFF82520FFF7AEF805B030BDBF
:103C900000380140001002400008014070472DE943
:103CA000F843044690F841001F4616460D4620286A
:103CB00002D00220BDE8F8837DB176B100206064B7
:103CC000212084F84100FEF7FFFFA6848046E684A9
:103CD000A068B0F5805F02D003E00120EAE7206928
:103CE00010B12E4600250EE000260CE08021204673
:103CF00000F027FFA0B9AEB116F8010B21684860AB
:103D0000E08C401EE084E08C43464FF000020097B8
:103D10000028EBD14FF04001204600F012FF30B1F7
:103D20000320C7E735F8020BC0F30800E6E72020C0
:103D300084F841000020BDE77047FEE7FEB500258E
:103D40001648009501951449029501608915816016
:103D5000012404730575022606614FF46021456055
:103D6000C161FEF7D3FB08B1FEF7A6FA0720009465
:103D7000CDE9014069460948FEF7B2FA08B1FEF7FD
:103D80009BFACDE9005669460448FEF7A9FA0028D7
:103D900001D0FEF791FAFEBD002401402001002071
:103DA000094808B5416941F00101416140690022BB
:103DB00000F00100009005210B20FFF723F8BDE87B
:103DC00008400B20FFF710B80010024010B50E4A53
:103DD0000021012000F098FF0C4C0B4A0021E0600C
:103DE0006C3A0B4800F0E8FF074A2060483A00218F
:103DF000084800F0E1FF044A6060243A00210648C8
:103E000000F0DAFFA06010BDC068000800000020CC
:103E1000FD1F000831200008652000082DE9F0434F
:103E200085B0002429480094019402940394816988
:103E300041F020018161816901F0200104918169D3
:103E400041F004018161816901F0040104918169FB
:103E500041F0080181618069DFF8748000F008009A
:103E60004FF480760490002231464046FEF727FF4B
:103E7000DFF860904FF44077002239464846FEF75D
:103E80001EFF042001258DE8310069464046FEF7FB
:103E900021FE68038DE8310069464846FEF71AFEA8
:103EA0000096CDE901540225694640460395FEF788
:103EB00011FE01AA1120009782E8310069464846A8
:103EC000FEF708FE05B0BDE8F083000000100240D8
:103ED00000080140000C014010B586B000241648CF
:103EE000009401940294039404944FF0804105944B
:103EF00001604721C0E9011440F2E731C0E9031431
:103F00008461FFF7E9FA08B1FEF7D6F94FF4805063
:103F1000009069460848FFF755FB08B1FEF7CCF959
:103F2000049404A904480594FFF7A2FA002801D0DC
:103F3000FEF7C2F906B010BD940100200C4810B580
:103F40000A4901604FF4E1314160002181600C2297
:103F5000C160C0E904128161C161FFF72DFE002834
:103F600003D0BDE81040FEF7A7B910BD00380140EE
:103F7000DC010020FEE770B50024234605E0C55CA7
:103F8000CE5CB54200D1641C5B1C9342F7D39442D3
:103F900001D1002070BD012070BDFEE710B50021E9
:103FA000074C0A46002004EBC1131A54401CC0B24F
:103FB0008028FAD3491CC9B20829F3D310BD0000E8
:103FC0009E1C0020F0B57F282AD83F2928D88418C5
:103FD000802C02D9C0F18002D2B2CC18402C02D978
:103FE000C1F14003DBB20126DFF838E087180B444B
:103FF00014E001F0070206FA02F5CA0804460EEBC7
:10400000C21207E012F804C02CEA050C02F804C042
:10401000641CE4B2A742F5D8491CC9B28B42E8D867
:10402000F0BD00009E1C002010B500204FF47A72F5
:104030000021491C9142FCD3401C9042F8D3FFF769
:10404000EDFE012000F0BAF9BDE81040012000F0BB
:10405000BDB970B500240646802525FA04F030402D
:1040600000D0012000F0B2F9012000F0A7F90020F3
:1040700000F0A4F9641CE4B2082CEED3012000F097
:104080009DF9BDE87040002000F098B910B50120FE
:1040900000F09CF9012000F091F9002000F096F961
:1040A000BDE81040002000F089B910B5002000F0F4
:1040B0008DF9012000F082F9BDE81040012000F0E8
:1040C00085B910B5FFF7B0FFAE2000F087F9D52015
:1040D00000F084F9802000F081F9A82000F07EF93A
:1040E0003F2000F07BF9D32000F078F9002000F0A9
:1040F00075F9402000F072F9A12000F06FF9C82096
:1041000000F06CF9DA2000F069F9122000F066F98D
:10411000812000F063F9CF2000F060F9D92000F091
:104120005DF9F12000F05AF9DB2000F057F930205A
:1041300000F054F9A42000F051F9A62000F04EF947
:104140008D2000F04BF9142000F048F9AF2000F06A
:1041500045F9FFF723FFBDE8104000F0B7B80FB4F2
:1041600070B588B014460D46064610AA68460F99E9
:10417000FCF7CCF823466A462946304600F090F812
:1041800008B070BC5DF814FB10B50C4640F0B000F0
:1041900000F024F9102040EA141000F01FF904F098
:1041A0000F00BDE8104000F019B9000018B5A2F1E9
:1041B00020045F2C0ED2082B0DD0062B0AD10A4BFF
:1041C00002EB420203EB4202C03A009208230622AD
:1041D00000F00EF818BD054B03EB0212A2F50072B9
:1041E000102300920822F3E7EA6E0008FA6800083C
:1041F0002DE9FC4F1F4615460C4606467F284AD837
:104200003F2C48D8FFF7DEFE781EC117002300EBD5
:1042100051700121DFF884B004F0070901EBE007D9
:1042200037E0002031E031187F2930D803EBD40A81
:10423000BAF1070F2FD80BEBCA1E03FB05F21EF8CD
:1042400001C00192DDF82C808044CDF8008012F886
:10425000082002FA09F24CEA020C0AF101020EF8F7
:1042600001C0072A0FD80EEB0108DDE900C198F85C
:10427000802011F80CC0C9F108012CFA01FC42EAB7
:104280000C0288F88020401CC0B2A842CBD35B1C33
:10429000DBB29F42C5DCBDE8FC8F00009E1C002005
:1042A0002DE9F0411E46154688460746002408E0E1
:1042B00004FB0670C0B233464146FFF777FF641C2B
:1042C000E4B22A5D002AF3D1BDE8F08170B5084D53
:1042D000002400212046FFF757FF05EBC410802182
:1042E00000F08DF8641CE4B2082CF2D370BD00001D
:1042F0009E1C00202DE9F041164605467F2827D850
:104300003F2925D8A819802802D9C5F18000C6B256
:10431000C818402802D9C1F14000C3B2C818CC085F
:10432000401EC11700EB51700121DFF8288001EB1E
:10433000E0070BE029462046FFF726FF08EBC410F4
:104340002844314600F05BF8641CE4B2A742F1DC7B
:10435000BDE8F0819E1C00202DE9F041164605467F
:104360007F2827D83F2925D8A819802802D9C5F148
:104370008000C6B2C818402802D9C1F14000C3B2BB
:10438000C818CC08401EC11700EB51700121DFF89E
:10439000288001EBE0070BE029462046FFF7F4FEFA
:1043A00008EBC4102844314600F041F8641CE4B224
:1043B000A742F1DCBDE8F0819E1C002002464FF4CC
:1043C00080710148FEF77BBC000C014002464FF4AF
:1043D00000710148FEF773BC000C014010B50446A3
:1043E000FFF754FE7820FFF734FE0020FFF731FE80
:1043F0002046FFF72EFEBDE81040FFF756BE70B511
:104400000D460646FFF742FE7820FFF722FE4020C9
:10441000FFF71FFE002404E0305DFFF71AFE641C66
:10442000E4B2AC42F8D3BDE87040FFF73EBE70B5D1
:104430000D460646FFF72AFE7820FFF70AFE4020C9
:10444000FFF707FE002406E0305DC043C0B2FFF76F
:1044500000FE641CE4B2AC42F6D3BDE87040FFF746
:1044600024BE10B501280FD0022817D0032825D06C
:10447000042833D0052839D140237F220021BDE80C
:1044800010400020FFF736BF002110237F2208468E
:10449000FFF762FF30237F221021F0E710237F22F5
:1044A00019460020FFF758FF002110237F220846FD
:1044B000FFF720FF20237F221946E0E710237F2209
:1044C00020210020FFF748FF002120237F220846FB
:1044D000FFF710FF10237F223021D0E710237F2227
:1044E00030210020FFF738FF3023C6E710BD000061
:1044F00010B5FFF753FD00210CA308220846FFF773
:104500002EFE0CA3082210210020FFF728FE0BA38B
:10451000082220210020FFF722FE08223021BDE8DA
:10452000104008A30020FFF71ABE0000536574690D
:104530006E6700004572726F720000005768697400
:1045400065000000426C61636B0000002DE9F041E2
:104550004FF400513248FEF7ADFB074604213148C5
:10456000FEF7A8FB304C042604F110050122A4F14B
:104570001C01CFB98B68A34205D1E3688B6000238F
:10458000CB804A8010E0AB4209D0274F2037BB4296
:1045900005D01037BB4202D01037BB4204D1EB68C4
:1045A0008B60CA804A808E80A0B91F4B8868103B00
:1045B000984204D18C60CA804A808E800AE0A04272
:1045C00008D1488805EB001010388860CA804A80FE
:1045D0000220888015480078022802D001280CD0DB
:1045E00018E0C888B0B14888401C83B24B808888E6
:1045F000401C83420BD34A8009E0C88850B14888E8
:10460000401E0004000C488001D188884880C820E2
:1046100001F0ACF9BDE8F041C82001F0A7B90000F5
:10462000000C014000080140B400002010010020EF
:10463000022202490248FEF747B80000120100209A
:104640002001002010B5FFF7A9FC002106A30822D5
:104650000846FFF784FD08221021BDE8104004A39E
:104660000020FFF77CBD0000312E2E2E2E00000012
:10467000322E2E2E2E00000008B5FFF78FFC0848C2
:104680000021009007A308220846FFF768FD0648AE
:10469000009004A3082210210020FFF760FD08BD50
:1046A000951C0020257300008A1C002010B50023F3
:1046B00003E0CC5CC4545B1CDBB29342F9D310BD65
:1046C0002DE9F05F1D469146884683460024C3F5D8
:1046D0009677DDF828A00EE008EB0400EAB2064663
:1046E0004946FFF748FC20B9711952465846FFF772
:1046F000DDFF641CA4B2A742EEDCBDE8F09F000021
:1047000010B5502080F31188BFF34F8FBFF36F8F28
:1047100001F092FE18B104494FF08050086000206B
:1047200080F3118810BD000004ED00E030B593B0B7
:1047300028216846FBF76FFF14210AA8FBF76BFFDF
:10474000002501200F9510951195010412958DE813
:10475000230004904FF4E010CDE9081002240794E0
:104760006846FEF7F3FC08B172B6FEE70AA90F200F
:1047700081E831004FF48060CDE90D0502210AA8DF
:10478000FEF7E8FB08B172B6FEE74FF44040119027
:104790000F940FA8FEF768FB002801D072B6FEE761
:1047A00013B030BD704700000148FEF77ABF00002B
:1047B000940100200148FEF774BF0000240200208D
:1047C000F0B50268164B174C174D4FF080479842D2
:1047D00005D0B84203D0A04201D0A84203D122F0B4
:1047E00070064A683243984205D0B84203D0A042CE
:1047F00001D0A84203D122F44074CA6822434C6914
:1048000022F08002224302608A68C2620A688262E1
:10481000984201D10969016301214161F0BD0000A5
:10482000002C0140000400400008004010B58468DE
:1048300042EA032224F47F440A432243826010BDEB
:10484000826822F070020A4342F0070181607047DB
:1048500010B5036A046A24F001040462846924F038
:10486000F00444EA021423F00A020A43846102625B
:1048700010BD10B5036A046A24F010040462846950
:1048800023F0A00324F4704444EA023243EA011105
:104890008261016210BD000070B521488188B1F5C8
:1048A0007A7F3BD31F4C00218180E0793025401C6A
:1048B000C0B2E0713A2814D1E571A079401CC0B2B1
:1048C000A07136280DD1A5712079401CC0B220718D
:1048D0003A2806D12571E078401CC0B2E070362835
:1048E00012D0E078302801D0332817D12079302831
:1048F00014D100BFFDF732FC0020E179491CC9B298
:10490000E1713A2902D005E0E570F3E7E571A1799C
:10491000491CA171401CC0B20528EED370BD000037
:1049200004010020951C00200148FEF71FBE000076
:104930009401002010B5406A0021C185C184FFF7B1
:1049400003F810BD01680C3151E8002F22F4907279
:1049500041E80023002BF5D10168143151E8002F04
:1049600022F0010241E80023002BF5D1016B01295F
:1049700009D101680C3151E8002F22F0100241E802
:104980000023002BF5D1202180F842100021016383
:10499000704708B590F84210222901D0022008BDC6
:1049A00082684FF480539A4201D1016921B1816A32
:1049B0009A421BD04AB10AE00268816A5268C2F387
:1049C00008020A80816A891C08E0026972B10268E3
:1049D000526802F07F020A70816A491C8162C18DAF
:1049E000491E0904090CC18503D01BE00268526806
:1049F000F1E70168CA6822F02002CA600168CA684B
:104A000022F48072CA6001684A6922F001024A6198
:104A1000202180F8421000214163026B012A03D05B
:104A2000FFF73CF9002008BD016301680C3151E833
:104A3000002F22F0100241E80023002BF5D101687D
:104A40000A68D20602D50A6849680091818DFEF78E
:104A50001FFFE7E770B5044600680169E26821F4CA
:104A60004051114301612169A0680843616908430D
:104A70002168CA6841F20C639A430243CA60206805
:104A80004169A26921F44071114341611E492068C6
:104A9000884202D1FEF724FB01E0FEF711FB00EB98
:104AA000C00101EB0012606864218000B2FBF0F3EA
:104AB000B3FBF1F36FF018067343B2FBF0F5B2FBF2
:104AC000F0F605EB8305322303EB0515B5FBF1F595
:104AD000B6FBF1F605F0F00505EB0615B2FBF0F6B6
:104AE000B2FBF0F0B0FBF1F06FF01802504306EBB0
:104AF000800003EB0010B0FBF1F0216800F00F0024
:104B00002844886070BD00000038014081628285C1
:104B1000C28500214164222180F84210016921B13F
:104B20000168CA6842F48072CA6001684A6942F04A
:104B300001024A610068C16841F02001C1600020A3
:104B400070472DE9F041984617460E460446069DEB
:104B500027E0681C25D02DB1FEF7B6F8A0EB0800C1
:104B6000A8421ED920680C3050E8001F21F4D071F3
:104B700040E80012002AF5D12068143050E8001FE8
:104B800021F0010140E80012002AF5D1202084F82C
:104B9000410084F84200002084F840000320BDE872
:104BA000F0812068006836EA000004D00020B84296
:104BB000CFD00020F3E70120F9E700000148FEF71D
:104BC000C5BE0000DC010020012202490248FEF7B8
:104BD00038BE000019010020DC010020FEE70000C3
:104BE00010B5FFF7DBF908220021BDE8104002A351
:104BF0000846FFF7B4BA0000332E2E2E2E00000018
:104C0000490050EAC12018BF04204A0D18BF40F0E7
:104C1000010040F2FF72B2EB515F08BF40F00200AA
:104C2000012808BF052070470907090E002804DB8A
:104C300000F1E02080F80014704700F00F0000F150
:104C4000E02080F8141D704730380A2801D2012076
:104C5000704700207047FEF745F8FFF767FDFFF744
:104C6000DDF8FFF79DF8FFF769F8FFF735F9FFF773
:104C700065F9FFF759FEFFF7A7FFFFF722FAFFF7E5
:104C8000D7FC00F005F8FFF7A1F800F01DF8FEE7EB
:104C9000EFF3058058B9EFF3108040B9094908686F
:104CA000022801D030B109E0EFF3118030B16FF08C
:104CB0000500704701200860002070474FF0FF306A
:104CC000704700007000002010B5EFF3058060B958
:104CD000EFF3108048B90B490868022802D0012878
:104CE00006D00BE0EFF3118040B16FF0050010BD6E
:104CF0000220086000F0EAFE002010BD4FF0FF30F7
:104D000010BD000070000020F8B5144603460E46A2
:104D10004FF00005EFF30580E8BBEFF31080D0BB48
:104D200024480068022802D1EFF3118098BB93B3A6
:104D30009E423DD84CB1A0680028E06803D05028BE
:104D400036D3012002E008B132E00020012B05D06B
:104D500010B31846A26800F0A8FF20E040B103207D
:104D60000090002211460120A36800F0E2FF04E059
:104D700003220021012000F0B8FF050018D086B101
:104D800000231A46194601F04BF8012809D028469D
:104D900000F09EFD00250BE0184600F069FF0500BD
:104DA00006D00CB1216800E00021284600F07CFD0F
:104DB0002846F8BD70000020F0B585B04FEA010329
:104DC0004FF00004EFF305810394A1BBEFF31081D2
:104DD00089BB21490968022902D1EFF3118151BB36
:104DE00048B3802618218DF8104004AD42B31768EF
:104DF00007B13D4697691FB139467F1E382F02D251
:104E00001779FF0702D0002005B0F0BD576907B140
:104E1000BE08D2F808C0BCF1000F0DD0D4685C2CDD
:104E200018D312693AB137B18DE8061032462946D7
:104E300001F0C3FA03900DE0D7685FB912694AB96F
:104E400003AACDE90012B2B2294601F089FA01287D
:104E500000D003940398D7E7700000202DE9F041BB
:104E6000134C0F46054666692068001D00F022FCC1
:104E7000681C07D137B12168BDE8F0410D48091D14
:104E800000F068BC20683544B5424560216805D211
:104E9000A068BDE8F041091D00F044BC6068091D30
:104EA00000F040FC206B854200D22563BDE8F08114
:104EB000200000205C0700202DE9F041054600F0AD
:104EC00055FC2D4C2069401C206120682B4F10B1EF
:104ED000E06930B32BE025602069012827D1002646
:104EE00006EB860007EB800000F00EFC761C382EE7
:104EF000F6D3234800F008FC2148143000F004FCED
:104F00001F48283000F000FC1D483C3000F0FCFB3E
:104F10001B48503000F0F8FB194860601430A06066
:104F200005E02068E96AC06A884200D82560E06A26
:104F3000401CE0626864E86AA169884200D9A06107
:104F400000EB800007EB8000291D00F003FC00F05F
:104F50002DFCE06900280CD02068E96AC06A88420C
:104F600007D208494FF080500860BFF34F8FBFF35E
:104F70006F8FBDE8F081000020000020AC0200200F
:104F80000C07002004ED00E038B500F0EFFB104CFA
:104F9000A068C8B90F4800F0B7FB0E48143000F005
:104FA000B3FB0C482060143060600A4B00202833AB
:104FB000009003F1500210210A2000F0BAFEA06018
:104FC00010B105A100F070FCBDE8384000F0EEBB68
:104FD0005C00002070070020546D7251000000003A
:104FE00030B4026C0B46002A0BD0C1681144C1607A
:104FF0004468A14201D30168C16030BC1846FBF788
:105000009BBA30BC70472DE9F041856B17460446CA
:105010000026026C82B1C7B1E068FBF78DFAE16847
:10502000206C091AE1602268914202D26168081A74
:10503000E060022F16D017E02068A8B9606801F080
:105040005FFA0646002060600EE0A068FBF774FA85
:10505000216CA0680844A0606168884204D320687D
:10506000A06001E005B16D1E6D1CA5633046BDE872
:10507000F08110B5044690F8590058B101280CD0C1
:1050800002280FD0502080F31188BFF34F8FBFF359
:105090006F8FFEE7206B00F09DFB2046BDE81040BF
:1050A00000F098BB10BD000010484FF4406142076B
:1050B00006D0C01D0D4920F00700411AC1F540611E
:1050C0000B4A00230144C2E900030839103A21F0D9
:1050D000070111604B600B600B1AC0E9001393606D
:1050E0004FF000405360D06070470000400F002038
:1050F00084000020144E154CA6F29C474FF08058B7
:10510000DFF84C9012E000BF00F030FBF068C5689B
:10511000281D00F0CFFA2069401E2061E068401E83
:10512000E06000F043FB2846FFF7A3FFE06800289B
:10513000EAD138680128F9D9C9F80080BFF34F8F48
:10514000BFF36F8FF2E70000480700202000002027
:1051500004ED00E070B51D46049C51B1C4F8002078
:10516000C4E90F010121204600F016FE84F84C50DE
:1051700070BD2460F4E72DE9F0470E46DDE90984AF
:105180001746824691009946089DA522206BFBF7A1
:1051900018FA6FF00301206B01EB8701084420F03F
:1051A0000707780707D0502080F31188BFF34F8F8F
:1051B000BFF36F8FFEE72218315C82F83410315C48
:1051C00011B1401C1028F6D3002684F84360382D16
:1051D00000D33725E562C4E91356201D00F09FFA7D
:1051E00004F1180000F09BFA2461C5F138006462F4
:1051F000A061666584F858604A465146384600F01A
:1052000047FA2060B8F1000F01D0C8F80040BDE8AF
:10521000F087000030B5114900E011460A6882426B
:10522000FBD34B685C18844203D140681844486043
:10523000084643681C18944209D1084C103C246865
:10524000A24209D052681A4442600A681268026099
:10525000814200D0086030BD0460F9E7840000207E
:1052600070B5002441600B4D0061914206D8D11AFF
:105270008269914206D2011D686807E09A4203D212
:10528000994201D3012403E0011D286800F04AFA85
:10529000204670BD5C00002010B5044600F066FAA0
:1052A000A06B28B15FF0000400F080FA204610BD2A
:1052B0000124F9E730B589B0304D55E00498002855
:1052C00006DADDE90601059A9047049800284BDBD1
:1052D000069C606910B1201D00F0ECF902A800F0F6
:1052E000B9F8024604980A283ED2DFE800F0050526
:1052F000053D263705053D260598A169034601446D
:105300002046FFF7ADFF00B3616A20468847E06999
:10531000012829D1002000900598A1690023421896
:105320001946204601F032FA78B9502080F31188EE
:10533000BFF34F8FBFF36F8FFEE70598A06128B1D1
:10534000811813462046FFF78BFF0DE0502080F3B5
:105350001188BFF34F8FBFF36F8FFEE794F82C00D7
:1053600010B9204600F036FA002204A9A86800F01F
:1053700065FE0028A2D109B030BD00005C0000200D
:105380002DE9FC410F46054600F0E4FB01A800F0C2
:1053900061F80446019818B101F066F9BDE8FC8196
:1053A000224EAFB170680068A8B30027291B3A46A7
:1053B000B06800F0B9FA01F057F90028EED11C49A5
:1053C0004FF080500860BFF34F8FBFF36F8FE5E75A
:1053D000A542EBD801F048F930682746C068C46898
:1053E000201D00F067F9E069012810D1A0692B4663
:1053F00041193A462046FFF733FF40B100200346EB
:10540000014600902A46204601F0C0F920B1616AA9
:1054100020468847C2E707E0502080F31188BFF399
:105420004F8FBFF36F8FFEE70127BFE75C000020BF
:1054300004ED00E006484168096829B14168C9687F
:10544000C9684968016370474FF0FF31FAE700000F
:105450002000002070B5054600F0E8FF064E044627
:105460003069844203D200F009F8012000E00020F6
:1054700028602046346170BD5C000020F8B5194DED
:105480001FE0C068C4680668201D00F013F9616A57
:1054900020468847E069012813D1A0693044B04212
:1054A00006D924616060211D286800F03BF908E0FE
:1054B00000200346014600903246204601F066F97E
:1054C00038B1286801680029DBD16968C5E9001096
:1054D000F8BD502080F31188BFF34F8FBFF36F8F5B
:1054E000FEE700005C00002008484068401C4FF0C8
:1054F000500080F3118804D0BFF34F8FBFF36F8F3C
:10550000FEE7BFF34F8FBFF36F8FFEE78C000020E5
:10551000074C2068016841B1C0680021D0F8000044
:10552000FFF72EFFFFF7C6FEF3E701210020F7E7A4
:105530005C0000202DE9F041044600F017F994F9D1
:10554000455004F1240609E0606A48B1304601F094
:1055500053F808B100F038FA6D1E6DB2002DF3DC7F
:105560004FF0FF3684F8456000F020F900F0FEF8B7
:1055700094F9445004F1100709E0206948B1384615
:1055800001F03AF808B100F01FFA6D1E6DB2002D5F
:10559000F3DC84F84460BDE8F04100F007B9000096
:1055A0002DE9F0410546002700F0D4FA314E30686D
:1055B00008B9FFF779FDF06805424BD1C5B308354E
:1055C00068070ED005F00700C0F108000544680721
:1055D00007D0502080F31188BFF34F8FBFF36F8F38
:1055E000FEE72DB37068854234D82248103001465A
:1055F0000C6801E020460C466168A94202D221688D
:105600000029F7D131688C4224D0076821680160F5
:1056100060680837411B10290FD96019420708D06C
:10562000502080F31188BFF34F8FBFF36F8FFEE7D9
:1056300010E041606560FFF7EDFD61687068401A39
:105640007060B268904200D2B060F0680143002000
:10565000C4E9000101F008F8780707D0502080F372
:105660001188BFF34F8FBFF36F8FFEE73846BDE859
:10567000F0810000740000200449086818B108682F
:10568000026D521C0265086870470000200000206F
:1056900010B5031F4FF080741C601B1F21F0010127
:1056A0001960191F024B0B60143940380A6010BD95
:1056B000E9540008D0E9013201699A60D0E9012378
:1056C0005A604A68824201D182684A6000220261BF
:1056D0000868401E0860086870470000034B0360BC
:1056E00003F15C000860802010607047880800208B
:1056F000044B036003F15C0008604FF4807010609D
:1057000070470000E40A002000F108014FF0FF326A
:10571000C0E90112C16001610021016070470021F0
:105720000161704730B50B685A1C02D000F10802C5
:1057300002E0026904E02246546825689D42FAD9D5
:1057400053684B6099608A60516008610168491C28
:10575000016030BD42684A6093688B60936859600D
:10576000916008610168491C01607047502080F316
:105770001188BFF34F8FBFF36F8F0A494868401CF1
:10578000486001280CD10848006810F0FF0F07D0CE
:10579000502080F31188BFF34F8FBFF36F8FFEE768
:1057A000704700008C00002004ED00E008494868C4
:1057B00028B1401E486001D180F311887047502005
:1057C00080F31188BFF34F8FBFF36F8FFEE70000A8
:1057D0008C00002070B5002827D0144DA0F10804DB
:1057E0006168E868014207D1502080F31188BFF357
:1057F0004F8FBFF36F8FFEE722683AB1502080F3DE
:105800001188BFF34F8FBFF36F8FFEE78143616055
:1058100000F0A0F960686968084468602046FFF7F6
:10582000F9FCBDE8704000F01FBF70BD740000209F
:105830004FF0E02000210161816105494FF47A7247
:105840000968B1FBF2F1491E41610721016170470E
:105850001C00002010B5FAF735FD114910280ED3B1
:1058600000F1E02090F8F0030A78904207D250202F
:1058700080F31188BFF34F8FBFF36F8FFEE70948A6
:105880000068896800F4E060884207D9502080F3FE
:105890001188BFF34F8FBFF36F8FFEE710BD00007D
:1058A0008C0000200CED00E010B5084B002200BF7A
:1058B00053F832401CB1521C082AF9D310BD43F8EA
:1058C000321003EBC201486010BD00006C020020E2
:1058D00010B504000AD000F013F894F84600002830
:1058E0000CD12046BDE81040FFF774BF502080F374
:1058F0001188BFF34F8FBFF36F8FFEE710BD00001D
:10590000084A002102EBC1035B68834206D10020F4
:1059100042F8310002EBC10148607047491C082978
:10592000F0D370476C02002070B515460E46044651
:10593000FFF71CFF94F944100020491C01D184F8A2
:10594000440094F94510491C01D184F84500FFF743
:105950002DFFA06B28B92A46314604F1240000F03F
:1059600051F82046BDE87040FFF7E4BD10B50200D5
:1059700014D00F48806B38B1502080F31188BFF3EA
:105980004F8FBFF36F8FFEE700F0E4F80021104661
:10599000FFF764FA00F068FE002807D105494FF0D0
:1059A00080500860BFF34F8FBFF36F8F10BD0000B2
:1059B0002000002004ED00E002498A6A0260496983
:1059C0004160704720000020014901204862704773
:1059D0002000002010B50C4650B109490968183163
:1059E000FFF7A0FE2046BDE810400121FFF736BAC0
:1059F000502080F31188BFF34F8FBFF36F8FFEE706
:105A00002000002070B514460D4668B10A490968A7
:105A10001831FFF79FFE0CB14FF0FF3521462846A5
:105A2000BDE87040FFF71ABA502080F31188BFF329
:105A30004F8FBFF36F8FFEE72000002070B504008A
:105A40003ED0226DA2B1E06C884200D30146E06AEC
:105A5000884235D0012A33D11A4D2A6894420FD199
:105A6000502080F31188BFF34F8FBFF36F8FFEE795
:105A7000502080F31188BFF34F8FBFF36F8FFEE785
:105A8000E162A269002A02DBC1F13801A1610E4E78
:105A900000EB8000616906EB8000814210D1201D7F
:105AA000FFF708FEE06AA969884200D9A86100EB07
:105AB000800006EB8000211DBDE87040FFF74ABE64
:105AC00070BD000020000020AC02002030B587B07F
:105AD0000024039405AA04A903A80494FFF7FEFD7B
