:020000040800F2
:10000000100B00203502000807320008C92A00083A
:1000100005320008471D00083B36000800000000BC
:10002000000000000000000000000000D5350008BE
:10003000491D000800000000D3350008D73500082E
:100040004F0200084F0200084F0200084F0200084C
:100050004F0200084F0200084F0200084F0200083C
:100060004F0200084F0200084F0200084F0200082C
:100070004F0200084F0200084F0200084F0200081C
:100080004F0200084F0200084F0200084F0200080C
:100090004F0200084F0200084F0200084F020008FC
:1000A0004F0200084F0200084F0200084F020008EC
:1000B0004F0200084F0200084F0200084F020008DC
:1000C0004F0200084F0200084F0200084F020008CC
:1000D0004F0200084F0200084F0200084F020008BC
:1000E0004F0200084F0200084F02000800F002F81B
:1000F00000F090F80AA090E8000C82448344AAF132
:100100000107DA4501D100F085F8AFF2090EBAE82F
:100110000F0013F0010F18BFFB1A43F0010318473B
:10012000A4830000C4830000103A24BF78C878C1BB
:10013000FAD8520724BF30C830C144BF04680C60ED
:10014000704700000023002400250026103A28BF35
:1001500078C1FBD8520728BF30C148BF0B60704739
:100160006E2900F09F82702900F0E183662906F075
:10017000BC85652906F0B985672906F0B685612931
:1001800006F0B58503681B0A28BF41F08001692984
:1001900000F04C82642900F04982752900F0468203
:1001A0006F2900F06E83782900F0AD83E92900F013
:1001B0000983E42900F00683F52900F00383EF2981
:1001C00000F06B83F82900F0AC830368DB0928BFDB
:1001D00041F08001632901F0B380732901F0B880F8
:1001E000E32901F0C380F32901F0C88000207047A3
:1001F0001FB501F019F904000020002105F04CFDA5
:10020000401C60600020002105F030FDE0601FBD53
:1002100010B510BD01F0DAF81146FFF7E9FF04F060
:1002200073FD01F0B7F903B4FFF7F2FF03BC01F06F
:10023000BBF900000948804709480047FEE7FEE790
:10024000FEE7FEE7FEE7FEE7FEE7FEE7FEE7FEE786
:1002500004480549054A064B704700003936000836
:10026000ED00000810050020100B002010070020F2
:100270001007002010B54C1084EA530404D5404206
:10028000C1F1000138BF491E1B4204D55242C3F1DF
:10029000000338BF5B1E00F0E4F814F0804F04D078
:1002A0004042C1F1000138BF491E14F0004F04D094
:1002B0005242C3F1000338BF5B1E10BD1CB50C4693
:1002C000064B7B4469460090204600F004FA044641
:1002D0000020694600F012FA20461CBD37040000D9
:1002E00040EA010310B59B070FD1042A0DD310C8B3
:1002F00008C9121F9C42F8D020BA19BA884201D905
:10030000012010BD4FF0FF3010BD1AB1D30703D04C
:10031000521C07E0002010BD10F8013B11F8014B02
:100320001B1B07D110F8013B11F8014B1B1B01D11E
:10033000921EF1D1184610BD02F0FF0343EA0322DA
:1003400042EA024200F002B84FF000020429C0F075
:10035000128010F0030C00F01B80CCF1040CBCF1F7
:10036000020F18BF00F8012BA8BF20F8022BA1EB49
:100370000C0100F00DB85FEAC17C24BF00F8012B2E
:1003800000F8012B48BF00F8012B70474FF0000226
:1003900000B5134694469646203922BFA0E80C507B
:1003A000A0E80C50B1F12001BFF4F7AF090728BF56
:1003B000A0E80C5048BF0CC05DF804EB890028BFD2
:1003C00040F8042B08BF704748BF20F8022B11F0FB
:1003D000804F18BF00F8012B704700004FF0013C20
:1003E00050F8042B51F8043B9A4221D1A2EB0C03A4
:1003F000934313EACC1317D150F8042B51F8043B64
:100400009A4215D1A2EB0C03934313EACC130BD100
:1004100050F8042B51F8043B9A4209D1A2EB0C038B
:10042000934313EACC13DBD04FF00000704700BFBA
:10043000D01A01BAB1FA81F101F0180122FA01F0E3
:10044000CB40C1F12001DBB2C0B2C01A2CFA01F3DB
:10045000D11A914311EAC311E6D170477047704732
:10046000704753EA020C00F069802DE9F04B4FF021
:100470000006002B1FBFB3FA83F503FA05F424FA34
:1004800005F65E4012BF1643B2FA82F502FA05F491
:10049000C5F120051EBF22FA05FC44EA0C042035F4
:1004A00056EA044C4FEA144418BF641C4FF000088D
:1004B0004FF00009904271EB030C39D3002919BFAA
:1004C000B1FA81F701FA07F6B0FA80F700FA07F6F9
:1004D000C7F120071EBF20FA07FC46EA0C062037AA
:1004E000B6FBF4FCA7EB0507103F07F01F0BCBF1A1
:1004F00020060CFA0BFB2CFA06F644BFB346002686
:10050000202FA4BF5E464FF0000B5BEA060C08BF2D
:100510004FF0010B19EB0B09ABFB027C48EB060813
:10052000C01B06FB02CC0BFB03CC71EB0C01C1E73B
:100530000B46024641464846BDE8F08B13B54FF0E6
:1005400000004FF00001AFF30080BDE81C40704791
:1005500010B500F0BBFA006810BD10B5044600F0FD
:10056000B5FA046010BD70B5044685690068C1061F
:1005700001D5302600E02026C00707D070BDD4E9A1
:10058000012130469047206A401C20626D1EF6D53E
:1005900070BD70B5044685690078C00707D170BD8D
:1005A000D4E9012120209047206A401C20626D1E62
:1005B000F6D570BD09684A0501D540B27047C90536
:1005C000FCD500B2704709684A0501D5C0B2704732
:1005D000C905FCD580B2704770B50C460546012AA6
:1005E00005D02878800600D5EA69002302E00123BF
:1005F00005E05B1C934202D2E05C0028F9D1A869B7
:10060000E618C01AA861286A184428622846FFF72D
:10061000AAFF04E0D5E9012114F8010B9047B44288
:10062000F8D32846FFF7B5FF70BD00002DE9F04173
:100630000646002410687529314616A510D0FFF72C
:10064000B9FF002802DA404213A507E031688A07A3
:1006500001D512A502E0490704D511A5012401E046
:10066000FFF7B1FF00210A2206F1240709E0B0FBE1
:10067000F2FCB0FBF2F302FB1C0030307854184659
:10068000491C0028F3D123462A463046BDE8F041F4
:1006900000F065BA000000002D0000002B000000F3
:1006A0002000000011680268006A530501D5087037
:1006B0000AE0D30501D5088006E0130603D5C2176A
:1006C000C1E9000200E008600120704701694A1C8E
:1006D00002610878704700B58FB0CDE90131002183
:1006E000059105497944CDE903101146684600F0AB
:1006F00029F90FB000BD0000E5FFFFFF0A6802F80E
:10070000010B0A60704700002DE9FF5F15468A461D
:100710000446DFF8AC80F8440027D8E900103E46D4
:10072000CDE9001010E03AF816106A4602A800F071
:1007300029FE411C07D02178890603D5E2693918C2
:1007400091420DD80744761C2078800602D5E069D6
:10075000B84205DDAE42E6DB3AF816000028E2D1E9
:10076000A069C01BA0612046FFF7FDFED8E900107C
:10077000CDE90010002017E03AF818106A4602A8E8
:1007800000F000FEB0F1FF3F81460BD000250DF1D7
:10079000080B05E0D4E901211BF8050090476D1C0A
:1007A0004D45F7D308F10100B0428046E4DB206AF2
:1007B000384420622046FFF7ECFEBDE8FF9F0000B2
:1007C0009E7C00002DE9F0418046D21D22F00702F8
:1007D0000025D2E90002F52915A614D0011E72F1F8
:1007E000000106DA0023D0EB030063EB020211A63E
:1007F00008E0D8F800108B0701D50FA602E04907E2
:1008000001D50EA601251146002408F1240704E0B5
:1008100000F060F930323A55641C50EA0102F7D119
:100820002B46324621464046BDE8F04100F097B9DC
:10083000000000002D0000002B0000002000000040
:1008400030B4002100F1240408E002F00705D208CA
:10085000303542EA4372DB086554491C52EA03050D
:10086000F3D10468002310A2250707D5A40600D4FD
:1008700021B1C46901230DA2641EC46130BC00F023
:100880006EB910B5044621461068FFF79CFE02467B
:100890002046BDE810400023D2E7D21D22F0070118
:1008A000D1E90023CCE70000000000003000000088
:1008B000F0B40D460188090502D5214C7C4402E0C4
:1008C0001F4C7C440E34002100F1240608E002F0A5
:1008D0000F071209E75D42EA03721B097754491CAE
:1008E00052EA0307F3D102780023120704D5702DD2
:1008F00006D009B1022311342246F0BC00F02FB912
:1009000001231034F8E770B504460D4621461068FF
:10091000FFF759FE024629462046BDE870400023F5
:10092000C6E7D21D22F00703D3E90023C0E703681E
:10093000126843F0200303600823C3610023B7E774
:10094000007B00002DE9F05F894604464FF0000A65
:10095000DFF874B1FB44C0F820A02046E168884766
:10096000002874D0252806D0D4E901219047206AB8
:10097000401C2062F1E700265F462046E168884778
:100980002028054607DB312D05D2781910F8200CF8
:1009900008B10643F1E7B00701D526F00406C4F814
:1009A0001CA00027C4F818A02A2D09D0284602F060
:1009B000D1FE38B304EB8708303DC8F8185019E071
:1009C00059F8041B204604EB87029161E1688847CF
:1009D000012F054618D1E069002820DA26F020060C
:1009E0001DE0D8F8180000EB800005EB400030381F
:1009F000C8F818002046E1688847054602F0AAFEBC
:100A00000028EED1012F0AD02E2D08D12046E16812
:100A100088477F1C0546022F46F02006C4DBA069EC
:100A2000002803DA404246F00106A061F00701D039
:100A300026F010066C2D0BD0682D09D04C2D39D026
:100A40006A2D35D0742D35D07A2D33D016E038E0AC
:100A5000E1682F4620468847B842054609D16C2FE9
:100A600026D04FF48060E16806432046884705465B
:100A700004E06C2F1AD04FF4807006430DB3A5F13B
:100A80004100192802D8203546F400664A46294616
:100A9000204626604E46FFF763FB80B101280BD04D
:100AA000F61D26F0070000F1080956E74020E4E7AC
:100AB0008020D8E70020D6E706F104094DE7284654
:100AC00052E7206ABDE8F09F907A00000048704726
:100AD000AC04002030B5B0F10A024FEA900E71F17B
:100AE00000034EEA817EB0EB0E0061EB91014FEA0C
:100AF000101E4EEA017E10EB0E0041EB11114FEA81
:100B0000102E4EEA016E10EB0E0041EB11214FEA60
:100B1000104E4EEA014E10EB0E0041EB1141401811
:100B200041F100014FEAD00040EA41704FEAD101A3
:100B300010EB80054FEA810444EA907444EB010411
:100B40006D1944EB0404521BA3414FF0000348BF4E
:100B50000A3200D530BD401C41F1000130BD2DE905
:100B6000F0470D4699469246044600F12408016874
:100B7000880604D5E06921F01001216000E0012021
:100B8000A84201DD471B00E00027A1697A1902EBAA
:100B90000900081AA0612078C00602D42046FFF799
:100BA000E2FC002608E0D4E901211AF8060090478B
:100BB000206A401C761C20624E45F4DB2078C0067B
:100BC0000AD52046FFF7CFFC06E0D4E9012130200A
:100BD0009047206A401C2062381EA7F10107F4DC10
:100BE00007E0D4E9012118F805009047206A401C6D
:100BF0002062281EA5F10105F3DC2046FFF7C9FCA1
:100C00002078000602D50220BDE8F0870120FBE72E
:100C100070472DE9FF4F0C461E464FF0FF378BB053
:100C2000D2E90001DDF860800A908A46C1F30A55D6
:100C300005B93D46002108464FF00000BAF1000F0B
:100C400000F4400005DA00EB80004FF4400101EAB7
:100C500050004FEA9059B9F1010F00DDB9460A98EA
:100C600050EA4A000ED044F61050A5F2FF35454335
:100C70002F14B8F1000F1ED07542291E1EDDC9F1D8
:100C800000021CE0B8F1010F4FF0000001D030214C
:100C900003E0F24305E02154401CB042FBDB304648
:100CA0000022002121540B99C1F80880C1E90020DD
:100CB0000FB0BDE8F08FBD1B6D1CDEE74A4600DAC1
:100CC000694206A800F0F4FB06AB93E8070003AB0B
:100CD00083E8070050460A9900F06DFC8DE8070094
:100CE000A0F500501F3800900398002D0ADD42F255
:100CF0001F014A460844002303A90390684600F0F8
:100D0000D6FE09E0A0F500504A461F38002303A98B
:100D10000390684600F0E0FE8DE807000004000C38
:100D200003D04FF0FF30410800E01046B8F1000F4B
:100D300003D00022009215461EE0751E05D4FFF771
:100D4000C9FE303262556D1EF9D5B3460122084303
:100D500002D000227F1C04E02078302801D100223C
:100D60007F1E002A099784D01DE0112D07DAFFF7B6
:100D7000B1FE303262556D1C50EA0102F5D10843D4
:100D800002D00098C8B10EE00021681E05E0235C87
:100D9000625C63542254401E491C8142F7DBAB461F
:100DA000A81B401E0990002004F80B000B98099A1C
:100DB000C0F80880C0E9002B7AE711264FF0000840
:100DC00057E72DE9F04F88460446D21D22F007016F
:100DD00091B0D1E90001CDE90A0102F02FFC0246F1
:100DE0000B98C00F01D02D2007E02068810701D5A6
:100DF0002B2002E0202101EAC000032A099001D043
:100E0000072A05DB03464146204600F011FB0BE1B3
:100E10002078800601D5E06900E00620B8F1650F72
:100E2000814606D0B8F1660F18D0B8F1670F70D1BF
:100E300031E00020B9F1110F009001DB112301E036
:100E400009F101030AAA01A90CA8FFF7E2FEDDE9F6
:100E50000C70002609F10105834647E001204B464E
:100E600000904FF000470AAA01A90CA8FFF7D1FE95
:100E7000DDE90DB00C995D46002610B909F10100BD
:100E80000D18B9EB050003D4C0F1FF3609F10105D7
:100E9000A5EB09002BE0B9F1010F01DA4FF00109D0
:100EA0000020B9F1110F0090484601DD112300E048
:100EB00003460AAA01A90CA8FFF7ABFEDDE90C70F6
:100EC0004D4600268346207800070AD4AB4500DA59
:100ED0005D4601A8012D04DD411911F8011C3029DE
:100EE00007D04F4502DA17F1040F04DA01208246D9
:100EF0000FE06D1EEEE7002F02DCED1B3E4403E029
:100F0000781CA84200DD7D1CB81B00F1010A4FF0DF
:100F100000472078000703D4AA4501DB4FF0FF3AD1
:100F20000021B7F1004F0DF143088DF8431024D094
:100F300002202B23002F01DA7F422D230A21021EDB
:100F4000A0F1010000DC5FB197FBF1FC97FBF1F22F
:100F500001FB1C7C17460CF1300C08F801CDEEE7C4
:100F6000A8F1010003702188090501D5452100E0A1
:100F70006521A0F1010800F8011C09980FA9A1EB57
:100F80000807FF1D00B10120411901EBEA70A169BA
:100F90003844081A401EA0612078C00602D42046BA
:100FA000FFF7E1FA099828B1D4E901219047206AB6
:100FB000401C20622078C00622D52046FFF7D3FAD5
:100FC0001EE0002E04DBB34502DD01A8805D00E0D9
:100FD0003020D4E901219047206A401C2062761C11
:100FE000AAF101005FEA000A0AD100F01DFAC06808
:100FF0000168405CD4E901219047206A401C2062CE
:10100000281EA5F10105DCDC07E0D4E9012118F870
:10101000010B9047206A401C2062381EA7F101078F
:10102000F3DC2046FFF7B5FA032011B041E60000DB
:101030002DE9F04F04460D46D21D22F0070089B07D
:10104000D0E900974846394602F0F8FA0246F80F10
:1010500001D02D2307E02068810701D52B2302E072
:10106000202101EAC0038DF820300BB1012000E0FF
:101070000020032A824601D0072A04DB29462046A5
:1010800000F0D6F93FE12078800601D40D2500E07C
:10109000E569C7F30A560D2D49DA00214FEA175BBF
:1010A00008464FF00000002F00F4400007DA00EB84
:1010B00080004FF4400100EBD07001EA6000811520
:1010C000012901DD4FF0FF3100224FEA850CBCF110
:1010D000180F06D31346ACF118004FF08052C240EF
:1010E00003E04FF4801323FA0CF30CF10C0CBCF169
:1010F000200F04D3ACF1200C09FA0CF001E007FA40
:101100000CF000294FF0004801DD18B90FE00ED1B6
:1011100040450CD319EB02095F4121B9404502D18A
:101120009F4329EA0209BBEB175F00D0761C208899
:10113000000502D57B48784402E07A4878441938A3
:1011400008AA302302F80A30037C0AF10101002EBC
:101150000AF1020A53546A4602DC4FF0300101E002
:101160004FF031014FF001088DF8001002D0A6F2C7
:10117000FF3603E059EA470100D06B4E002D02DC38
:101180002178090704D54FF002082E218DF80110AF
:10119000C44600210BE0C7F303433F01C35C491C75
:1011A0006D1E02F80830052908F1010801DA002D4A
:1011B000F1DC00210CE000EB1973491C1B786D1E5B
:1011C000082902F808304FEA091908F1010801DA84
:1011D000002DF0DC21688B0602D516E0A8F101088D
:1011E000E04505DD02EB080313F8013C302BF5D098
:1011F000B8F1000F09DD02EB080313F8013C2E2BB8
:1012000003D1090701D4A8F10108002D05DD3E2115
:1012100002F808106D1E08F10108407C002E02F84B
:10122000080008F1010804DA2D20764202F80800CF
:1012300002E02B2002F808000A214FF47A7086425F
:1012400008F101080BDB96FBF0F3303302F80830AD
:1012500096FBF0F308F1010800FB136601E0642E31
:101260000CDB642096FBF0F3303302F8083096FB79
:10127000F0F308F1010800FB136601E00A2E06DB1B
:1012800096FBF1F0303002F8080008F1010896FBF7
:10129000F1F001FB1060303002F80800A16908F19C
:1012A000010808EB050202EB0A00081AA061207889
:1012B000C00602D42046FFF756F9216A08AE01EBBA
:1012C0000A00206204E0D4E9012116F8010B9047DE
:1012D000BAF1010AF7D22078C00602D52046FFF7FE
:1012E00042F96E4609E016F8010B3E280FD0D4E90A
:1012F00001219047206A401C2062B8F10108F2D217
:101300002046FFF746F909B00320BDE8F08F206AB8
:101310002844206203E0D4E90121302090476D1E6B
:10132000EBD3F8E7E172000002FCFFFF10B5436960
:1013300013B1AFF3008001E0FFF74EF9012010BDBB
:10134000127800F124010A7000224A700122EDE7B0
:1013500011684FF0FF32E9E710B5436913B1AFF3FD
:10136000008001E0FFF7D0F9012010BD128800F1E4
:10137000240182840022C2840122EDE711684FF02B
:10138000FF32E9E770B516460C46054600F044F812
:10139000036893F80101012806D0FF2C0FD8185DCF
:1013A00068B101202C7070BDD3F807013246214688
:1013B00003F2071303442846BDE8704018474FF076
:1013C000FF3070BD00487047AC0400207546FFF741
:1013D000F9FFAE4605006946534620F007008546F2
:1013E00018B020B5FEF734FFBDE820404FF00006EE
:1013F0004FF000074FF000084FF0000B21F00701FD
:10140000AC46ACE8C009ACE8C009ACE8C009ACE83F
:10141000C0098D467047000010B500F005F8001DAA
:1014200010BD00BF7548000000487047CC04002084
:101430002DE9F0411F46044603260168072A01F4FE
:10144000006004DB08B116A505E016A503E008B1AD
:1014500015A500E015A521F010002060A069C01EB0
:10146000A0610FB1401EA0612046FFF77CF84FB18C
:10147000D4E9012138469047206A401C2062C01CF4
:10148000206206E0206AFAE7D4E9012115F8010B91
:101490009047761EF8D22046FFF77BF8BDE8F08132
:1014A0004E414E006E616E00494E4600696E660008
:1014B0002DE9F047814616468AB0354878440DC874
:1014C0008DE80D0032487844801C03AC0DC884E8D8
:1014D0000D0041F69B300844372190FBF1F290FB60
:1014E000F1F5A5F1800501FB12041B3C02D5644215
:1014F000012000E00020DFF898A080460027FA4491
:10150000AAF1BE0A0EE0E0070AD03246684607EBB1
:10151000470101230AEB810100F0DEFA8DE80700A4
:1015200064107F1C002CEED1194F7F44AE3F19E0B0
:10153000E80715D007EB04100DF1180A90E80E002B
:101540008AE80E00C068F04201D19819089032462E
:10155000012306A903A800F0BFFA03AB83E8070044
:101560006D10641C002DE3D14FF001033246694633
:10157000B8F1000F03A802D000F099FA01E000F0E2
:10158000ABFAC9E90001C9F808200AB0BDE8F08744
:10159000EC6F000010B50446AFF300802046BDE8B4
:1015A0001040FEF740BE000001491820ABBEFEE728
:1015B0002600020070475FEA400C08BF91F0000F60
:1015C0004FEA8C234FEAC12243EA51514FEA1C50A3
:1015D00018BF00F5F0404FEA300018BF41F000415D
:1015E0005FEA6C5C00F02980BCF1FF3F08BF40F06F
:1015F00080407047130C06BF12044FF0100C4FF0E0
:10160000000C130E04BF12020CF1080C130F04BFE0
:1016100012010CF1040C930F04BF92000CF1020CA8
:10162000D30F04BF52000CF1010C11464FF0000221
:10163000A0F11F00A0EB0C00704711F0004F08BF95
:10164000704731F000413FF4D5AF0B0C06BF0904E1
:101650004FF0100C4FF0000C0B0E04BF09020CF100
:10166000080C0B0F04BF09010CF1040C8B0F04BF15
:1016700089000CF1020CCB0F04BF49000CF1010CE6
:10168000CCF12003A0EB0C0022FA03F302FA0CF2D7
:1016900041EA030100F10100704720F07F4C80EA2D
:1016A000030023F07F47ACEB070303F57C5300F006
:1016B000004003F1FF032DE980494FEA154B09B4BF
:1016C0004FEA144325EA0B4E24EA03480FF204269E
:1016D00006EB132749083E785FEA320203FB0667F0
:1016E000C7F5000707FB06F64FEA54374FEAD64620
:1016F00006F1020607FB066CCCF1005C4FEA1C47C2
:101700002CEA074C07FB06F40CFB06F504EB154628
:101710004FEA961634BF00204FF000404FEAD13711
:1017200006FB07FC4FEA1C4C0CFB0BF7D21B03FB20
:101730000CF761EB07010CFB0EF7B0EB074072EB07
:1017400017420CFB08F734BFA2EB0742B2EB07428B
:1017500061EB17414FEA0C444FEA910706FB07FC87
:101760004FEA1C4C0CFB0BF7B0EBC74072EB573247
:1017700003FB0CF734BFA2EBC742B2EBC74261EBED
:1017800057310CFB0EF7B0EBC70072EB57720CFB36
:1017900008F734BFA2EBC702B2EBC70261EB577187
:1017A000039F4FEA816141EA921104EBCC044FEAB6
:1017B000D1374FEA826206FB07FC42EA90124FEAF9
:1017C00080604FEA1C4C0CFB0BF7D21B03FB0CF7A1
:1017D00061EB07010CFB0EF7B0EB074072EB174211
:1017E0000CFB08F734BFA2EB0742B2EB074261EBF8
:1017F00017414FEA8C554FEA910704EB9C2406FBF6
:1018000007FC4FEA1C4C0CFB0BF7B0EBC74072EB2C
:10181000573203FB0CF734BFA2EBC742B2EBC7420F
:1018200061EB57310CFB0EF7B0EBC70072EB577250
:101830000CFB08F734BFA2EBC702B2EBC70261EBA7
:10184000577115EB4C254FEA816141EA92114FEA3D
:1018500082624FEAD13742EA901206FB07FC44F15C
:1018600000044FEA80604FEA1C4C0CFB0BF7D21BC4
:1018700003FB0CF761EB07010CFB0EF7B0EB074025
:1018800072EB17420CFB08F734BFA2EB0742B2EB36
:10189000074261EB174115EB1C154FEA813141EA14
:1018A00092414FEA823242EA90424FEA80304FEA58
:1018B0000C7644F1000448EA03434EEA0B484FF02B
:1018C000000EB2EB080C71EB030724BF62463946E9
:1018D0004EEB0E0E4FF0000B0018524149414BEBFE
:1018E0000B0BB2EB080C71EB03077BF1000B24BF71
:1018F000624639464EEB0E0E4FF0000B0018524177
:1019000049414BEB0B0BB2EB080C71EB03077BF17E
:10191000000B24BF624639464EEB0E0E51EA020719
:1019200018BF46F0010616EB0E7655F1000254F191
:10193000000103D5BDE88901BDE80088BDE8890143
:10194000BDE80048B619524141EB0101A3F1010382
:10195000704780807F7E7D7C7B7A7978777676751C
:101960007473727171706F6E6E6D6C6C6B6A6A6994
:101970006868676666656464636362616160605F2E
:101980005F5E5E5D5D5C5C5B5B5A5A5959585857A7
:10199000575656555555545453535252525151500F
:1019A00050504F4F4F4E4E4D4D4D4C4C4C4B4B4B62
:1019B0004A4A4A49494948484847474747464646A8
:1019C00045454544444444434343434242424241E3
:1019D0004141002B9C4630D477002BD01CB54FEAF8
:1019E000370703B44FF010004FF01001BAF1000FA9
:1019F00006D0BCF1000FDCBF40F0080040F0080149
:101A00004FF000000FBCBDE810400BF1010BBBF123
:101A1000010F08BF5FEA170722BF12F1010211F19F
:101A200001014FF0004143F1000300F0004043EAA0
:101A300000007047F9D35708D0E746EA064613F18D
:101A4000400F4FEA16461FDD13F1200FDFBF16438C
:101A50000A46002120335B42BED0C3F1200746EA8C
:101A6000064602FA07F74FEA164646EA0706C3F1AA
:101A7000200722FA03F201FA07F721FA03F14FF0E7
:101A8000000342EA0702A7E746EA020646EA0646DC
:101A90004FEA164646EA0106BCBF46EA0646360C41
:101AA0004FF000034FF000024FF0000194E72DE9E2
:101AB000804C9A46934670B491E8380007C831EAE2
:101AC000400C48BF34EA430C03D5FFF7E6FDFFF7AF
:101AD00080FFF0BCBDE8008C2DE9804C9A4693460F
:101AE00070B491E8380007C810F0804F08BF13F0B9
:101AF000804F03D100F005F8FFF76BFFF0BCBDE8A5
:101B0000008C20F07F4780EA030023F07F4C07EB36
:101B10000C03A3F57C5300F00040A3F1FE0392F008
:101B2000000F00F0B38095F0000F00F077802DE9F2
:101B300001494FEA11404FEA144621EA004800FBF0
:101B400006FC24EA064708FB06F607FB08F800FB3C
:101B500007F718EB06484CEB164C4FEA124B18EB04
:101B600007484FEA15464CEB174022EA0B4E0BFB99
:101B700006FC25EA06470EFB06F607FB0EFE0BFBEE
:101B800007F71EEB064E4CEB164C4FF000061EEB13
:101B9000074E4CEB174B18EB0B0840F1000018EB0D
:101BA0000E0B58EB000840F100008F1A4FF00001B7
:101BB0003CBFC943661B14BFB5EB040C00213CBFFE
:101BC000C943F61B4FEA17444EEA8E0E27EA044536
:101BD0004FEA1C4704FB07622CEA074C05FB07F79A
:101BE0000CFB05F604FB0CFC16EB074642EB174218
:101BF00016EB0C4642EB1C421BEB060658EB0202AE
:101C0000414146EA9E0601D5BDE80189B619524117
:101C100041EB0101A3F10103BDE801894FEA14453D
:101C20004FEA114724EA054621EA074C05FB07F471
:101C300006FB07F70CFB06F105FB0CFC11EB07415B
:101C400044EB17444FEA124711EB0C4144EB1C44A0
:101C500022EA074C05FB07F206FB07F70CFB06F62A
:101C600005FB0CFC16EB074642EB174216EB0C4645
:101C700042EB1C456A1854F1000148BF7047B61981
:101C8000524141EB0101A3F10103704795F0000FB0
:101C900037D04FEA11424FEA144721EA024624EABC
:101CA000074C02FB07F106FB07F70CFB06F402FBEF
:101CB0000CFC14EB074441EB17414FEA154714EBBA
:101CC0000C4441EB1C4125EA074C02FB07F506FBDF
:101CD00007F70CFB06F602FB0CFC16EB074645EB80
:101CE000174516EB0C4645EB1C42121951F1000149
:101CF00048BF7047B619524141EB0101A3F10103FE
:101D000070474FEA14454FEA114724EA054621EA95
:101D1000074C05FB07F106FB07F70CFB06F24FF03B
:101D2000000605FB0CFC12EB074241EB174112EBDE
:101D30000C4251EB1C4148BF7047921841EB010126
:101D4000A3F101037047FEE7704772B6FEE700009B
:101D500070B5044600F004F90546601C02D0044842
:101D60000078044400F0FCF8401BA042FAD370BD98
:101D7000000000202DE9F84FDFF8B8910024A9F108
:101D8000040B23460F2709F1040AABF1040EC9E046
:101D90000125A5402A40AA427DD1674ED1F804C052
:101DA000ACEB0608B44532D014DCBCF1030F3AD0DA
:101DB00009DCBCF1000F2AD0BCF1010F1CD0BCF132
:101DC000020F31D11DE0BCF1110F17D0BCF1120F81
:101DD0002AD119E0B8F5881F19D006DCB8F5803F84
:101DE00015D0B8F5801F1FD111E0B8F5001F0ED037
:101DF000B8F5041F18D10AE0CB6815E0CB681B1DAD
:101E000012E0CB6808330FE0CB680C330CE08B6832
:101E10002BB1012B4FF0080303D0456104E00423EC
:101E200002E0056100E00023FF2A01D8064601E038
:101E300000F104064FEA840501D9A5F12005D6F882
:101E4000008007FA05FC28EA0C0803FA05F548EAC1
:101E50000508C6F800804D68ED0062D5374DAE69C3
:101E600046F00106AE61AD6924F0030605F00105F8
:101E70000095334D06EB050CDCF80850A607360F2D
:101E800007FA06F825EA0805DFF8B880404503D1CF
:101E90004FF0000817E044E0DFF8AC80404502D185
:101EA0004FF001080FE0DFF8A480404502D14FF069
:101EB000020808E0DFF89880404502D14FF003089F
:101EC00001E04FF0040808FA06F848EA0508CCF8E3
:101ED00008804D68D9F80060ED024D4601D51643E3
:101EE00000E096432E604D68DAF80060AD0255467A
:101EF00001D5164300E096432E604D68DBF8006084
:101F0000AD035D4601D5164300E096432E604D6853
:101F1000DEF80060ED03754601D5164300E09643F8
:101F20002E60641C0D682A46E5407FF431AFBDE8A1
:101F3000F88F00000804014000001110001002405A
:101F40000000014000080140000C01400010014069
:101F5000001401400AB1016170470904FBE7000069
:101F600001488068704700000000002070B5040040
:101F700025D094F83D00002520B984F83C50204637
:101F800000F078FA242084F83D002068016821F0F0
:101F9000010101602068016841F40041016020688E
:101FA000016821F40041016000F0B4FB4D4A616812
:101FB000914201D84C4900E04C49884201D20120AD
:101FC00070BD4B492368B0FBF1F15E6826F03F0617
:101FD0000E435E606368934206D94FF4967359438B
:101FE0004FF47A73B1FBF3F12368491C1E6A26F0A3
:101FF0003F06314319626168914210D84900401E82
:10200000B0FBF1F2521CC2F30B02042A01D20420ED
:1020100022E0B0FBF1F0401CC0F30B001CE0A26812
:10202000F2B301EBC10303EB0116431EB3FBF6F35E
:102030005B1C43F480431B0549D092B301EBC10202
:1020400002EB0111401EB0FBF1F0401CC0F30B008D
:1020500040F4804040F400402168CA694CF6FF73A8
:102060009A431043C861D4E907100143206802680D
:1020700022F0C00211430160D4E90301014320684A
:10208000826848F2FF339A4311438160D4E9050125
:1020900008432168CA6822F0FF021043C86001E0CB
:1020A0000EE016E02068016841F00101016025643E
:1020B000202084F83D00256384F83E50002070BD48
:1020C00001EB4106431EB3FBF6F35B1CB3E70120B3
:1020D000C2E701EB4101401EB0FBF1F0401CC0F330
:1020E0000B00B7E7A086010080841E0000093D00B8
:1020F00040420F002DE9FF4F83B00025DDE9107944
:102100009A4693460446DDF848800095FFF728FF7D
:10211000064694F83D0020287CD1192301228549E8
:102120002046009600F0E6FD0028F5D194F83C002A
:1021300001286FD0012084F83C0020680168C9079D
:1021400003D1016841F0010101602068016821F4B8
:1021500000610160222084F83D00402084F83E00A8
:1021600025646762A4F82A90608D20857248E06239
:10217000CDE9008653465A462046049900F0BCFC3F
:1021800000287DD1208DDFF8B491202768B1012887
:1021900014D00228206801681ED041F480610160DB
:1021A0002068416980690090B6E0206841698169D2
:1021B0000091016841F400710160ADE020680168A0
:1021C00021F48061016072B62068416981690091E3
:1021D000016841F400710AE041F40061016072B6E7
:1021E0002068416981690091016821F48061016082
:1021F00062B691E0032868D801280CD00228434633
:102200004FF000024946204600960FD000F072FDC4
:10221000B0BB10E08BE032464146204600F010FE95
:1022200070BB20680069616A08706CE000F062FDB4
:1022300030BB72B634E02068016821F4806101602F
:1022400072B620680069616A0870606A401C60624A
:10225000208D401E2085608D401E6085384846F2E6
:10226000A8110068B0FBF1F0C0EBC00000EB8000EB
:102270000090401E009008D020684069C04300E0F4
:1022800029E040070CD50098F3E744F8305F677306
:10229000A573206940F02000206162B625731AE022
:1022A0002068016841F40071016020680069616A7A
:1022B0000870606A401C6062218D491E2185618D15
:1022C000491E618562B621681BE0324641462046C0
:1022D00000F0B6FD18B1012007B0BDE8F08F20680E
:1022E0000069616A0870606A401C6062218D491E45
:1022F0002185618D491E618521684A69D243520753
:102300000AD409690170606A401C6062208D401E19
:102310002085608D401E6085208D00287FF46AAF87
:1023200084F83D7084F83E5084F83C50D4E7022095
:10233000D2E70000020010000000FFFF04000100CF
:102340000C0000202DE9FF4F83B09A46DDE911977C
:1023500093460446DDF84080FFF702FE054694F8F8
:102360003D0020287FD119230122404920460095B5
:1023700000F0C0FC002876D194F83C00012872D00F
:10238000012084F83C0020680168C90703D1016876
:1023900041F0010101602068016821F400610160E1
:1023A000212084F83D00402084F83E000026266469
:1023B000C4F82480A4F82A90608D20852C48E0621F
:1023C000CDE9007553465A462046049900F012FCA8
:1023D00070B930E02A463946204600F069FD58B110
:1023E000206C042804D12068016841F40071016068
:1023F000012007B0BDE8F08F606A216800780861AD
:10240000606A401C6062218D491E89B22185628DFF
:10241000521E628522685369DB435B070BD469B1A6
:1024200000781061606A401C6062208D401E20852B
:10243000608D401E6085208D0028CBD12A4639460C
:10244000204600F02BFC0028CAD154F83D0B01684F
:1024500041F400710160202004F81E09E6776677D8
:102460000020C6E7FFE70220C3E7000002001000DB
:102470000000FFFF10B586B000210091019102918C
:1024800003910068104988421BD1104CA06940F0AC
:102490000800A061A069694600F0080004904FF4AC
:1024A0004060009012200190032003900848FFF73D
:1024B00061FCE06940F48000E061E06900F48000C4
:1024C000049006B010BD000000580040001002400B
:1024D000000C014002488168027811448160704715
:1024E00000000020074810B5016841F010010160AC
:1024F000032000F067F80F2000F006F800F024F841
:10250000002010BD0020024070B50D4D04464FF470
:102510007A712878B1FBF0F00A490968B1FBF0F054
:1025200000F0BEFA48B9102C07D200222146501EF6
:1025300000F028F800206C6070BD012070BD000024
:10254000000000200C0000200C4808B5816941F013
:1025500001018161816901F001010091C16941F0CE
:102560008051C161C06900F080500090044841680A
:1025700021F0E06141F00071416008BD00100240AF
:1025800000000140F0B40E4B1B680C46C3F302235D
:10259000C3F10705042D00D90425191D072901D20F
:1025A000002300E0DB1E012606FA05F1491E21404A
:1025B00099409E40761E16403143F0BC01F052B85F
:1025C0000CED00E0064900F0070208684FF6FF0333
:1025D000184040EA0220034A104308607047000098
:1025E0000CED00E00000FA052DE9F0470F4605006C
:1025F00061D0434E306800F00700B84209D230681D
:1026000020F0070038433060306800F00700B8421F
:1026100051D128683B4C810712D5400703D560682B
:1026200040F4E06060602878000703D5606840F4FB
:10263000605060606068A96820F0F0000843606046
:102640002878C00728D06868012810D0216802289F
:1026500010D0890700292EDA616821F003010143B7
:102660006160FFF77DFC804641F288390DE021680A
:102670008903EFE78901EDE7FFF772FCA0EB0801A2
:10268000494502D90320BDE8F0876068696800F019
:102690000C00B0EB810FEFD1306800F00700B842BA
:1026A0000BD9306820F0070038433060306800F004
:1026B0000700B84201D00120E5E72878400705D59A
:1026C0006068E96820F4E0600843606028780007EB
:1026D00006D56068296920F4605040EAC100606056
:1026E00000F028F86168084AC1F30311515CC84042
:1026F0000649086006480068FFF706FF0020C2E7A9
:102700000020024000100240406E00080C00002033
:10271000040000200448054900684968044AC1F3E0
:102720000221515CC84070470C000020001002409C
:10273000506E00080E4A51680E4801F00C03042B3D
:1027400011D0082B0FD10C48C1F38343C903C05CDF
:102750000AD55168084AC1F34041921E515C054AAE
:102760005043B0FBF1F07047044948437047000004
:102770000010024000127A00306E000800093D008F
:102780002DE9F84F040070D02078C04DC00749D023
:102790006868C0F38100012807D06868C0F3810031
:1027A000022809D16868C00306D52868800339D596
:1027B00060680028E7D035E06068B0F5803F0BD056
:1027C00010B1B0F5A02F11D0286820F48030286017
:1027D000286820F4802002E0286840F480302860D7
:1027E000606890B1FFF7BCFB06460AE0286840F439
:1027F00080202860F0E700BFFFF7B2FB801B642851
:1028000073D828688003F7D50CE0FFF7A9FB0646CC
:1028100005E000BFFFF7A4FB801B6428F0D8286800
:102820008003F7D420789A4E80074FF001094FF0CB
:10283000000839D5686810F00C0F07D06868C0F33D
:102840008100022809D16868C00306D4286880077F
:1028500014D52069012808D110E02069B0B1C6F86C
:102860000090FFF77DFB074605E00AE1FFF778FBE4
:10287000C01B0228C4D828688007F7D5286861697A
:1028800020F0F80040EAC10028600DE0C6F80080A2
:10289000FFF766FB074604E0FFF762FBC01B022858
:1028A00023D828688007F7D4207800072CD57948EA
:1028B000A169D9B1C0F80090FFF752FB074604E0C8
:1028C000FFF74EFBC01B02280FD8686A8007F7D5B8
:1028D00071484FF4FA510068B0FBF1F0009000BF6E
:1028E0000098411E0091FAD20EE080E0C0F800800E
:1028F000FFF736FB074604E0FFF732FBC01B022858
:1029000075D8686A8007F7D42078400760D5E869F1
:102910000027C00008D4E86940F08050E861E86909
:10292000012700F0805000905C480168C90513D46D
:102930000168834641F480710160FFF711FB824614
:1029400006E000BFFFF70CFBA0EB0A0064284ED89E
:10295000DBF80000C005F5D5E06801280AD008B111
:10296000052813D0286A20F001002862286A20F088
:10297000040002E0286A40F001002862E06841F2A9
:10298000883B98B1FFF7ECFA82460BE0286A40F0EA
:1029900004002862EEE700BFFFF7E2FAA0EB0A01AD
:1029A00059455AD8286A8007F6D50CE0FFF7D8FABF
:1029B000824605E0FFF7D4FAA0EB0A0159454CD84E
:1029C000286A8007F6D41FB1E86920F08050E861DA
:1029D000E06988B36968C1F38101022944D0022803
:1029E000C6F8608004D0FFF7BBFA044638E034E054
:1029F000FFF7B6FA074604E0FFF7B2FAC01B022859
:102A00002BD828688001F7D4206AB0F5803F05D123
:102A10006868A16820F4003008436860D4E90801C0
:102A20000843696821F4741108436860C6F860902F
:102A3000FFF796FA044606E025E000BFFFF790FA9C
:102A4000001B022809D828688001F7D51BE000BFC9
:102A5000FFF786FA001B022802D90320BDE8F88F91
:102A600028688001F4D40EE00128F7D06868226A53
:102A700000F48031914204D1616A00F47010884200
:102A800001D00120EAE70020E8E700000010024042
:102A900000004242800442420C00002000700040CE
:102AA00010B5401EB0F1807F01D3012010BD4FF062
:102AB000E02460610F21601700F0D4FD0020A061C8
:102AC00007202061002010BDFEE701684A69D2435B
:102AD00052050FD46FF480624A61002140F8301F24
:102AE000202242738173026942F004020261017381
:102AF00001207047002070472DE9F84F0446006818
:102B000089460B9D01689846174641F48061016033
:102B10002068016841F48071016000954FF0011B4D
:102B20000022594620460A9B00F0E4F84FF4007A50
:102B300040B120680068C00501D5C4F840A003205A
:102B4000BDE8F88F216809F0FE0008612B4628498E
:102B500020460A9A00F016F9F0BB206841698069A6
:102B600000902A4620460A9900F0A2F940B1206C54
:102B700004283AD12068016841F40071016034E012
:102B8000FEB2B8F1010F09D02168380A08612A465F
:102B900020460A9900F08CF90028E8D120680661E7
:102BA0002A4620460A9900F083F90028DFD12068E0
:102BB000016841F480710160009500225946204669
:102BC0000A9B00F097F80028B3D1216809F0FF00B4
:102BD00040F00100086100E007E02B460449204670
:102BE0000A9A00F0CFF80028AAD00120A8E7000038
:102BF000020001002DE9F843044600680D46DDE9B6
:102C0000089701689846164641F4807101604B466A
:102C100000224FF001112046009700F06BF848B1F8
:102C200020680068C00502D54FF4007020640320BE
:102C3000BDE8F883216805F0FE0008613B464A467E
:102C40001549204600F09EF888B9206841698069DE
:102C500000903A464946204600F02AF948B1206CD7
:102C6000042804D12068016841F40071016001204A
:102C7000DEE7F5B2B8F1010F09D02168300A08612A
:102C80003A464946204600F013F90028E7D120686B
:102C900005610020CCE700000200010070B5164677
:102CA0000D4604461EE02046FFF70FFF08B1012045
:102CB00070BD681C16D0FFF753F9801BA84200D8DE
:102CC00085B920684069C04340070BD5002044F80F
:102CD000300F20216173A073216941F0200121612F
:102CE0002073E4E720684069C0434007DBD400203C
:102CF00070BD00002DE9F047984617460D46044682
:102D0000C1F30746DDF820902AE000BFB8F1FF3F8D
:102D100026D0FFF725F9A0EB0901414502D8B8F10B
:102D2000000F1DD12068012E16D0806925EA000011
:102D30000004000C12D00020B84211D1002044F849
:102D4000300F20216173A073216941F020012161BE
:102D500020730120BDE8F0874069E7E70120EBE739
:102D60002068012E0AD0806925EA00000004000CCA
:102D700006D00020B842C9D00020EBE74069F3E755
:102D80000120F7E72DE9F047984616460D46044620
:102D90004FF000094FF0200AC1F3074723E02068F5
:102DA0004069C043400515D42068016841F40071B2
:102DB000016021686FF480604861C4F8309084F845
:102DC0003DA084F83E90216C41F00401216484F818
:102DD0003C9021E0701C06D0FFF7C2F8A0EB080081
:102DE000B04203D816B1012F1FD021E02068012F77
:102DF00015D0806925EA00000004000C18D000BF3F
:102E000044F8309F84F80DA084F80E90216941F0B9
:102E10002001216184F80C900120BDE8F087406911
:102E200025EA00000004000CEAD12068406901E0B6
:102E30002068806925EA00000004000CAFD1ECE7AF
:102E40002DE9F041002590460E460446202728E053
:102E50004069C043C0060CD454F8301B6FF010001A
:102E6000486144F810596777A577206A2062257772
:102E700014E0FFF775F8A0EB0800B04200D886B95F
:102E800020684069C04340060BD544F8305F677343
:102E9000A573206940F02000206125730120BDE862
:102EA000F08120684169C9434906D1D40020F6E782
:102EB00070B516460D4604461EE02046FFF705FE97
:102EC00008B1012070BD681C16D0FFF749F8801BBF
:102ED000A84200D885B920684069C04300060BD5D8
:102EE000002044F8300F20216173A073216941F064
:102EF000200121612073E4E720684069C043000697
:102F0000DBD4002070BD00002DE9F74F8EB00CA976
:102F100002A8CDE900010BAB03AA09A907A801F09B
:102F2000B9F820B14FF0FF3011B0BDE8F08FBDF817
:102F30000800C0057ED5039803F06AFD6FF01D04FC
:102F4000214603F036FF8246049803F061FD2146D6
:102F500003F02FFF8146059803F05AFD214603F048
:102F600028FF8046069803F053FD214603F021FF19
:102F700005460121504603F01CFF0646414603F07A
:102F800073FD07464FF04041484603F06DFD04468F
:102F9000294603F069FD394603F0D4FB03F0A6FB94
:102FA00000F020FC4FF0663B5A463D4B03F0C4F85E
:102FB00002F088FE0E9908600121404603F0F9FEF8
:102FC0004146009003F050FD07462046494603F075
:102FD0004BFD394603F014FE4FF07E5103F0B2FB77
:102FE00003F084FB07460C463046494603F03CFD9F
:102FF00006462946009803F037FD314603F0A2FB50
:1030000003F074FB3A46234600F034FE5A46244B44
:1030100003F092F802F056FE0F9908602946084620
:1030200003F022FD07464146084603F01DFD064613
:10303000494600E031E0084603F016FD04465146DB
:10304000084603F011FD214603F07CFB314603F0F6
:10305000D7FD394603F0D4FD03F048FB06460C4685
:103060004146484603F000FD07462946504603F016
:10307000FBFC394603F066FB012103F09AFE03F0E6
:1030800035FB3246234600F0F5FD5A46044B03F06B
:1030900053F802F017FE10990860002044E7000082
:1030A00066A64C4038B5684601F058FF10B14FF0A5
:1030B000FF3038BD782002F08DFC10B16FF00100B8
:1030C00038BD782001F07CFE10B16FF0020038BDF1
:1030D000642002F035FC10B16FF0030038BD00F041
:1030E000CFFF10B16FF0040038BD1948044601F05D
:1030F000E7FD0546E01C01F0E3FD45EAC005A01D23
:1031000001F0DEFD45EA801080B201F06BF910B1EC
:103110006FF0050038BD40F2731000F089FE10B169
:103120006FF0060038BD642001F0C4F810B16FF0F4
:10313000070038BD02F0F6FC10B16FF0080038BD92
:10314000012002F0FDFA0028F9D06FF0090038BD27
:103150003C00002070B586B000241848009401940B
:1031600002940394816941F020018161816901F039
:1031700020010491816941F008018161816901F0B8
:1031800008010491816941F00401816180690C4E5C
:1031900000F004004FF440750490002229463046A8
:1031A000FEF7D8FE11200095CDE90104022003901E
:1031B00069463046FEF7DEFD06B070BD00100240E5
:1031C000000C01400D4810B50B4901600C494160ED
:1031D00000214FF480428160C0E9031241618161A6
:1031E000C1610162FEF7C2FE002803D0BDE81040B5
:1031F000FEF7ABBD10BD00000058004048000020A5
:10320000A0860100FEE7FEE710B50021074C0A4644
:10321000002004EBC1131A54401CC0B28028FAD31A
:10322000491CC9B20829F3D310BD0000AC0000202E
:10323000F0B57F282AD83F2928D88418802C02D9B5
:10324000C0F18002D2B2CC18402C02D9C1F14003A7
:10325000DBB20126DFF838E087180B4414E001F0F8
:10326000070206FA02F5CA0804460EEBC21207E08E
:1032700012F804C02CEA050C02F804C0641CE4B285
:10328000A742F5D8491CC9B28B42E8D8F0BD00006E
:10329000AC00002010B500204FF47A720021491CC8
:1032A0009142FCD3401C9042F8D3FFF753FF01201A
:1032B00000F056F9BDE81040012000F059B970B592
:1032C00000240646802525FA04F0304000D0012075
:1032D00000F04EF9012000F043F9002000F040F921
:1032E000641CE4B2082CEED3012000F039F9BDE8EB
:1032F0007040002000F034B910B5012000F038F91A
:10330000012000F02DF9002000F032F9BDE8104056
:10331000002000F025B910B5002000F029F90120A7
:1033200000F01EF9BDE81040012000F021B910B5F1
:10333000FFF7B0FFAE2000F023F9D52000F020F910
:10334000802000F01DF9A82000F01AF93F2000F0BD
:1033500017F9D32000F014F9002000F011F94020F3
:1033600000F00EF9A12000F00BF9C82000F008F9D8
:10337000DA2000F005F9122000F002F9812000F0B7
:10338000FFF8CF2000F0FCF8D92000F0F9F8F12088
:1033900000F0F6F8DB2000F0F3F8302000F0F0F851
:1033A000A42000F0EDF8A62000F0EAF88D2000F04F
:1033B000E7F8142000F0E4F8AF2000F0E1F8FFF7A0
:1033C00023FFBDE8104000F0B7B80FB470B588B067
:1033D00014460D46064610AA68460F99FCF76EFF84
:1033E00023466A462946304600F090F808B070BC83
:1033F0005DF814FB10B50C4640F0B00000F0C0F8CA
:10340000102040EA141000F0BBF804F00F00BDE8F3
:10341000104000F0B5B8000018B5A2F120045F2CF0
:103420000ED2082B0DD0062B0AD10A4B02EB42021A
:1034300003EB4202C03A00920823062200F00EF885
:1034400018BD054B03EB0212A2F500721023009287
:103450000822F3E792800008A27A00082DE9FC4FC9
:103460001F4615460C4606467F284AD83F2C48D8AA
:10347000FFF7DEFE781EC117002300EB517001211B
:10348000DFF884B004F0070901EBE00737E0002023
:1034900031E031187F2930D803EBD40ABAF1070F95
:1034A0002FD80BEBCA1E03FB05F21EF801C00192D8
:1034B000DDF82C808044CDF8008012F8082002FA54
:1034C00009F24CEA020C0AF101020EF801C0072AC7
:1034D0000FD80EEB0108DDE900C198F8802011F843
:1034E0000CC0C9F108012CFA01FC42EA0C0288F870
:1034F0008020401CC0B2A842CBD35B1CDBB29F42F1
:10350000C5DCBDE8FC8F0000AC0000202DE9F041D7
:103510001E46154688460746002408E004FB067050
:10352000C0B233464146FFF777FF641CE4B22A5D20
:10353000002AF3D1BDE8F08170B5084D00240021C8
:103540002046FFF757FF05EBC410802100F029F853
:10355000641CE4B2082CF2D370BD0000AC00002063
:1035600002464FF480710148FEF7F4BC000C0140A4
:1035700002464FF400710148FEF7ECBC000C01401C
:1035800010B50446FFF7B8FE7820FFF798FE00203C
:10359000FFF795FE2046FFF792FEBDE81040FFF7CB
:1035A000BABE70B50D460646FFF7A6FE7820FFF7B7
:1035B00086FE4020FFF783FE002404E0305DFFF725
:1035C0007EFE641CE4B2AC42F8D3BDE87040FFF765
:1035D000A2BE70477047FEF77DBF30B58FB028217F
:1035E0006846FCF7D3FE14210AA8FCF7CFFE0121A0
:1035F0000804CDE900100024029402250491CDE9CD
:1036000007504FF4E01009906846FFF7B9F808B189
:1036100072B6FEE70F20CDE90A054FF48060CDE9D0
:103620000C4002210AA80E94FEF7DEFF002801D00C
:1036300072B6FEE70FB030BD7047FEE7490050EAB2
:10364000C12018BF04204A0D18BF40F0010040F20D
:10365000FF72B2EB515F08BF40F00200012808BFC3
:10366000052070470907090E002804DB00F1E0205F
:1036700080F80014704700F00F0000F1E02080F89F
:10368000141D70472DE9F0414F1E00EBC7010446A1
:10369000D1E9000115461E4637F006020DD02A4634
:1036A000334602F049FD7F1E04EBC703D3E9002334
:1036B00002F03AFB37F00602F1D1022F25D0042F99
:1036C00013D0062F18BFBDE8F0812A46334602F01A
:1036D00033FDD4E90A2302F027FB2A46334602F0E1
:1036E0002BFDD4E9082302F01FFB2A46334602F0E3
:1036F00023FDD4E9062302F017FB2A46334602F0E5
:103700001BFDD4E9042302F00FFB2A46334602F0E6
:1037100013FDD4E9022302F007FB2A46334602F0E8
:103720000BFDD4E90023BDE8F04102F0FDBA01220F
:1037300003F011BB02F0F8BA0022134610461146FE
:1037400002F0A2BB024A0020110703F004BB0000F4
:1037500001FDFFFF30380A2801D201207047002008
:10376000704700002DE9FE4F07460E4600256846CB
:1037700000F0DCFF00246FF00F0AE8464FF001096B
:1037800057F8240056F82410401A00D5404203F0A0
:103790003FF9514603F00DFB58F8241011F0FF4F8C
:1037A0000BD003F037F84FF07E5103F029FA0A49A5
:1037B00020F00040884205DC07E008490844084939
:1037C000884202D309FA04F00543641C032CD7DBBA
:1037D0002846BDE8FE8F0000295C0F3E666666C184
:1037E0009A99D9002DE9F04D8D4F21F0004A86B00D
:1037F00005460C46BA452ADBAAEB070028430AD047
:103800008848824501DC1AD1CDB106B02846BDE812
:10381000F04DFFF78CBF844A844B284602F08CFCA5
:1038200007460E46824A834B2846214602F084FC16
:1038300006B03A463346BDE8F04D02F075BA0120B5
:10384000FCF78BFE06B0BDE8F04DFFF775BF7A4878
:10385000824542DABAF1795F0BDA2846FFF7EEFECD
:10386000042808BFFFF76EFF284606B02146BDE8D2
:10387000F08D2A460B46104602F05EFC8346024657
:103880006E480E460B4606217844FFF7FBFE5A466B
:10389000334602F051FC804669488A465A46334610
:1038A00004217844FFF7EEFE5A46334602F044FC0A
:1038B00000223B4602F038FA02460B46404651468B
:1038C00002F0E2FA2A46234602F036FC06B02A4607
:1038D0002346BDE8F04D02F027BA284624F0004107
:1038E00000223D463B4602F025FD4FF0FF3203F03B
:1038F00032FA0646024653480F460B4606217844E4
:10390000FFF7C0FE32463B4602F016FCCDE900014F
:103910004D4832463B4604217844FFF7B3FE324619
:103920003B4602F009FC00222B4602F0FDF98346DB
:1039300002913046394602F073F9804643480D46FD
:10394000504517DCDDE900015A46029B02F09CFA63
:1039500042462B4602F0F0FB42462B4602F0E4F9C9
:10396000012203F0F8F9304A304B02F0D5FD304A1D
:10397000304B4CE04FF0000A52460B46404602F0F6
:10398000D3F9CDE9031052462B461046194602F0F2
:10399000D3FB32463B4602F0CDFCDDE9033202F0B8
:1039A00073FA06460F46DDE900015A46029B02F013
:1039B0006BFA8346009101223046394603F0CBF979
:1039C000194A1A4B02F0B6FC06460F460122404641
:1039D000294603F0C0F95A46009B02F0ADFB32467F
:1039E0003B4602F099FD06460F4601225046294605
:1039F00003F0B1F90E4DDFF858802A46434602F035
:103A000099FC32463B4602F095FC2A46434602F0BA
:103A100091FC002CD8BF81F0004106B0BDE8F08DCC
:103A20000000F03F0000F07F075C143326A6913CB5
:103A3000182D4454FB21F93F0000E03F444A0000A8
:103A40005A4A0000CE490000E44900003333EF3FFA
:103A5000FB21E93F2DE9F84F04460D4621F00040D7
:103A600000917349814211DC7249884201DC06D120
:103A70002CB120462946BDE8F84FFFF758BE6E48E6
:103A8000002DCCBF6D496E49BDE8F88F6D4981426C
:103A900011DD6D498142D8BF4FF0FF366DDD204604
:103AA0002946FFF7CBFD042808BFFFF74BFE204651
:103AB0002946BDE8F88F6549654F25F000458142EC
:103AC00033DD6449814219DD002632464FF08043E0
:103AD0002046294602F028F980468A4601222046DF
:103AE000294603F038F900223B4602F015FD424614
:103AF000534602F0C9F904460D463EE00126002275
:103B0000BA463B462046294602F00EF980460F464B
:103B1000002253462046294602F0FEFC42463B4620
:103B200002F0B2F904460D4627E04B4981421BDD05
:103B3000DFF828A10226002253462046294602F03B
:103B4000FBFA00223B4602F0EFF880460F460022C7
:103B500053462046294602F0DFFC42463B4602F02F
:103B600093F904460D4608E0032622462B46002022
:103B70003B4902F089F904460D4622462B46104681
:103B8000194602F0D9FA8B46824602460B4602F0ED
:103B9000D3FA07460246334888460B460621784446
:103BA000FFF770FD52465B4602F0C6FA82462E4889
:103BB0008B463A46434605217844FFF763FD3A4673
:103BC000434602F0B9FA02460B46002E50465946CB
:103BD0000CDA02F0A9F822462B4602F0ADFA01B049
:103BE00022462B46BDE8F04F02F0A4BB02F09CF841
:103BF00022462B4602F0A0FA1C4A7A4402EBC60386
:103C0000D3E9002302F088FC22462B4602F084FC14
:103C1000174A7A4402EBC603D3E9002302F08AFB79
:103C2000009A002AB8BF81F00041BDE8F88F00007B
:103C3000000010440000F07F182D4454FB21F93F90
:103C4000FB21F9BF0000DC3F0000203E0000F33FF5
:103C50000000F03F0000E63F008003400000F83F16
:103C60000000F0BFE6470000A44700004247000004
:103C70000A4700002DE9F04D9446CCF1000423F0F2
:103C800000464CEA0404524F46EAD4749A468846E9
:103C900021F00042BC4206D8454240EA050442EA0F
:103CA000D474BC4204D9BDE8F04D6246FFF742BD72
:103CB000AAF14055A5F17F6555EA0C040BD002240A
:103CC00004EAAA74434DDFF810E144EAD87452EADA
:103CD000000B04D00CE0BDE8F04DFFF7BBBE002C9C
:103CE00014BF012CBDE8F08D022C30D0032C32D053
:103CF00056EA0C0B0AD0BE4220D1BA4209D126F0B6
:103D0000804622F080423346114617E000291ADB34
:103D100025E0DFF8C8B0FB44002C04BFDBE900015C
:103D2000BDE8F08D012C02BFDBE9000181F000410C
:103D3000BDE8F08D022C0AD0032C0CD0BA4212D16F
:103D4000B8F1000F0BDA23482549BDE8F08D28466D
:103D50002449BDE8F08D28467146BDE8F08D1D4828
:103D60002149BDE8F08D921B12153C2AC4BF1948A9
:103D70001D490EDCBAF1000FBEBF12F13C0F00204E
:103D8000014606DB624602F07FF821F00041FFF7B2
:103D900061FE002C08BFBDE8F08D012C04BF81F04E
:103DA0000041BDE8F08D114A114B022C07D002F002
:103DB000B3FB2A46BDE8F04D0A4B02F0ADBB02F062
:103DC000ABFB2A46BDE8F04D064B02F0B3BA00004B
:103DD0000000F07F182D4454FB2109C0E646000086
:103DE000FB21F9BFFB210940FB21F93F075C14339C
:103DF00026A6A13C08B560B120208DF8000028203F
:103E00008DF8010030208DF8020038208DF8030075
:103E100004E0A32204216846FCF78EFA6A460421D6
:103E200040F69E2001F044FE01F05EFA08BD00005D
:103E30003EB5044602208DF80000CA208DF801002E
:103E4000E3208DF8020009208DF803006A46042162
:103E5000682001F02DFEA3208DF80000610609D531
:103E6000C0218DF80110C8218DF80210C2218DF8F3
:103E7000031005E08DF801008DF802008DF80300B5
:103E800014F4C07F09D0C4218DF80410CC218DF822
:103E90000510C6218DF8061005E08DF804008DF898
:103EA00005008DF806008DF808008DF807008DF8E4
:103EB00009006A460A2140F6A72001F0F9FDA00793
:103EC0004FF0D80503D020208DF8000001E08DF8D8
:103ED00000506A46012140F6B62001F0E9FDA00637
:103EE00001D5012000E0002000F08EF814F4C07F1E
:103EF0001ED0E0050AD5B2208DF800008B208DF889
:103F00000100B6208DF802009B2009E0B0208DF85A
:103F1000000080208DF80100B4208DF80200902070
:103F20008DF803006A46042140F6A22001F0C0FD8E
:103F3000E1074FF40B6022D0F8218DF800106A469B
:103F4000012101F0B5FDFA21072000F03BFB07201D
:103F500000F006FB012000F023FB642000F0C6FB0C
:103F60004FF4FA7000F0D2FBC821254800F0C0FAE7
:103F7000282000F0D5FA0A2000F0E2FA05E08DF8DA
:103F800000506A46012101F093FDA00703D5D92016
:103F90008DF8000001E08DF800506A46012140F2E2
:103FA0003D7001F085FD600701D5012000E0002093
:103FB00000F048F8E00601D5012000E00020FFF7FE
:103FC00019FF104D44F00800688101F08DF90020C0
:103FD000A873600601D50620A87314F4C07F02D030
:103FE000A87B801DA87314F0140F02D0A87B10309A
:103FF000A873A00702D0A87B001DA87300203EBDB7
:1040000009E3CA029C0000200EB54FF4976310B17B
:1040100006A107C901E008A207CA8DE807006A46A1
:104020000921184601F044FD0EBD0000B8AAB38D69
:10403000B4980D355D000000B8AAAAAAB088C3C51F
:10404000C700000008B560B1C0208DF80000C22094
:104050008DF80100C4208DF80200C6208DF8030001
:1040600004E08B2204216846FCF766F96A460421C5
:1040700040F6982001F01CFD01F036F908BD000063
:10408000C8234FF48062024940F6F63000F0D4BFF6
:10409000AC6E00082DE9FF4F89B01746DDE91652D6
:1040A00000244D4E884681462C80A246B07B69464E
:1040B00001F082F84FF0FF3B18B158460DB0BDE853
:1040C000F08F708910F0140F3CD0009909BA21F0DC
:1040D000FF039DF803100B433B6001991B1409BAC1
:1040E00021F0FF029DF807105B430A437A600299B2
:1040F0009DF80B4009BA21F0FF012143B960039CF0
:10410000091424BA24F0FF0C9DF80F4012144CEA55
:10411000040CC7F80CC04FEA2C47494302FB02329B
:1041200007FB071111441024A1F17061B1F1007F68
:1041300004D901F0D9F8A5F800A0BEE7298841F418
:10414000807129804206694611D50A19A41D138879
:104150005BBAA8F8003053885BBAA8F8023092889E
:1041600052BAA8F804202A8842F008022A8010F4E3
:10417000C07F11D00A19A41D13885BBAA9F80030BA
:1041800053885BBAA9F80230928852BAA9F8042081
:104190002A8842F070022A80800716D00C44E0780A
:1041A00000F0C00500F03F016078C00706D0C808E5
:1041B00001F007013268491C02B19047607800079E
:1041C00003D5716809B1A8098847FDF7C9FE0C99A4
:1041D0000860002072E700009C0000202DE9FF41EC
:1041E000044603A800F034FEBDF80C00410CC303E4
:1041F0002F48028902F00300550754F8200000D52B
:104200004042C2F3C105960654F8255000D56D42D0
:10421000C2F38116D20554F8264000D56442A0FBB3
:104220000367C21702FB037200FB0120820042EA0F
:104230009670A5FB0367EA1702FB037205FB0122D8
:10424000950045EA9672A4FB0367E51705FB037327
:1042500004FB01318B0043EA9671030E8DF80030A8
:10426000030C8DF80130030A8DF802308DF803003D
:10427000100E8DF80400100C8DF80500100A8DF852
:104280000600080E8DF80800080C8DF80900080AD1
:104290008DF80A008DF807208DF80B106A460C2166
:1042A0004FF4257001F004FC04B0BDE8F08100007B
:1042B0009C00002030B5044613A285B007CA8DE8E3
:1042C00007004FF0FF35C82C16D8C820B0FBF4F11A
:1042D000491E080A8DF80C008DF80D1003AA022162
:1042E00040F2162001F0E4FB30B96A460C2140F69A
:1042F000C12001F0DDFB10B1284605B030BD0548F6
:1043000084810020F9E70000FEF2ABC4AAF1DFDFF0
:10431000BBAFDFDF9C000020F8B53049098901F010
:10432000030250F822404A0700D56442C1F3C1029B
:104330008B0650F8222000D55242C1F3811350F869
:104340002330C80500D55B42254984FB0140850028
:1043500045EA947082FB0142A40F44EA820483FB85
:104360000121950F45EA8105010E8DF80010010C21
:104370008DF80110010A8DF802108DF803006A46CD
:1043800004214FF4747001F093FB4FF0FF3688B9AD
:10439000200E8DF80000200C8DF80100200A8DF809
:1043A00002008DF803406A4604214FF4757001F055
:1043B0007FFB08B13046F8BD280E8DF80000280CB0
:1043C0008DF80100280A8DF802008DF803506A4626
:1043D00004214FF4767001F06BFBF8BD9C000020C7
:1043E00009E3CA022DE9FF4104463CA004F003039F
:1043F000006802903AA0006803903AA006683AA0CC
:10440000056802A8C15C8DF80010C4F3C101425CCC
:104410008DF80120C4F38112805C8DF8020003A89E
:10442000C35C8DF80430415C8DF80510805C8DF81C
:1044300006006A46032140F2264001F039FB4FF0A6
:10444000FF37E0BB01AA032140F22A4001F030FB14
:10445000A8BBCDE9006560070BD59DF8000040F0D2
:1044600001008DF800009DF8040040F001008DF877
:104470000400A0060BD59DF8010040F001008DF866
:1044800001009DF8050040F001008DF80500E005F1
:104490000BD59DF8020040F001008DF802009DF858
:1044A000060040F001008DF806006A4603214FF433
:1044B000886001F0FDFA10B901AA032100E004E0D0
:1044C00040F2314001F0F4FA18B1384604B0BDE8CA
:1044D000F081064804810020F8E700004CCD6C0014
:1044E0000CC92C0036567600264666009C0000203B
:1044F0004FF47A7290FBF2F008B54843010E8DF844
:104500000010010C8DF80110010A8DF802108DF8D1
:1045100003006A4604214FF4AE7001F0C9FA08BDE9
:104520000521B0FBF1F008B5010A8DF800108DF8F7
:1045300001006A4602214FF4AD7001F0B9FA08BDDE
:104540000521B0FBF1F008B5010A8DF800108DF8D7
:1045500001006A4602214FF4AC7001F0A9FA08BDCF
:1045600008B500218DF80010C10702D030218DF868
:104570000010810705D59DF8001041F00C018DF861
:104580000010400705D59DF8000040F003008DF8AD
:1045900000006A4601214FF4A47001F089FA08BDB9
:1045A00008B560B1042800D90420401E8DF8000031
:1045B0006A46012140F24F1001F07AFA08BD01204D
:1045C000F3E700002DE9FC41054640074FF0FF36B8
:1045D0007CD0B1F5C86F79D8084602F031FA3E496F
:1045E00002F018F9074601A800F014FC9DF8040039
:1045F000022806D004280DD008282ED0102865D116
:1046000034E00E21384602F0D4FB02F0E1F984B226
:10461000324907E00D21384602F0CBFB02F0D8F911
:104620002F4984B2384602F01FFA02F0D1F9210A6C
:104630008DF8001080B28DF80140010A8DF802104B
:104640008DF80300E8076C4620D0224602214FF483
:10465000EA7001F02DFAC8BB11E00C21384602F0D7
:10466000A8FB02F0B5F984B21E49DBE70B213846FE
:1046700002F09FFB02F0ACF984B21B49D2E7A21C06
:1046800002214FF4927001F013FAF8B9A8070DD582
:104690006A4602214FF4EC7001F00AFAB0B9A21C8C
:1046A00002214FF4947001F003FA78B9680710D52D
:1046B0006A4602214FF4EE7001F0FAF930B9A21CFB
:1046C00002214FF4967001F0F3F910B13046BDE8C5
:1046D000FC810020FBE7000000004843000040464A
:1046E0000000C045000040450000C0440521B0FB6B
:1046F000F1F008B5010A8DF800108DF801006A4646
:1047000002214FF4EF7001F0D3F908BD0521B0FB91
:10471000F1F008B5010A8DF800108DF801006A4625
:1047200002214FF4ED7001F0C3F908BD2DE9F0430B
:1047300085B006460522042104A88DE80700264816
:1047400001230D22406801782448FDF7D3FC18B1FD
:10475000072005B0BDE8F0839DF810101C2000EA8A
:10476000D1029DF81310DFF87890C1F301131A43BA
:104770008DF80C209DF81120C1F3810300EAD202CC
:104780001A438DF80D209DF8122001F0030100EA74
:10479000D20008430024134F8DF80E00A04603AD4D
:1047A000285D10B146F8249009E046F824800CE01A
:1047B00056F82400394602F057F946F82400285DDF
:1047C000401E10F0FF002855F2D1641CE4B2032C07
:1047D000E6D30020BDE700001000002048000020C4
:1047E0007B14AE3E1D5A843F2DE9F04F87B04FF049
:1047F000010A0C4605468DF80CA04FF000080DF19B
:104800000C098DF80D80052602214846DFF8C4B357
:104810008DE84300DBF80010DBF8040017464A7D02
:1048200001785346EC48FDF78DFD00287ED1C82065
:10483000FDF78EFA00208DF80C00B046CDF8009000
:10484000CDE901A8DBF800005E460123427CDBF8DD
:1048500004000178E048FDF775FD0028E6D1C34665
:10486000D046CA46CDE900A8CDF808B031687068D6
:10487000B1464A7901780123D748FDF763FD002846
:10488000D4D103A9CDE90018CDF808B0D9F80010AB
:10489000D9F804005E464A7D0178CA460123CE4815
:1048A000FDF750FD0028C1D1C1460DF10C08B346FB
:1048B00042468DE8040ADAF8000056460123827E5B
:1048C000DAF804000178C448FDF73CFD0028ADD1BA
:1048D000CA46C1468DE8000E30680123027970682F
:1048E0000178BD48FDF72EFD00289FD10C208DF8E2
:1048F0000C00CDF80090CDE901AB3068D84601231B
:10490000027970680178B448FDF71CFD00288DD14C
:104910000F20FDF71DFAB06A407A8DF80C00CDF833
:104920000090CDE901A83068827800E098E07068D6
:1049300001230178A848FDF705FD00288ED1B06A53
:104940000123007A8DF80C00CDF80090CDE901A884
:1049500030684278706801789F48FDF7F3FC0028C2
:104960007ED1B06A807A0FB140F0E0008DF80C0083
:10497000CDF80090CDE901A83068012382797068F4
:1049800001789548FDF7DEFC002869D127B1B06AAF
:10499000C07A40F0E00000E018208DF80C00CDF85F
:1049A0000090CDE901A831687068CB46CA790178DA
:1049B00001238948FDF7C6FC002871D117B1C82032
:1049C000FDF7C6F940208DF80C004746CDF800B041
:1049D000CDE901A73068D146D84602797068012335
:1049E00001787D48FDF7AEFCD0BB78208DF80C0037
:1049F000CDF80080CDE901973068012342797068D5
:104A000001787548FDF79EFC50BB3220FDF7A0F9F8
:104A10004FF0000ABB468DF80CA047468DE8800A8F
:104A2000306801234279706801786B48FDF78AFC91
:104A3000B0B9D94602200097CDE901093168706804
:104A4000BB460A7B0178B04601236348FDF752FB61
:104A500030B9BDF80C000C2140BAB0FBF1F000E019
:104A60001EE0C5F808A0C5F804A0C5F800A0C4F869
:104A700008A0C4F804A0C6B20027C4F800A040E013
:104A80000C21CDF800B0CDE90119D8F80010D8F804
:104A9000040001234A7B01784F48FDF72BFB20B12E
:104AA0004FF0FF3007B0BDE8F08FBDF80C00236871
:104AB00040BA01B2BDF80E00194440BA02B2BDF8C6
:104AC00010002160616840BA11446160A16800B2C1
:104AD0000844A060BDF812002B6840BA02B2BDF8CD
:104AE0001400BDF816101A442A6040BA6A6800B271
:104AF0001044686049BAA86809B208447F1CFFB234
:104B0000A860B742BCD328688322C117090441EAD0
:104B1000104100040023FBF7ADFB32460023FBF7F6
:104B2000A9FB286068688322C117090441EA104183
:104B300000040023FBF79EFB32460023FBF79AFBA1
:104B40006860A8688322C117090441EA1041000483
:104B50000023FBF78FFB32460023FBF78BFBA8609B
:104B600020684FF40065C117090441EA10410004B0
:104B70002A460023FBF77EFB32460023FBF77AFB35
:104B8000206060682A46C117090441EA1041000408
:104B90000023FBF76FFB32460023FBF76BFB6060E3
:104BA000A0682A46C117090441EA10410004002305
:104BB000FBF760FB32460023FBF75CFBA06000289C
:104BC00002DDA0F5803001E000F58030A06000201B
:104BD00068E7000010000020480000202DE9FF5F7A
:104BE0008846814603AE052003210096CDE90110D9
:104BF0002D480025012340680D2201782B48FDF740
:104C000079FA18B1072004B0BDE8F09F9DF80C00B8
:104C1000002400F01F008DF80C009DF80D006FF0CF
:104C20000F0B00F01F008DF80D009DF80E004FF0E7
:104C3000010A00F01F008DF80E0000BF59F8241083
:104C400058F82400081A00D5404201F0E1FE594608
:104C500002F0AFF80746305DC0B1154802E01549D3
:104C600001F002FF315D491E11F0FF013155F6D10F
:104C70000146384601F0CEFD4FF07E5101F0C0FFF5
:104C80000D4920F00040884205DC07E00B4838441D
:104C9000B0F1D97F02D90AFA04F00543641C032C51
:104CA000CCDB2846AFE700001000002048000020C1
:104CB0000000C84154E3853F295C0F3E0000E0BE80
:104CC00090F90010002902DD4FF00000704702DA71
:104CD0004FF00400704790F90110002902DD4FF0F9
:104CE0000100704702DA4FF00500704790F90200AA
:104CF000002802DD4FF00200704702DA4FF0060094
:104D000070474FF00700704786B0FDF7EBFBFEF7EA
:104D100064FCFEF71FFAFEF755FAFEF708FB00BF2A
:104D2000FEF7C0F904460021009019A308220846A6
:104D3000FEF74BFBFEF700FC002CF1D104AA03A9FF
:104D400002A8FEF7E1F8029801F0D0FCCDE90001DD
:104D500012A3082210210020FEF737FB039801F070
:104D6000C5FCCDE9000110A3082220210020FEF798
:104D70002CFB049801F0BAFCCDE900010DA3082238
:104D800040210020FEF721FBFEF7D6FBD6E700000E
:104D9000496E6974207265743D256400706974639E
:104DA00068203D2025660000726F6C6C203D202538
:104DB00066000000796177203D2025660000000034
:104DC0002DE9F041124C20F00101002594F8240057
:104DD00010B10020BDE8F081A07A4FF0FF3668B135
:104DE0000840277C2074884200D0354641B101201C
:104DF00000F0DAFE00F078FA38B127743046E9E7BF
:104E0000207D00B1012000F0CFFE2846E2E700003F
:104E1000100000200D494A7A42B1012A08D0022A26
:104E20000FD0032A0FD04FF0FF307047022200E06E
:104E300004220270C97C11B11106C90D0170002055
:104E400070470822F5E71022F3E700001000002069
:104E50000F494A7A42B1012A09D0022A11D0032A05
:104E600012D04FF0FF3070474FF4804201E04FF412
:104E700000520280C97C11B1C2F34E0101800020B2
:104E800070474FF48052F4E74FF40062F1E70000FE
:104E9000100000200B49097A39B1012907D00229F5
:104EA0000AD003290BD0002103E0FA2101E04FF4DE
:104EB000FA710180002070474FF47A71F9E74FF4DE
:104EC000FA61F6E7100000200A49097A41B1012988
:104ED00008D002290AD003290AD04FF0FF307047CA
:104EE000054900E005490160002070470449FAE7E0
:104EF0000449F8E71000002000000343000083424B
:104F000033330342333383410C49C97A072913D21F
:104F1000DFE801F01204060A0C0E1000BC2100E0CC
:104F200062210180002070472A21FAE71421F8E766
:104F30000A21F6E70521F4E70021F2E7100000203E
:104F4000054991F8242012B14FF0FF307047C9890C
:104F50000180002070470000100000202DE9F04380
:104F600085B080208DF80C000DF10C080527012676
:104F700040462F4C8DE8C10020683346427D606872
:104F800001782C48FDF7DEF94FF0FF39F0BB6420C3
:104F9000FCF7DEFE00258DF80C50CDF80080CDE941
:104FA000016720680123427D606801782148FDF790
:104FB000C9F958BBE574FF2004F80A0F4FF6FF71DA
:104FC00004F8020C04F8010C6070A180A07120723A
:104FD000A67026766576E572A572E5602561656145
:104FE000A576E576A5834FF4FA6000F0F1FB68B989
:104FF000022000F0CFFA48B92A2000F061FC28B95D
:10500000322000F09DFC08B9002000E006E0FFF728
:10501000D7FE18B9002000F0F9FA18B1484605B0DB
:10502000BDE8F083002000F0D5FC0020F7E7000089
:1050300010000020480000202DE9FF4FDFF89C8081
:10504000064689B098F8250015460F464FF0FF39FF
:10505000D8BBD7B3002420E0301B102800DD10207F
:1050600080B283463A1901469246204600F020FD60
:1050700058BB03AA5946204600F0FCF828BB50460E
:105080005A4603A9FBF72CF920B16FF001000DB0CF
:10509000BDE8F08F04EB0B0084B2B442DCD3280AE5
:1050A0008DF81C008DF81D500522022107A88DE8FF
:1050B0000700D8F8000044460123427FD8F80400D6
:1050C00001780748FDF73EF908B14846DFE70120BF
:1050D00084F825000C98E0840020D8E71000002018
:1050E000480000202DE9FF5F0546282851D80026FA
:1050F0002F4C0DF10C094FF007084FF0050A02275D
:105100007DB1012000F0A2FB20208DF80C004FF0B3
:10511000010B012D1BD0052D1CD88DF80DB00520DD
:1051200022E0002000F092FBCDE900978DF80C60A2
:105130008DF80D80CDF808A020680123427D6068BD
:1051400001781C48FDF7FEF818BB26752EE08DF897
:105150000D60E4E7142D03D88DF80D700A2003E0EC
:1051600003208DF80D00142000F0AAFB9DF80D100F
:10517000CDE9009708EB81108DF80D00CDF808A05F
:1051800020680123427D606801780A48FDF7DAF85B
:1051900020B14FF0FF3004B0BDE8F09F0820A072AE
:1051A000267384F814B00020FFF70AFE0020F2E70F
:1051B00010000020480000202DE9FF5F2B4C064620
:1051C000904694F824008B464FF0FF3AB8B3A07A8B
:1051D000A8B30DF10C090527022148468DE883008C
:1051E00020680123027B606801782148FCF782FF78
:1051F00028BBBDF80C0045BAB54203D2002188F89F
:1052000000102AE060684188B5EB510F18D90122DF
:10521000CDF80090CDE9012721680123CA7C0178EF
:105220001348FCF767FF50B99DF80C00C00607D57E
:1052300000F05AF86FF0010004B0BDE8F09F0CE0F8
:10524000CDF800B0CDE9016720680123427B60689A
:1052500001780748FCF74EFF08B15046ECE7B5FB74
:10526000F6F0401E88F800000020E5E7100000205E
:10527000480000202DE9FF4115000E464FF0FF3792
:1052800029D0174CA17A31B3010A8DF80C10C0B2A5
:105290008DF80D0081196068428991421BD8022265
:1052A00003ABCDE900324FF00508CDF80880216846
:1052B0000123CA7E01780B48FDF744F858B98DE800
:1052C000600120680123027E606801780548FCF7D0
:1052D00011FF002800D0384604B0BDE8F08100007E
:1052E00010000020480000202DE9FF476B4C4FF0D4
:1052F000FF3AA07A00287DD000270DF10C088DF828
:105300000C700526012540468DE8610020682B467B
:10531000427C606801786248FDF714F8002869D182
:10532000CDF80080CDE901562168606801234A79F3
:1053300001785B48FDF706F800285BD1CDF80080C6
:10534000CDE901562168606801230A790178544843
:10535000FCF7F8FF00284DD194F8240088B30C2006
:105360008DF80C00CDF80080CDE9015620680123AE
:105370000279606801784A48FCF7E4FF002839D1D7
:105380003220FCF7E5FCC0208DF80C00A07AC007A5
:1053900002D0E0208DF80C00CDF80080CDE9015658
:1053A0002068C14601230279606801783C48FCF717
:1053B000C9FF00286DD1607C20B102208DF80C005F
:1053C00002E018E08DF80C70CDE90095B046CDF8FC
:1053D000088020684E460123427C6068017830488E
:1053E000FCF7B0FF30B9CDE900658DF80C70CDF851
:1053F000088044E04DE004208DF80C00CDF80080DA
:10540000CDE90156206801230279606801782448BB
:10541000FCF798FFE8BBA07CA0B9A07AC00711D028
:105420005FF060008DF80C00CDF80080CDE90156EA
:10543000206801230279606801781948FCF782FF2F
:1054400038BB01E04020EDE73220FCF781FC607CB6
:1054500010B18DF80C5001E08DF80C70CDF8008083
:10546000CDE9015620680123427C606801780C4830
:10547000FCF768FF68B9094810308DE861002068C2
:1054800001234279606801780548FCF75BFF00283A
:1054900000D0504604B0BDE8F087000010000020A6
:1054A000480000202DE9F047394C82468AB094F834
:1054B0002400894620B1002000F042F9012600E0D6
:1054C000002607A8FFF7E6FC06A8FFF7A3FC09A83B
:1054D000FFF71AFD08A8FFF733FD94F80A80277C30
:1054E0000025002249465046FFF77EF910B16D1C99
:1054F000022DF6DB022D1AD00025012203A96846F1
:10550000FFF772F910B16D1C022DF6DB022D0ED0E3
:1055100003A94846FEF726F9C5B269465046FFF78B
:105520005DFB10F0FF0F4FF0000002D002E00025FD
:1055300005E001200DB940F0020040F00405FF2015
:1055400020726072E0724FF6FF71E181A0722074E8
:1055500001202073BDF81C0000F03AF99DF81800F6
:1055600000F018F8BDF8240000F0AAF9BDF82000FA
:1055700000F0E6F9404600F02DFA3846FFF720FC2F
:1055800016B1012000F0DCF80AB02846BDE8F0872B
:10559000100000207FB51B4C4FF0FF35A17A49B3B6
:1055A000022806D0042806D008280ED0102821D1C1
:1055B0000DE0002000E008208DF80C00607A9DF8D6
:1055C0000C10B0EBD10F04D006E01020F4E7182047
:1055D000F2E7002004B070BD0522012103A88DE888
:1055E000070020680123C279606801780648FCF74B
:1055F000A9FE08B12846EDE79DF80C00C0086072CE
:10560000E7E7000010000020480000202DE9FF47D8
:10561000494C0746A07CB84203D1002004B0BDE845
:10562000F08745484FF0FF3A0525D0E900104FF0CC
:10563000010803AECFB30096CDE901850A79017860
:1056400001233E48FCF756FD002871D19DF80C005F
:10565000CDE9006820F02000A9468DF80C00CDF8B7
:105660000890206845460123027960680178334834
:10567000FCF768FEF0BB0320FCF76AFB02208DF804
:105680000C0094F8220010B182208DF80C0094F8E0
:10569000230028B19DF80C0040F030008DF80C007C
:1056A000CDE90065CDF8089039E0FFE7CDE9006865
:1056B00002950A79017801232048FCF71BFDC8B93F
:1056C000A07AC0079DF80C0002D040F0200001E055
:1056D00020F02000A9468DF80C0035468DE8200307
:1056E000206801230279606801781448FCF72AFEDB
:1056F00000B900E01CE00320FCF72AFB94F822002C
:1057000000B180208DF80C0094F8230028B19DF89A
:105710000C0040F030008DF80C008DE8200320686C
:105720000123C27D606801780448FCF70BFE08B1D4
:10573000504673E7A77470E710000020480000206F
:105740002DE9FF41204C94F82410814222D00026FC
:105750000527012528B394F82500F8B1002000F0B2
:1057600023FA0020FFF752FFE08C00F0E9F88DF8F3
:105770000C6003A88DE8A100606801232322017852
:105780001248FCF7DFFD84F82450012000F00CFAE9
:10579000FFF7AAFD002004B0BDE8F0814FF0FF3014
:1057A000F9E7002000F000FA207C8DF80C0003A837
:1057B0008DE8A10060680123232201780348FCF7EB
:1057C000C1FD84F82460E3E71000002048000020B9
:1057D0007FB51C4C4FF0FF35A17A61B3FA2809D090
:1057E000B0F5FA7F08D0B0F57A7F0FD0B0F5FA6F38
:1057F00021D10DE0002000E008208DF80C00207A77
:105800009DF80C10B0EBD10F04D006E01020F4E7A7
:105810001820F2E7002004B070BD0522012103A882
:105820008DE80700206801238279606801780648C6
:10583000FCF788FD08B12846EDE79DF80C00C0088C
:105840002072E7E710000020480000207FB51A4CC6
:10585000054694F82300A84202D1002004B070BD90
:105860000DB1302000E000208DF80C00A07C28B1A4
:105870009DF80C0040F002008DF80C0094F8220016
:1058800028B19DF80C0040F080008DF80C00052236
:10589000012103A88DE8070020680123C27D60680C
:1058A00001780648FCF74EFD10B14FF0FF30D5E708
:1058B00084F82350D1E700001000002048000020A9
:1058C0007FB51D4C4FF0FF35A17A71B30121052240
:1058D000BC2802D38DF80C1013E0622801D30220FB
:1058E0000DE02A2801D3032009E0142801D3042065
:1058F00005E00A2802D38DF80C2002E006208DF87E
:105900000C00E07A9DF80C30984202D1002004B0DF
:1059100070BD03A88DE807002068012382786068C5
:1059200001780648FCF70EFD08B12846EFE79DF820
:105930000C00E072EAE700001000002048000020A0
:105940002DE9FF41214D04464FF0FF37A87A70B38F
:1059500095F8240058BB287D4FF47A7648B164B19D
:10596000282C03D82046FFF7BDFB2DE00020FFF7D1
:10597000B9FB042C05D2042406E00020FFF7B2FB9B
:10598000F9E7B44200D93446B6FBF4F0401E8DF876
:105990000C000522012103A88DE8070028680123D7
:1059A0004278686801780A48FCF7CCFC18B13846A0
:1059B00004B0BDE8F0819DF80C00401CB6FBF0F08F
:1059C000E8814008FFF77CFF0020F1E7100000208D
:1059D000480000202DE9FF47054610F0700F4FF0FA
:1059E00001074FF0000602D08DF80C7006E015B1EB
:1059F0008DF80C6002E040208DF80C000DF10C09D0
:105A00004FF005084946284C8DE8820120680123A3
:105A1000427D606801782548FCF794FC4FF0FF3A1E
:105A200080BB9DF80C0020F0400020738DF80C60C6
:105A3000680602D404208DF80C00A80605D49DF851
:105A40000C0040F002008DF80C00E80605D49DF82B
:105A50000C0040F001008DF80C00280705D49DF8DB
:105A60000C0040F038008DF80C00CDF80090CDE926
:105A7000017820680123827D606801780B48FCF77B
:105A800061FC20B1A672504604B0BDE8F08725B194
:105A9000082D02D00020FFF7D9FEA572267532200E
:105AA000FCF756F90020EFE7100000204800002026
:105AB0002DE9FF4115000E464FF0FF3729D0174C56
:105AC000A17A31B3010A8DF80C10C0B28DF80D0027
:105AD00081196068428991421BD8022203ABCDE94B
