:020000040800F2
:10000000E80B00203502000893370008A9340008E7
:10001000913700088B1B00082941000800000000F0
:10002000000000000000000000000000493B000844
:10003000CD1C000800000000473B00084B3B0008B7
:100040004F0200084F0200084F0200084F0200084C
:100050004F0200084F0200084F0200084F0200083C
:100060004F0200084F0200084F0200084F0200082C
:100070004F0200084F0200084F0200084F0200081C
:100080004F0200084F0200084F0200084F0200080C
:100090004F0200084F0200084F0200084F020008FC
:1000A0004F020008B93B00084F020008AD3B0008B2
:1000B0004F0200084F0200084F0200084F020008DC
:1000C0004F0200084F0200084F0200084F020008CC
:1000D0004F0200081D4100084F0200084F020008AF
:1000E0004F0200084F0200084F02000800F002F81B
:1000F00000F090F80AA090E8000C82448344AAF132
:100100000107DA4501D100F085F8AFF2090EBAE82F
:100110000F0013F0010F18BFFB1A43F0010318473B
:10012000384E0000584E0000103A24BF78C878C1FD
:10013000FAD8520724BF30C830C144BF04680C60ED
:10014000704700000023002400250026103A28BF35
:1001500078C1FBD8520728BF30C148BF0B60704739
:100160006E2900F0C581702900F00783662904F02C
:100170004782652904F04482672904F0418261299D
:1001800004F0408203681B0A28BF41F080016929FE
:1001900000F07281642900F06F81752900F06C8194
:1001A0006F2900F09482782900F0D382E92900F0C9
:1001B0002F82E42900F02C82F52900F02982EF2912
:1001C00000F09182F82900F0D2820368DB0928BF91
:1001D00041F08001632900F0D587732900F0DA87A8
:1001E000E32900F0E587F32900F0EA870020704753
:1001F0001FB501F03BF804000020002104F032F8A4
:10020000401C60600020002104F016F8E0601FBD73
:1002100010B510BD00F0FCFF1146FFF7E9FF03F039
:10022000F2FF01F0D9F803B4FFF7F2FF03BC01F0CD
:10023000DDF800000948804709480047FEE7FEE76F
:10024000FEE7FEE7FEE7FEE7FEE7FEE7FEE7FEE786
:1002500004480549054A064B70470000AB3B0008BF
:10026000ED000008E8050020E80B0020E80700206A
:10027000E80700201CB50C46064B7B4469460090FD
:10028000204600F04EF904460020694600F05CF973
:1002900020461CBDCB0200004FF000020429C0F034
:1002A000128010F0030C00F01B80CCF1040CBCF1A8
:1002B000020F18BF00F8012BA8BF20F8022BA1EBFA
:1002C0000C0100F00DB85FEAC17C24BF00F8012BDF
:1002D00000F8012B48BF00F8012B70474FF00002D7
:1002E00000B5134694469646203922BFA0E80C502C
:1002F000A0E80C50B1F12001BFF4F7AF090728BF07
:10030000A0E80C5048BF0CC05DF804EB890028BF82
:1003100040F8042B08BF704748BF20F8022B11F0AB
:10032000804F18BF00F8012B704700004FF0013CD0
:1003300050F8042B51F8043B9A4221D1A2EB0C0354
:10034000934313EACC1317D150F8042B51F8043B14
:100350009A4215D1A2EB0C03934313EACC130BD1B1
:1003600050F8042B51F8043B9A4209D1A2EB0C033C
:10037000934313EACC13DBD04FF00000704700BF6B
:10038000D01A01BAB1FA81F101F0180122FA01F094
:10039000CB40C1F12001DBB2C0B2C01A2CFA01F38C
:1003A000D11A914311EAC311E6D1704770477047E3
:1003B000704770B5044685690068C10601D53026CE
:1003C00000E02026C00707D070BDD4E901213046E7
:1003D0009047206A401C20626D1EF6D570BD70B536
:1003E000044685690078C00707D170BDD4E90121B2
:1003F00020209047206A401C20626D1EF6D570BDFB
:1004000009684A0501D540B27047C905FCD500B25C
:10041000704709684A0501D5C0B27047C905FCD5C7
:1004200080B2704770B50C460546012A05D0287881
:10043000800600D5EA69002302E0012305E05B1C89
:10044000934202D2E05C0028F9D1A869E618C01AEC
:10045000A861286A184428622846FFF7AAFF04E02A
:10046000D5E9012114F8010B9047B442F8D328468E
:10047000FFF7B5FF70BD00002DE9F04106460024EE
:1004800010687529314616A510D0FFF7B9FF00286E
:1004900002DA404213A507E031688A0701D512A5A8
:1004A00002E0490704D511A5012401E0FFF7B1FFDF
:1004B00000210A2206F1240709E0B0FBF2FCB0FBA0
:1004C000F2F302FB1C00303078541846491C002817
:1004D000F3D123462A463046BDE8F04100F061BA28
:1004E000000000002D0000002B0000002000000094
:1004F00011680268006A530501D508700AE0D30547
:1005000001D5088006E0130603D5C217C1E9000231
:1005100000E008600120704701694A1C0261087808
:10052000704700B58FB0CDE9013100210591054933
:100530007944CDE903101146684600F029F90FB05F
:1005400000BD0000E5FFFFFF0A6802F8010B0A602A
:10055000704700002DE9FF5F15468A460446DFF824
:10056000AC80F8440027D8E900103E46CDE90010E1
:1005700010E03AF816106A4602A800F025FE411C69
:1005800007D02178890603D5E269391891420DD840
:100590000744761C2078800602D5E069B84205DD64
:1005A000AE42E6DB3AF816000028E2D1A069C01B93
:1005B000A0612046FFF7FDFED8E90010CDE900104C
:1005C000002017E03AF818106A4602A800F0FCFD77
:1005D000B0F1FF3F81460BD000250DF1080B05E07F
:1005E000D4E901211BF8050090476D1C4D45F7D358
:1005F00008F10100B0428046E4DB206A3844206202
:100600002046FFF7ECFEBDE8FF9F0000F648000023
:100610002DE9F0418046D21D22F007020025D2E9E3
:100620000002F52915A614D0011E72F1000106DAA8
:100630000023D0EB030063EB020211A608E0D8F818
:1006400000108B0701D50FA602E0490701D50EA6C1
:1006500001251146002408F1240704E000F05CF9AC
:1006600030323A55641C50EA0102F7D12B4632462B
:1006700021464046BDE8F04100F093B9000000007B
:100680002D0000002B0000002000000030B40021ED
:1006900000F1240408E002F00705D208303542EAF0
:1006A0004372DB086554491C52EA0305F3D1046820
:1006B000002310A2250707D5A40600D421B1C469E0
:1006C00001230DA2641EC46130BC00F06AB910B5EC
:1006D000044621461068FFF79CFE02462046BDE80E
:1006E00010400023D2E7D21D22F00701D1E90023F8
:1006F000CCE700000000000030000000F0B40D4620
:100700000188090502D5214C7C4402E01F4C7C4441
:100710000E34002100F1240608E002F00F07120950
:10072000E75D42EA03721B097754491C52EA03074A
:10073000F3D102780023120704D5702D06D009B139
:10074000022311342246F0BC00F02BB901231034EF
:10075000F8E770B504460D4621461068FFF759FECC
:10076000024629462046BDE870400023C6E7D21D58
:1007700022F00703D3E90023C0E70368126843F0BF
:10078000200303600823C3610023B7E75847000034
:100790002DE9F05F894604464FF0000ADFF874B196
:1007A000FB44C0F820A02046E1688847002874D0A8
:1007B000252806D0D4E901219047206A401C2062F8
:1007C000F1E700265F462046E16888472028054675
:1007D00007DB312D05D2781910F8200C08B106433B
:1007E000F1E7B00701D526F00406C4F81CA00027E5
:1007F000C4F818A02A2D09D0284603F0FDFC38B310
:1008000004EB8708303DC8F8185019E059F8041B6C
:10081000204604EB87029161E1688847012F054675
:1008200018D1E069002820DA26F020061DE0D8F86B
:10083000180000EB800005EB40003038C8F81800C5
:100840002046E1688847054603F0D6FC0028EED133
:10085000012F0AD02E2D08D12046E16888477F1C41
:100860000546022F46F02006C4DBA069002803DA03
:10087000404246F00106A061F00701D026F01006C4
:100880006C2D0BD0682D09D04C2D39D06A2D35D068
:10089000742D35D07A2D33D016E038E0E1682F463C
:1008A00020468847B842054609D16C2F26D04FF420
:1008B0008060E168064320468847054604E06C2FC7
:1008C0001AD04FF4807006430DB3A5F141001928EA
:1008D00002D8203546F400664A462946204626605E
:1008E0004E46FFF73DFC80B101280BD0F61D26F0E7
:1008F000070000F1080956E74020E4E78020D8E728
:100900000020D6E706F104094DE7284652E7206AA1
:10091000BDE8F09FE846000030B5B0F10A024FEAAA
:10092000900E71F100034EEA817EB0EB0E0061EB98
:1009300091014FEA101E4EEA017E10EB0E0041EBD2
:1009400011114FEA102E4EEA016E10EB0E0041EB32
:1009500011214FEA104E4EEA014E10EB0E0041EB12
:100960001141401841F100014FEAD00040EA4170C6
:100970004FEAD10110EB80054FEA810444EA9074FC
:1009800044EB01046D1944EB0404521BA3414FF0E6
:10099000000348BF0A3200D530BD401C41F10001C0
:1009A00030BD2DE9F0470D4699469246044600F1C8
:1009B00024080168880604D5E06921F0100121604F
:1009C00000E00120A84201DD471B00E00027A169EB
:1009D0007A1902EB0900081AA0612078C00602D437
:1009E0002046FFF7E6FC002608E0D4E901211AF8CA
:1009F00006009047206A401C761C20624E45F4DBBE
:100A00002078C0060AD52046FFF7D3FC06E0D4E9DB
:100A1000012130209047206A401C2062381EA7F137
:100A20000107F4DC07E0D4E9012118F8050090473C
:100A3000206A401C2062281EA5F10105F3DC204637
:100A4000FFF7CDFC2078000602D50220BDE8F08734
:100A50000120FBE770472DE9FF4F0C461E464FF083
:100A6000FF378BB0D2E90001DDF860800A908A463A
:100A7000C1F30A5505B93D46002108464FF0000074
:100A8000BAF1000F00F4400005DA00EB80004FF4EB
:100A9000400101EA50004FEA9059B9F1010F00DD21
:100AA000B9460A9850EA4A000ED044F61050A5F212
:100AB000FF3545432F14B8F1000F1ED07542291E93
:100AC0001EDDC9F100021CE0B8F1010F4FF000007B
:100AD00001D0302103E0F24305E02154401CB04234
:100AE000FBDB30460022002121540B99C1F808801D
:100AF000C1E900200FB0BDE8F08FBD1B6D1CDEE723
:100B00004A4600DA694206A800F0F4FB06AB93E817
:100B1000070003AB83E8070050460A9900F06DFC1C
:100B20008DE80700A0F500501F3800900398002DB5
:100B30000ADD42F21F014A460844002303A903903C
:100B4000684600F0D6FE09E0A0F500504A461F387E
:100B5000002303A90390684600F0E0FE8DE807003B
:100B60000004000C03D04FF0FF30410800E01046B5
:100B7000B8F1000F03D00022009215461EE0751E4A
:100B800005D4FFF7C9FE303262556D1EF9D5B34664
:100B90000122084302D000227F1C04E02078302884
:100BA00001D100227F1E002A099784D01DE0112D5B
:100BB00007DAFFF7B1FE303262556D1C50EA0102D0
:100BC000F5D1084302D00098C8B10EE00021681E9C
:100BD00005E0235C625C63542254401E491C814240
:100BE000F7DBAB46A81B401E0990002004F80B0061
:100BF0000B98099AC0F80880C0E9002B7AE7112603
:100C00004FF0000857E72DE9F04F88460446D21D03
:100C100022F0070191B0D1E90001CDE90A0103F00A
:100C2000C7FA02460B98C00F01D02D2007E02068BC
:100C3000810701D52B2002E0202101EAC000032A10
:100C4000099001D0072A05DB03464146204600F003
:100C500011FB0BE12078800601D5E06900E0062059
:100C6000B8F1650F814606D0B8F1660F18D0B8F11B
:100C7000670F70D131E00020B9F1110F009001DB56
:100C8000112301E009F101030AAA01A90CA8FFF749
:100C9000E2FEDDE90C70002609F10105834647E01C
:100CA00001204B4600904FF000470AAA01A90CA86A
:100CB000FFF7D1FEDDE90DB00C995D46002610B9B5
:100CC00009F101000D18B9EB050003D4C0F1FF369E
:100CD00009F10105A5EB09002BE0B9F1010F01DADB
:100CE0004FF001090020B9F1110F0090484601DDD5
:100CF000112300E003460AAA01A90CA8FFF7ABFEE6
:100D0000DDE90C704D4600268346207800070AD4A2
:100D1000AB4500DA5D4601A8012D04DD411911F84B
:100D2000011C302907D04F4502DA17F1040F04DA0D
:100D3000012082460FE06D1EEEE7002F02DCED1B66
:100D40003E4403E0781CA84200DD7D1CB81B00F186
:100D5000010A4FF000472078000703D4AA4501DBC1
:100D60004FF0FF3A0021B7F1004F0DF143088DF825
:100D7000431024D002202B23002F01DA7F422D23A1
:100D80000A21021EA0F1010000DC5FB197FBF1FC1B
:100D900097FBF1F201FB1C7C17460CF1300C08F8B4
:100DA00001CDEEE7A8F1010003702188090501D506
:100DB000452100E06521A0F1010800F8011C099817
:100DC0000FA9A1EB0807FF1D00B10120411901EB9C
:100DD000EA70A1693844081A401EA0612078C00654
:100DE00002D42046FFF7E5FA099828B1D4E9012199
:100DF0009047206A401C20622078C00622D52046F9
:100E0000FFF7D7FA1EE0002E04DBB34502DD01A890
:100E1000805D00E03020D4E901219047206A401C29
:100E20002062761CAAF101005FEA000A0AD100F0F4
:100E30001DFAC0680168405CD4E901219047206A2E
:100E4000401C2062281EA5F10105DCDC07E0D4E986
:100E5000012118F8010B9047206A401C2062381EBF
:100E6000A7F10107F3DC2046FFF7B9FA032011B020
:100E700041E600002DE9F04F04460D46D21D22F058
:100E8000070089B0D0E900974846394603F090F949
:100E90000246F80F01D02D2307E02068810701D515
:100EA0002B2302E0202101EAC0038DF820300BB192
:100EB000012000E00020032A824601D0072A04DB3B
:100EC0002946204600F0D6F93FE12078800601D47B
:100ED0000D2500E0E569C7F30A560D2D49DA00211A
:100EE0004FEA175B08464FF00000002F00F4400067
:100EF00007DA00EB80004FF4400100EBD07001EA0C
:100F000060008115012901DD4FF0FF3100224FEA19
:100F1000850CBCF1180F06D31346ACF118004FF046
:100F20008052C24003E04FF4801323FA0CF30CF11B
:100F30000C0CBCF1200F04D3ACF1200C09FA0CF01E
:100F400001E007FA0CF000294FF0004801DD18B964
:100F50000FE00ED140450CD319EB02095F4121B9D6
:100F6000404502D19F4329EA0209BBEB175F00D03D
:100F7000761C2088000502D57B48784402E07A4838
:100F80007844193808AA302302F80A30037C0AF1A1
:100F90000101002E0AF1020A53546A4602DC4FF0A6
:100FA000300101E04FF031014FF001088DF80010E1
:100FB00002D0A6F2FF3603E059EA470100D06B4E9B
:100FC000002D02DC2178090704D54FF002082E21FC
:100FD0008DF80110C44600210BE0C7F303433F0125
:100FE000C35C491C6D1E02F80830052908F1010890
:100FF00001DA002DF1DC00210CE000EB1973491C33
:101000001B786D1E082902F808304FEA091908F10B
:10101000010801DA002DF0DC21688B0602D516E00C
:10102000A8F10108E04505DD02EB080313F8013CD7
:10103000302BF5D0B8F1000F09DD02EB080313F8EF
:10104000013C2E2B03D1090701D4A8F10108002D82
:1010500005DD3E2102F808106D1E08F10108407CF4
:10106000002E02F8080008F1010804DA2D2076426B
:1010700002F8080002E02B2002F808000A214FF4D1
:101080007A70864208F101080BDB96FBF0F33033EF
:1010900002F8083096FBF0F308F1010800FB136634
:1010A00001E0642E0CDB642096FBF0F3303302F891
:1010B000083096FBF0F308F1010800FB136601E02D
:1010C0000A2E06DB96FBF1F0303002F8080008F13A
:1010D000010896FBF1F001FB1060303002F80800C7
:1010E000A16908F1010808EB050202EB0A00081AE1
:1010F000A0612078C00602D42046FFF75AF9216A81
:1011000008AE01EB0A00206204E0D4E9012116F8E0
:10111000010B9047BAF1010AF7D22078C00602D538
:101120002046FFF746F96E4609E016F8010B3E2807
:101130000FD0D4E901219047206A401C2062B8F109
:101140000108F2D22046FFF74AF909B00320BDE8B2
:10115000F08F206A2844206203E0D4E90121302086
:1011600090476D1EEBD3F8E7323F000002FCFFFF13
:1011700010B5436913B1AFF3008001E0FFF752F9F6
:10118000012010BD127800F124010A7000224A707B
:101190000122EDE711684FF0FF32E9E710B543692E
:1011A00013B1AFF3008001E0FFF7D4F9012010BDC7
:1011B000128800F1240182840022C2840122EDE71A
:1011C00011684FF0FF32E9E770B516460C46054648
:1011D00000F044F8036893F80101012806D0FF2CC1
:1011E0000FD8185D68B101202C7070BDD3F80701CD
:1011F0003246214603F2071303442846BDE87040F7
:1012000018474FF0FF3070BD00487047840500203C
:101210007546FFF7F9FFAE4605006946534620F0D4
:101220000700854618B020B5FFF712F8BDE820404A
:101230004FF000064FF000074FF000084FF0000B92
:1012400021F00701AC46ACE8C009ACE8C009ACE845
:10125000C009ACE8C0098D467047000010B500F029
:1012600005F8001D10BD00BFFD2F000000487047AD
:10127000A40500202DE9F0411F460446032601681D
:10128000072A01F4006004DB08B116A505E016A5E5
:1012900003E008B115A500E015A521F010002060BD
:1012A000A069C01EA0610FB1401EA0612046FFF7DB
:1012B00080F84FB1D4E9012138469047206A401C9C
:1012C0002062C01C206206E0206AFAE7D4E901210E
:1012D00015F8010B9047761EF8D22046FFF77FF8ED
:1012E000BDE8F0814E414E006E616E00494E4600F1
:1012F000696E66002DE9F047814616468AB035488A
:1013000078440DC88DE80D0032487844801C03AC49
:101310000DC884E80D0041F69B300844372190FB4E
:10132000F1F290FBF1F5A5F1800501FB12041B3CE5
:1013300002D56442012000E00020DFF898A080463A
:101340000027FA44AAF1BE0A0EE0E0070AD03246AE
:10135000684607EB470101230AEB810100F0DEFA42
:101360008DE8070064107F1C002CEED1194F7F44DC
:10137000AE3F19E0E80715D007EB04100DF1180A8D
:1013800090E80E008AE80E00C068F04201D198197A
:1013900008903246012306A903A800F0BFFA03AB68
:1013A00083E807006D10641C002DE3D14FF00103AA
:1013B00032466946B8F1000F03A802D000F099FA4E
:1013C00001E000F0ABFAC9E90001C9F808200AB051
:1013D000BDE8F0873C3C000010B50446AFF3008048
:1013E0002046BDE81040FEF71EBF0000014918204E
:1013F000ABBEFEE72600020070475FEA400C08BF64
:1014000091F0000F4FEA8C234FEAC12243EA515179
:101410004FEA1C5018BF00F5F0404FEA300018BFEB
:1014200041F000415FEA6C5C00F02980BCF1FF3FB5
:1014300008BF40F080407047130C06BF12044FF005
:10144000100C4FF0000C130E04BF12020CF1080C2C
:10145000130F04BF12010CF1040C930F04BF920090
:101460000CF1020CD30F04BF52000CF1010C114619
:101470004FF00002A0F11F00A0EB0C00704711F02C
:10148000004F08BF704731F000413FF4D5AF0B0C5F
:1014900006BF09044FF0100C4FF0000C0B0E04BFF8
:1014A00009020CF1080C0B0F04BF09010CF1040C2C
:1014B0008B0F04BF89000CF1020CCB0F04BF490055
:1014C0000CF1010CCCF12003A0EB0C0022FA03F389
:1014D00002FA0CF241EA030100F10100704720F02A
:1014E0007F4C80EA030023F07F47ACEB070303F552
:1014F0007C5300F0004003F1FF032DE980494FEADF
:10150000154B09B44FEA144325EA0B4E24EA03486D
:101510000FF2042606EB132749083E785FEA3202F1
:1015200003FB0667C7F5000707FB06F64FEA5437CB
:101530004FEAD64606F1020607FB066CCCF1005CCA
:101540004FEA1C472CEA074C07FB06F40CFB06F598
:1015500004EB15464FEA961634BF00204FF00040CA
:101560004FEAD13706FB07FC4FEA1C4C0CFB0BF78C
:10157000D21B03FB0CF761EB07010CFB0EF7B0EB82
:10158000074072EB17420CFB08F734BFA2EB07428F
:10159000B2EB074261EB17414FEA0C444FEA910767
:1015A00006FB07FC4FEA1C4C0CFB0BF7B0EBC740EB
:1015B00072EB573203FB0CF734BFA2EBC742B2EB1E
:1015C000C74261EB57310CFB0EF7B0EBC70072EB73
:1015D00057720CFB08F734BFA2EBC702B2EBC7028D
:1015E00061EB5771039F4FEA816141EA921104EB6D
:1015F000CC044FEAD1374FEA826206FB07FC42EA8D
:1016000090124FEA80604FEA1C4C0CFB0BF7D21B88
:1016100003FB0CF761EB07010CFB0EF7B0EB074087
:1016200072EB17420CFB08F734BFA2EB0742B2EB98
:10163000074261EB17414FEA8C554FEA910704EBE3
:101640009C2406FB07FC4FEA1C4C0CFB0BF7B0EB91
:10165000C74072EB573203FB0CF734BFA2EBC74213
:10166000B2EBC74261EB57310CFB0EF7B0EBC70092
:1016700072EB57720CFB08F734BFA2EBC702B2EB58
:10168000C70261EB577115EB4C254FEA816141EAC6
:1016900092114FEA82624FEAD13742EA901206FB7A
:1016A00007FC44F100044FEA80604FEA1C4C0CFB3D
:1016B0000BF7D21B03FB0CF761EB07010CFB0EF7DA
:1016C000B0EB074072EB17420CFB08F734BFA2EBFC
:1016D0000742B2EB074261EB174115EB1C154FEACD
:1016E000813141EA92414FEA823242EA90424FEA26
:1016F00080304FEA0C7644F1000448EA03434EEA96
:101700000B484FF0000EB2EB080C71EB030724BF3F
:10171000624639464EEB0E0E4FF0000B0018524158
:1017200049414BEB0B0BB2EB080C71EB03077BF160
:10173000000B24BF624639464EEB0E0E4FF0000BF5
:101740000018524149414BEB0B0BB2EB080C71EB0B
:1017500003077BF1000B24BF624639464EEB0E0EA9
:1017600051EA020718BF46F0010616EB0E7655F156
:10177000000254F1000103D5BDE88901BDE80088ED
:10178000BDE88901BDE80048B619524141EB0101AD
:10179000A3F10103704780807F7E7D7C7B7A79781E
:1017A000777676757473727171706F6E6E6D6C6C26
:1017B0006B6A6A69686867666665646463636261C8
:1017C0006160605F5F5E5E5D5D5C5C5B5B5A5A5949
:1017D00059585857575656555555545453535252B5
:1017E0005251515050504F4F4F4E4E4D4D4D4C4C0D
:1017F0004C4B4B4B4A4A4A49494948484847474756
:101800004746464645454544444444434343434292
:10181000424242414141002B9C4630D477002BD0BC
:101820001CB54FEA370703B44FF010004FF010011A
:10183000BAF1000F06D0BCF1000FDCBF40F0080089
:1018400040F008014FF000000FBCBDE810400BF164
:10185000010BBBF1010F08BF5FEA170722BF12F1AE
:10186000010211F101014FF0004143F1000300F0CA
:10187000004043EA00007047F9D35708D0E746EA32
:10188000064613F1400F4FEA16461FDD13F1200FF5
:10189000DFBF16430A46002120335B42BED0C3F1AE
:1018A000200746EA064602FA07F74FEA164646EAD6
:1018B0000706C3F1200722FA03F201FA07F721FA1B
:1018C00003F14FF0000342EA0702A7E746EA0206E7
:1018D00046EA06464FEA164646EA0106BCBF46EA15
:1018E0000646360C4FF000034FF000024FF00001A7
:1018F00094E72DE9804C9A46934670B491E83800FD
:1019000007C831EA400C48BF34EA430C03D5FFF75F
:10191000E6FDFFF780FFF0BCBDE8008C2DE9804CB0
:101920009A46934670B491E8380007C810F0804F8B
:1019300008BF13F0804F03D100F005F8FFF76BFFED
:10194000F0BCBDE8008C20F07F4780EA030023F064
:101950007F4C07EB0C03A3F57C5300F00040A3F190
:10196000FE0392F0000F00F0B38095F0000F00F03E
:1019700077802DE901494FEA11404FEA144621EAE8
:10198000004800FB06FC24EA064708FB06F607FBB6
:1019900008F800FB07F718EB06484CEB164C4FEA2B
:1019A000124B18EB07484FEA15464CEB174022EA5A
:1019B0000B4E0BFB06FC25EA06470EFB06F607FB63
:1019C0000EFE0BFB07F71EEB064E4CEB164C4FF0D2
:1019D00000061EEB074E4CEB174B18EB0B0840F1C3
:1019E000000018EB0E0B58EB000840F100008F1AB6
:1019F0004FF000013CBFC943661B14BFB5EB040C9C
:101A000000213CBFC943F61B4FEA17444EEA8E0E35
:101A100027EA04454FEA1C4704FB07622CEA074CFF
:101A200005FB07F70CFB05F604FB0CFC16EB074661
:101A300042EB174216EB0C4642EB1C421BEB060630
:101A400058EB0202414146EA9E0601D5BDE80189F4
:101A5000B619524141EB0101A3F10103BDE801892F
:101A60004FEA14454FEA114724EA054621EA074C9C
:101A700005FB07F406FB07F70CFB06F105FB0CFC66
:101A800011EB074144EB17444FEA124711EB0C41AD
:101A900044EB1C4422EA074C05FB07F206FB07F760
:101AA0000CFB06F605FB0CFC16EB074642EB174257
:101AB00016EB0C4642EB1C456A1854F1000148BF76
:101AC0007047B619524141EB0101A3F10103704780
:101AD00095F0000F37D04FEA11424FEA144721EA40
:101AE000024624EA074C02FB07F106FB07F70CFB52
:101AF00006F402FB0CFC14EB074441EB17414FEAE0
:101B0000154714EB0C4441EB1C4125EA074C02FB42
:101B100007F506FB07F70CFB06F602FB0CFC16EBC1
:101B2000074645EB174516EB0C4645EB1C421219D0
:101B300051F1000148BF7047B619524141EB010114
:101B4000A3F1010370474FEA14454FEA114724EA15
:101B5000054621EA074C05FB07F106FB07F70CFBDE
:101B600006F24FF0000605FB0CFC12EB074241EBBE
:101B7000174112EB0C4251EB1C4148BF70479218C1
:101B800041EB0101A3F101037047FEE7094A00217F
:101B90001368D963136818641368996312685063F3
:101BA000054A1368D9631368186413689963116848
:101BB000486370476C000020B4000020094A116897
:101BC000C86313680021196413689863126851632D
:101BD000054A1368D863136819641368986310681A
:101BE000416370476C000020B400002010B51D4810
:101BF00000F0B0FD1C4800F0ADFD0021194801F0D7
:101C00004BF90421174801F047F90821154801F064
:101C100043F90C21134801F03FF90021124801F06B
:101C20003BF90421104801F037F908210E4801F072
:101C300033F90C210C4801F02FF90A4900200A68F9
:101C400050630A6890630A68D063096808640649AB
:101C50000A6850630A6890630A68D0630968086478
:101C600010BD00006C000020B4000020094A0021D3
:101C70001368D96313681864136899631268506312
:101C8000054A1368D8631368196413689863106869
:101C9000416370476C000020B4000020094A1168BD
:101CA000C86313680021196413689863126851634C
:101CB000054A1368D9631368186413689963116837
:101CC000486370476C000020B4000020704700009B
:101CD00010B5044800F066FDBDE810400021014841
:101CE00000F0C6BE2400002072B6FEE710B590F8E2
:101CF00021100022022905D00421816380F82020D0
:101D0000012010BD01680B6823F00E030B60016811
:101D10000B6823F001030B6090F84030012404FAB3
:101D200003F1C36B596080F8214080F820201046F1
:101D300010BD000010B590F821100024022903D036
:101D40000421816301243DE001680A6822F00E024B
:101D50000A6001680A6822F001020A601A4A0168F2
:101D6000914201D1012121E0174A1432914201D15F
:101D700010211BE0144A2832914201D1891515E047
:101D8000114A3C32914201D189140FE00E4A50327F
:101D9000914202D14FF4803108E00B4A6432914203
:101DA00002D14FF4801101E04FF08071064A083AE9
:101DB0005160012180F82110002180F82010416B32
:101DC00001B18847204610BD080002402DE9F84FB8
:101DD000DFF8A4910024A9F1040B23464FF00F086B
:101DE00009F1040AABF1040EBEE00127A7403A4016
:101DF000BA4272D1DFF884C14D68A5EB0C06654587
:101E00002BD00DDC032D34D005DC35B3012D19D0DA
:101E1000022D2FD11BE0112D16D0122D2AD119E041
:101E2000B6F5881F19D006DCB6F5803F15D0B6F59B
:101E3000801F1FD111E0B6F5001F0ED0B6F5041FAC
:101E400018D10AE0CB6815E0CB681B1D12E0CB6807
:101E500008330FE0CB680C330CE08B682BB1012BFF
:101E60004FF0080303D0476104E0042302E0076158
:101E700000E00023FF2A01D8064601E000F1040635
:101E80004FEA840501D9A5F12005376808FA05FC59
:101E900027EA0C0703FA05F547EA050737604D689E
:101EA000ED0060D5364DAE6946F00106AE61AD6914
:101EB00024F0030605F001050095324D7719BE6840
:101EC000A5072D0F08FA05FC26EA0C06DFF8B8C0B6
:101ED000604503D14FF0000C17E044E0DFF8ACC0E0
:101EE000604502D14FF0010C0FE0DFF8A4C060455F
:101EF00002D14FF0020C08E0DFF898C0604502D133
:101F00004FF0030C01E04FF0040C0CFA05FC4CEA16
:101F1000060CC7F808C04D68D9F80060ED024D46C0
:101F200001D5164300E096432E604D68DAF8006054
:101F3000AD02554601D5164300E096432E604D682C
:101F4000DBF80060AD035D4601D5164300E0964323
:101F50002E604D68DEF80060ED03754601D516432E
:101F600000E096432E60641C0A6832FA04F57FF4A0
:101F70003CAFBDE8F88F00000804014000001110DC
:101F8000001002400000014000080140000C014028
:101F900000100140001401400AB1016170470904BA
:101FA000FBE7000001488068704700000000002047
:101FB0000248816802781144816070470000002067
:101FC000074810B5016841F010010160032000F0DE
:101FD00075F80F2000F006F800F024F8002010BD7E
:101FE0000020024070B50D4D04464FF47A712878F8
:101FF000B1FBF0F00A490968B1FBF0F000F0DEFA3D
:1020000048B9102C07D200222146501E00F036F8A5
:1020100000206C6070BD012070BD00000000002039
:102020000C0000200C4808B5816941F00101816174
:10203000816901F001010091C16941F08051C161E4
:10204000C069064900F080500090486820F0E060C8
:1020500040F00070486008BD0010024000000140E0
:10206000002809DB00F01F02012191404009800097
:1020700000F1E020C0F8001170470000F0B40E4BF2
:102080001B68C3F30223C3F10704042C00D9042402
:102090001D1D072D01D2002300E0DB1E012606FADC
:1020A00004F56D1E0D409D409E40761E164045EA8B
:1020B0000601F0BC02F090B80CED00E0064A00F01A
:1020C000070110684FF6FF03184040EA012003495A
:1020D00008431060704700000CED00E00000FA05B6
:1020E0002DE9F0470D46040067D0DFF81881D8F8D5
:1020F000000000F00700A8420CD2D8F8001021F030
:1021000007012943C8F80010D8F8000000F00700C4
:10211000A84252D120683C4E810712D5400703D512
:10212000706840F4E06070602078000703D5706844
:1021300040F4605070607068A16820F0F0000843BF
:1021400070602078C00727D06068012810D03168FF
:10215000022810D0890700292FDA716821F00301C5
:1021600001437160FFF71EFF074641F288390CE01A
:1021700031688903EFE78901EDE7FFF713FFC11B22
:10218000494502D90320BDE8F0877068616800F016
:102190000C00B0EB810FF0D1D8F80010404601F0F0
:1021A0000701A9420BD9016821F007012943016009
:1021B000006800F00700A84201D00120E3E7207882
:1021C000400705D57068E16820F4E060084370605E
:1021D0002078000706D57068216920F4605040EA35
:1021E000C100706000F038F87168084AC1F303114B
:1021F000515CC8400649086006480068FFF7F2FED7
:102200000020C0E700200240001002401A460008EB
:102210000C000020040000200448054900684968BB
:10222000044AC1F30221515CC84070470C000020F1
:10223000001002402A460008044805490068496821
:10224000044AC1F3C221515CC84070470C00002011
:10225000001002402A4600080E4B59680E4801F053
:102260000C02042A11D0082A0FD10C48C1F3834272
:10227000C903805C0AD55968084AC1F34041921EDF
:10228000515C054A5043B0FBF1F0704704494843A4
:10229000704700000010024000127A000A46000851
:1022A00000093D002DE9F84F04006FD02078BE4DA5
:1022B000C00747D06868C0F38100012807D068686C
:1022C000C0F38100022809D16868C00306D52868D8
:1022D000800337D560680028E7D033E06068B0F548
:1022E000803F0BD010B1B0F5A02F11D0286820F49A
:1022F00080302860286820F4802002E0286840F4BC
:1023000080302860606888B1FFF74CFE064609E01F
:10231000286840F480202860F0E7FFF743FE801B28
:10232000642873D828688003F7D50BE0FFF73AFEDE
:10233000064604E0FFF736FE801B6428F1D82868C3
:102340008003F7D42078DFF8648280074FF0010A19
:102350004FF0000939D5686810F00C0F07D0686895
:10236000C0F38100022809D16868C00306D4286838
:10237000800714D52069012808D110E02069B0B188
:10238000C8F800A0FFF70EFE064605E007E1FFF7DC
:1023900009FE801B0228C4D828688007F7D5286862
:1023A000616920F0F80040EAC10028600DE0C8F83B
:1023B0000090FFF7F7FD064604E0FFF7F3FD801BF2
:1023C000022823D828688007F7D4207800072CD566
:1023D0007748A169D9B1C0F800A0FFF7E3FD064630
:1023E00004E0FFF7DFFD801B02280FD8686A800732
:1023F000F7D570484FF4FA510068B0FBF1F0009047
:1024000000BF0098411E0091FAD20EE07CE0C0F8B7
:102410000090FFF7C7FD064604E0FFF7C3FD801BF1
:10242000022871D8686A8007F7D4207840075BD506
:10243000E8690027C00008D4E86940F08050E861EE
:10244000E869012700F0805000905B480168C905E9
:1024500011D40168834641F480710160FFF7A2FD49
:10246000064604E0FFF79EFD801B64284CD8DBF88D
:102470000000C005F6D5E06801280AD008B105289B
:1024800013D0286A20F001002862286A20F0040096
:1024900002E0286A40F001002862E06841F2883BCF
:1024A00088B1FFF77FFD064609E0286A40F0040086
:1024B0002862EEE7FFF776FD811B59455BD8286A55
:1024C0008007F7D50BE0FFF76DFD064604E0FFF748
:1024D00069FD811B59454ED8286A8007F7D41FB182
:1024E000E86920F08050E861E069A8B36968C1F349
:1024F0008101022946D00228484606D0C8F860006B
:10250000FFF750FD044639E035E04746C8F8600063
:10251000FFF748FD064604E0FFF744FD801B022854
:1025200029D828688001F7D4206AB0F5803F05D10A
:102530006868A16820F4003008436860D4E90801A5
:102540000843696821F4741108436860C7F860A003
:10255000FFF728FD044605E023E0FFF723FD001BFD
:10256000022808D828688001F7D51AE0FFF71AFD7D
:10257000001B022802D90320BDE8F88F28688001DB
:10258000F4D40EE00128F7D06868226A00F48031A4
:10259000914204D1616A00F47010884201D0012098
:1025A000EAE70020E8E70000001002400000424295
:1025B000800442420C0000200070004010B5401E14
:1025C000B0F1807F01D3012010BD4FF0E0246061A5
:1025D0000F21601701F000FE0020A061072020619C
:1025E000002010BD7047704770B590F83C20012A5C
:1025F00026D0012580F83C50022280F83D20026858
:102600005368946823F070060B68334353600D4B96
:1026100002689A4208D0B2F1804F05D00A4B9A4224
:1026200002D00A4B9A4204D1496824F0800319432E
:10263000916080F83D50002180F83C10084670BD44
:10264000022070BD002C0140000400400008004042
:1026500010B5040003D094F83D0010B107E001204C
:1026600010BD002084F83C00204600F01FF8022036
:1026700084F83D00211D206801F0A4FA012084F8AF
:10268000460084F83E0084F83F0084F8400084F857
:10269000410084F8420084F8430084F8440084F840
:1026A000450084F83D00002010BD000000B585B055
:1026B00000210091019102910391224A0168224870
:1026C000914227D1816941F400618161816901F4FE
:1026D00000610491816941F004018161806969466A
:1026E00000F004000490901500901848FFF76EFB6E
:1026F000002211461920FFF7C1FC1920FFF7B0FC9A
:10270000002211461B20FFF7B9FC1B20FFF7A8FC95
:1027100005B000BDB1F1804F0BD00D4A9142F7D109
:10272000C16941F00201C161C06900F0020004907A
:10273000EEE7C16941F00101C161C06900F001002B
:10274000F5E70000002C01400010024000080140A5
:102750000004004090F83D10012901D0012070478D
:10276000022180F83D1000680B49884208D0B0F182
:10277000804F05D00949884202D00949884204D1D6
:10278000816801F00701062903D0016841F00101C9
:102790000160002070470000002C01400004004050
:1027A0000008004090F83D10012901D00120704739
:1027B000022180F83D100168CA6842F00102CA6037
:1027C00000680B49884208D0B0F1804F05D0094914
:1027D000884202D00849884204D1816801F007018B
:1027E000062903D0016841F0010101600020704713
:1027F000002C0140000400400008004070B5044671
:1028000090F83C000025012817D0012684F83C6090
:10281000022084F83D002068826822F0770222F4CA
:102820007F4282600868502838D00DDC20284FD0C5
:1028300005DC90B3102811D14AE0022070BD302889
:1028400046D040280AD13BE060282FD070280DD018
:10285000B0F5805F03D0B0F5005F12D0012584F899
:102860003D60002084F83C00284670BDCB68D1E96B
:102870000121206801F0E9F92068816841F07701C1
:1028800009E0CB68D1E90121206801F0DEF9206878
:10289000816841F480418160E1E719E0CA684968D4
:1028A000206801F08DFA5021206806E0CA68496866
:1028B000206801F0C3FA6021206801F0D0F9CEE76A
:1028C000CA684968206801F07BFA40212068F4E773
:1028D000226801461046F0E70349884203D10349C4
:1028E0000888401C08807047240000201000002049
:1028F0002DE9F041054690F83C0000260C460128E1
:1029000010D0012085F83C0072B1042A1CD0082A9E
:102910002CD00C2A50D00126002085F83C003046EF
:10292000BDE8F0810220FBE7D4E90012E3682868E3
:1029300001F058FA2868816921F00C01816128684A
:102940008169A26811430FE0D4E90012E3682868A6
:1029500001F086FA2868816921F440618161286864
:102960008169A26841EA02218161D5E72868D4E93A
:10297000002C277B036A016A21F480710162C1691E
:1029800023F4007321F0030141EA0C0121F0F00C63
:1029900039074FF400774CEA116107EA02221A4323
:1029A000C16102622868C16921F00C01C161286817
:1029B000C169A26811432AE02868D4E90032E168BD
:1029C000076AD0F820C02CF4805CC0F820C0D0F892
:1029D0001CC02CF4407C4CEA02224FF6FF7C22F40F
:1029E00070420CEA0131114327F400524FF40057B2
:1029F00007EA03331343C16103622868C16921F404
:102A00004061C1612868C169A26841EA0221C161CF
:102A100082E710B5040003D094F83D0010B107E040
:102A2000012010BD002084F83C00204600F01EF874
:102A3000022084F83D00211D206801F0C3F8012028
:102A400084F8460084F83E0084F83F0084F8400093
:102A500084F8410084F8420084F8430084F844007C
:102A600084F8450084F83D00002010BD7047000048
:102A700030B50446002579B1042910D0082911D0B9
:102A800094F8410089B1042912D0082913D094F890
:102A90004520012814D111E094F83E00F2E794F8A3
:102AA0003F00EFE794F84000ECE794F84220F0E7AD
:102AB00094F84320EDE794F84420EAE7012A01D096
:102AC000012030BD022081B1042913D0082916D07D
:102AD00084F8410084F84500B1B1042919D00829CF
:102AE00038D00C293BD0012532E084F83E0084F830
:102AF0004200F1E784F83F0084F84300ECE784F8F3
:102B0000400084F84400E7E72068C26842F002020F
:102B100003E02068C26842F00402C260012220681B
:102B200001F086F810492068884208D0B0F1804F43
:102B300005D00E49884202D00D49884204D18168EF
:102B400001F00701062903D0016841F0010101608D
:102B5000284630BD2068C26842F00802DDE72068E0
:102B6000C26842F01002D8E7002C01400004004087
:102B70000008004070B50446006801694FF0000588
:102B8000C943890715D4C168C943890711D4E91E0F
:102B9000016101202077206880698007204602D0EB
:102BA000FFF79AFE04E000F0E1F8204600F073F928
:102BB000257720680169C943490717D4C168C9430B
:102BC000490713D46FF004010161022020772068C7
:102BD000806910F4407F204602D0FFF77DFE04E0BC
:102BE00000F0C4F8204600F056F925772068016906
:102BF000C943090716D4C168C943090712D46FF045
:102C000008010161042020772068C0698007204600
:102C100002D0FFF761FE04E000F0A8F8204600F0C3
:102C20003AF9257720680169C943C90617D4C168F4
:102C3000C943C90613D46FF0100101610820207741
:102C40002068C06910F4407F204602D0FFF744FEA0
:102C500004E000F08BF8204600F01DF9257720688D
:102C60000169C943C90708D1C168C943C90704D16B
:102C7000891E0161204600F05FF920680169C9439F
:102C8000090609D4C168C943090605D46FF080015B
:102C900001612046FFF7A6FC20680169C943490687
:102CA00009D4C168C943490605D46FF040010161E8
:102CB000204600F06BF920680169C94389060BD4EE
:102CC000C168C943890607D46FF02001016120461D
:102CD000BDE87040FFF787BC70BD000010B586B03E
:102CE0000021009101910291039102681B49022485
:102CF0001B48B2F1804F23D01A4B9A421ED18A69E9
:102D000042F004028A618A6902F0040204928A692C
:102D100042F008028A618969039401F00801049174
:102D2000C021CDE900146946FFF750F80320CDE932
:102D3000000469460C480394FFF748F806B010BD3C
:102D40008A6942F004028A618969039401F00401EE
:102D500004910F21CDE900146946EDE7001002400F
:102D60000008014000040040000C0140704770B5AD
:102D7000044690F83C0000260D4601280FD00120A3
:102D800084F83C006AB1042A1DD0082A2FD00C2AEE
:102D90003FD00126002084F83C00304670BD022060
:102DA00070BD206800F064FF2068816941F008016F
:102DB00081612068816921F0040181612068816955
:102DC0002A69114311E0206800F07EFF20688169C4
:102DD00041F4006181612068816921F48061816131
:102DE000206881692A6941EA02218161D2E720686D
:102DF00000F098FF2068C16941F00801C1612068B6
:102E0000C16921F00401C1612068C1692A691143C7
:102E100011E0206800F0B2FF2068C16941F4006150
:102E2000C1612068C16921F48061C1612068C16904
:102E30002A6941EA0221C161ACE710B5040003D060
:102E400094F83D0010B107E0012010BD002084F887
:102E50003C00204600F01EF8022084F83D00211DB1
:102E6000206800F0AFFE012084F8460084F83E00A0
:102E700084F83F0084F8400084F8410084F8420060
:102E800084F8430084F8440084F8450084F83D0049
:102E9000002010BD7047704710B5044649B10429A1
:102EA0000AD008290BD094F8410001280AD001204B
:102EB00010BD94F83E00F8E794F83F00F5E794F869
:102EC0004000F2E7022041B3042929D008292AD082
:102ED00084F841000122206800F0AAFE134920680E
:102EE000884203D1426C42F4004242642068884226
:102EF00008D0B0F1804F05D00D49884202D00D496D
:102F0000884204D1816801F00701062903D00168D5
:102F100041F001010160002010BD84F83E00D9E7B6
:102F200084F83F00D6E784F84000D3E7002C014046
:102F300000040040000800400F4910B5884219D134
:102F40000E4C208800EBC000400001F0D2F90C4A82
:102F50000C4B01F0E1F901F09BF900216060218048
:102F600001F0D8FA4FF06632074B01F0D5F901F0C5
:102F70008FF9A06010BD0000240000201000002088
:102F80009CC420B07268913F66661A40704718B5BD
:102F9000034690F84200202801D0022018BD51B10C
:102FA0004AB10120186300205863184601F060F808
:102FB000010002D005E0012018BD186B012802D0E5
:102FC0000121084618BD186802684068009018681A
:102FD0000C3050E8002F42F0100240E80024002C92
:102FE000F5D1EEE770B52849884229D12748284C09
:102FF0000546017868682154401C686020291FD16B
:103000002078572823D0532823D0412825D044287E
:1030100027D00020FEF7D2FD2078312825D0322895
:103020002AD00020FEF7CAFD0023012219A116486C
:1030300000F0E1F940211648FDF72EF90020686004
:10304000BDE87040012211490F48FFF7A0BF3220B0
:10305000E0E73220FEF79AFDDEE73220FEF706FEBB
:10306000DAE73220FEF71AFED6E76420FEF7A6FD67
:103070000023012208A1DAE74620FEF79FFD002386
:10308000012206A1D3E70000FC0000201C00002064
:1030900044010020300000003130300037300000A3
:1030A00070470000F8B5016804460868CA684B69B3
:1030B00010F00F0F4FF0000559D003F0010602F495
:1030C0009077374365D0C10705D0D10503D5616C32
:1030D00041F001016164410705D5D90703D0616C56
:1030E00041F002016164810705D5D90703D0616C05
:1030F00041F004016164010707D502F0200131436A
:1031000003D0616C41F008016164616C00293AD020
:10311000800604D5900602D5204600F0EBFE20681C
:103120004069616CC0F38010090700D460B3204689
:1031300000F0B9FE20684069400621D520681430AF
:1031400050E8001F21F0400140E80012002AF5D1AC
:10315000E06BA8B16D494163E06BFEF7EBFD002821
:1031600011D0E06B416B01B0BDE8F0400847830629
:103170000FD593060DD52046BDE8F84000F0BABE45
:103180002046FFF78DFFF8BD2046FFF789FF6564F5
:10319000F8BD266B2023012E7CD1C6067AD5D60633
:1031A00078D508684868009048694FF002064006E4
:1031B00040D5E16B086840680004000CE8D0A28D9F
:1031C0008242E5D9E085886920282DD020680C301E
:1031D00050E8001F21F4807140E80012002AF5D168
:1031E0002068143050E8001F21F0010140E800126F
:1031F000002AF5D12068143050E8001F21F040016A
:1032000040E80012002AF5D184F842302563206896
:103210000C3050E8001F21F0100140E80012002A95
:10322000F5D1E06BFEF762FD6663A08DE18D401A7B
:1032300081B22AE0A08DE18D401A81B2E08D002894
:10324000A6D00029A4D020680C3050E8002F22F42A
:10325000907240E80027002FF5D12068143050E824
:10326000002F22F0010240E80027002FF5D184F85A
:103270004230256320680C3050E8002F22F0100205
:1032800040E80023002BF5D166632046FFF7AAFE35
:10329000F8BDFFE705062BD5150629D594F84100A2
:1032A0002128F5D1A068B0F5805F01D12069B0B1C7
:1032B000206A411C2162216800784860E08C401E31
:1032C0000004000CE084E3D12068C16821F0800193
:1032D000C1602068C16841F04001C160D8E7206A40
:1032E0000088C0F308004860206A801C2062E5E77F
:1032F0004006CDD55006CBD5CA68204622F0400204
:10330000CA6084F8413000F0C3F8C1E7973E000876
:1033100070B5040004D094F84100002510B106E017
:10332000012070BD84F84050204600F023F824208E
:1033300084F841002068C16821F40051C160204632
:1033400000F03AFE2068016921F490410161206893
:10335000416921F02A0141612068C16841F40051AE
:10336000C1606564202084F8410084F842006563F0
:10337000002070BD30B585B0002400940194029403
:1033800003940068184988422CD11848816941F497
:1033900080418161816901F480410491816941F03A
:1033A000040181618069124D00F0040004904FF423
:1033B0000070009002200190032003906946284687
:1033C000FEF704FD2815CDE900046946284602945D
:1033D000FEF7FCFC002211462520FEF74FFE2520BB
:1033E000FEF73EFE05B030BD00380140001002403F
:1033F0000008014070472DE9F843044690F8410069
:103400001F4615460E46202802D00220BDE8F8834C
:103410007EB175B100206064212084F84100FEF780
:10342000C1FDA5848046E584A068B0F5805F02D028
:1034300003E00120EAE7206910B1354600260EE0DE
:1034400000250CE08021204600F02DFEA0B9ADB192
:1034500015F8010B21684860E08C401EE084E08C88
:1034600043464FF0000200970028EBD14FF0400197
:10347000204600F018FE30B10320C7E736F8020BF3
:10348000C0F30800E6E7202084F841000020BDE7F3
:1034900070470000012202490248FFF778BD000092
:1034A0001C000020FC000020FEE7000070B586B084
:1034B00000241D480094019402940394816941F012
:1034C00020018161816901F020010491816941F04D
:1034D00004018161816901F004010491816941F075
:1034E000080181618069114E00F008004FF44075B9
:1034F0000490002229463046FEF74EFDE020CDE93B
:1035000000040120029069463046FEF75FFC11205E
:103510000095CDE901040220039069463046FEF78C
:1035200055FC06B070BD000000100240000C0140C8
:1035300010B58AB0002424480094019402940394A6
:10354000049405940694079408941E490994016014
:1035500041F61F41C0E9011442F20F71C0E90314A2
:1035600044618461FFF774F808B1FEF7BDFB4FF4C6
:103570008050009069461448FFF740F908B1FEF703
:10358000B3FB1148FFF745FA08B1FEF7ADFB049411
:1035900004A90D480594FFF727F808B1FEF7A4FB2E
:1035A0000120CDE906400420CDE90840002206A90B
:1035B0000548FFF79DF9002801D0FEF795FB0AB0FA
:1035C00010BD0000002C01402400002010B58EB07A
:1035D00000240794089409940A940B941C216846CB
:1035E0000C94FCF77BFE29484FF080410160472195
:1035F000C0E901146321C0E903148461FFF728F8CE
:1036000008B1FEF771FB4FF48050079007A91F48DF
:10361000FFF7F4F808B1FEF767FB1C48FFF70DFC55
:1036200008B1FEF761FB0B940BA918480C94FEF748
:10363000DBFF08B1FEF758FB6020CDE900040294DF
:103640000022694611480494FFF791FB08B1FEF788
:103650004BFB042269460D48FFF789FB08B1FEF7D2
:1036600043FB082269460948FFF781FB08B1FEF7D2
:103670003BFB0C2269460548FFF779FB08B1FEF7D2
:1036800033FB0248FFF72AFB0EB010BD6C00002090
:1036900010B58EB000240794089409940A940B94F2
:1036A0001C2168460C94FCF719FE2A482849016041
:1036B0004721C0E901146321C0E903148461FEF7C6
:1036C000C7FF08B1FEF710FB4FF48050079007A921
:1036D0002048FFF793F808B1FEF706FB1D48FFF7F7
:1036E000ACFB08B1FEF700FB0B940BA919480C9436
:1036F000FEF77AFF08B1FEF7F7FA6020CDE9000483
:1037000002940022694613480494FFF730FB08B185
:10371000FEF7EAFA042269460E48FFF728FB08B1D3
:10372000FEF7E2FA082269460A48FFF720FB08B1D3
:10373000FEF7DAFA0C2269460648FFF718FB08B1D3
:10374000FEF7D2FA0348FFF7C9FA0EB010BD000029
:1037500000040040B40000200C4810B50A49016084
:103760004FF416514160002181600C22C160C0E914
:1037700004128161C161FFF7CBFD002803D0BDE8D1
:103780001040FEF7B1BA10BD00380140FC00002027
:10379000FEE7FEE710B50021074C0A46002004EBC7
:1037A000C1131A54401CC0B28028FAD3491CC9B2B4
:1037B0000829F3D310BD000084010020F0B57F2854
:1037C00028D83F2926D88418802C02D9C0F180023D
:1037D000D2B2CC18402C02D9C1F14003DBB20E4E5C
:1037E0004FF0010E871801EB030C11E001F0070206
:1037F0000EFA02F5CA08044606EBC21204E0135D95
:10380000AB431355641CE4B2A742F8D8491CC9B2B3
:103810008C45EBD8F0BD00008401002010B50021DC
:103820004FF47A720020401C9042FCD3491C914214
:10383000F8D3FFF73BFE012000F04CF9BDE8104043
:10384000012000F04FB970B500240546802626FA05
:1038500004F0284000D0012000F044F9012000F0DD
:1038600039F9002000F036F9641CE4B2082CEED3DC
:10387000012000F02FF9BDE87040002000F02AB9C7
:1038800010B5012000F02EF9012000F023F90020EE
:1038900000F028F9BDE81040002000F01BB910B579
:1038A000002000F01FF9012000F014F9BDE81040DD
:1038B000012000F017B910B5FFF7B0FFAE2000F0FF
:1038C00019F9D52000F016F9802000F013F9A8208E
:1038D00000F010F93F2000F00DF9D32000F00AF9B4
:1038E000002000F007F9402000F004F9A12000F0CA
:1038F00001F9C82000F0FEF8DA2000F0FBF81220F1
:1039000000F0F8F8812000F0F5F8CF2000F0F2F890
:10391000D92000F0EFF8F12000F0ECF8DB2000F007
:10392000E9F8302000F0E6F8A42000F0E3F8A62043
:1039300000F0E0F88D2000F0DDF8142000F0DAF857
:10394000AF2000F0D7F8FFF725FFBDE8104000F0EA
:10395000ADB80FB470B588B014460D46064610AA2F
:1039600068460F99FCF786FC23466A46294630468E
:1039700000F086F808B070BC5DF814FB10B50C467A
:1039800040F0B00000F0B6F8102040EA141000F04B
:10399000B1F804F00F00BDE8104000F0ABB8000033
:1039A00018B5A2F120045F2C0ED2082B0DD0062BE7
:1039B0000AD10A4B02EB420203EB4202C03A0092E8
:1039C0000823062200F00EF818BD054B03EB021287
:1039D000A2F50072102300920822F3E7224C00089F
:1039E000324600082DE9F04F1C4690468A46834631
:1039F0007F2840D8BAF13F0F3DD851465846FFF7CF
:103A0000DDFE641EE017002104EB507001220AF075
:103A1000070702EBE00E2CE0002026E00BEB000293
:103A20007F2A24D801EBDA04072C24D8099E01FB55
:103A300008F90644114B19F8065003EBC413BD40B6
:103A400013F802C0641C4CEA050C03F802C0072CF2
:103A500009D81A4419F8064012F8803FC7F1080542
:103A6000EC4023431370401CC0B24045D6D3491CE0
:103A7000C9B28E45D0DCBDE8F08F00008401002083
:103A80002DE9F0411D46164688460746002408E009
:103A900004FB0570C0B22B464146FFF781FF641C52
:103AA000E4B2325D002AF3D1BDE8F08170B5084D73
:103AB000002400212046FFF761FF05EBC4108021A0
:103AC00000F029F8641CE4B2082CF2D370BD0000A9
:103AD0008401002002464FF480710148FEF75CBA71
:103AE000000C014002464FF400710148FEF754BA41
:103AF000000C014010B50446FFF7C2FE7820FFF726
:103B0000A2FE0020FFF79FFE2046FFF79CFEBDE8C7
:103B10001040FFF7C4BE70B50D460646FFF7B0FE75
:103B20007820FFF790FE4020FFF78DFE002404E090
:103B3000305DFFF788FE641CE4B2AC42F8D3BDE808
:103B40007040FFF7ACBE70477047FEF731BA30B532
:103B50008FB028216846FCF7C1FB14210AA8FCF7A6
:103B6000BDFB0120010400248DE8130004904FF4F4
:103B7000E010CDE90810022507956846FEF792FB94
:103B800008B172B6FEE70F20CDE90A054FF4806058
:103B9000CDE90C4002210AA80E94FEF7A1FA0028F4
:103BA00001D072B6FEE70FB030BD70470148FEF796
:103BB000E1BF0000240000200148FEF7DBBF000049
:103BC00024000020F0B50268164C174D174E4FF038
:103BD0008047A04205D0B84203D0A84201D0B042ED
:103BE00003D122F070034A681A43A04205D0B842BC
:103BF00003D0A84201D0B04203D122F44073CA6876
:103C00001A434B6922F080021A4302608A68C2623A
:103C10000A688262A04201D1096901630121416100
:103C2000F0BD0000002C01400004004000080040EE
:103C300010B501F01F010123046A8B409C4304620C
:103C4000036A8A401343036210BD10B5846842EAD8
:103C5000032224F47F440A432243826010BD826819
:103C600022F070020A4342F00701816070470000B1
:103C700030B5026A036A23F0010303624368846972
:103C800024F073050C682C4322F002058A682A434D
:103C90000C4DA84206D122F00805CA6842EA050286
:103CA00022F0040207D14D6923F4407345EA03056D
:103CB0008B6943EA0503436084614968416302629A
:103CC00030BD0000002C014030B5036A026A22F0CA
:103CD00010020262426884690D6824F4E64444EAF2
:103CE00005248D6823F0200343EA05130C4DA842F8
:103CF00006D1CD6823F0800343EA051323F0400387
:103D000007D14D6922F4406242EA85028D6942EA98
:103D100085024260846149688163036230BD0000AE
:103D2000002C014030B5026A036A23F480730362F9
:103D30004368C46922F4007224F073050C682C43B4
:103D40008D6842EA05220C4DA84206D1CD6822F4C6
:103D5000006242EA052222F4806207D14D6923F411
:103D6000405343EA05138D6943EA05134360C46178
:103D70004968C163026230BD002C014030B5046A5D
:103D8000026A22F4805202624268C3690D6823F419
:103D9000E64343EA05238D6824F4005444EA0534DD
:103DA000064DA84204D14D6922F4804242EA8512B0
:103DB0004260C36149680164046230BD002C014067
:103DC00010B5046A036A23F001030362836923F0D8
:103DD000F00343EA021324F00A020A4383610262F9
:103DE00010BD000070B5056A046A24F00104046285
:103DF00084690F4EB04208D0B0F1804F05D00D4E0F
:103E0000B04202D00C4EB04203D124F0030414435C
:103E100001E044F001041A0724F0F00444EA1262BD
:103E200025F00A0301F00A0119438261016270BDA5
:103E3000002C0140000400400008004010B5036A57
:103E4000046A24F010040462846923F0A00324F4BB
:103E5000704444EA023243EA01118261016210BDFA
:103E600030B5046A056A25F010050562856925F4F8
:103E7000407545EA022222F470454FF6FF7202EACD
:103E8000033224F0A0032A43A02404EA01111943B9
:103E90008261016230BD10B5406A0021C185C184D4
:103EA000FFF7FEF810BD01680C3151E8002F22F435
:103EB000907241E80023002BF5D10168143151E8DC
:103EC000002F22F0010241E80023002BF5D1016B05
:103ED000012909D101680C3151E8002F22F01002AC
:103EE00041E80023002BF5D1202180F84210002169
:103EF0000163704708B590F84210222901D00220D2
:103F000008BD81684FF48053994201D1026922B102
:103F1000826A99421BD049B10AE00268816A5268FC
:103F2000C2F308020A80816A891C08E0016971B144
:103F30000168496801F07F011170816A491C816242
:103F4000C18D491E0904090CC18503D01BE001681D
:103F50004968F1E70168CA6822F02002CA60016876
:103F6000CA6822F48072CA6001684A6922F00102BC
:103F70004A61202180F8421000214163026B012A2E
:103F800003D0FFF737FA002008BD016301680C3148
:103F900051E8002F22F0100241E80023002BF5D158
:103FA00001680A68D20602D50A6849680091818DC5
:103FB000FFF718F8E7E7000070B5044600680169EC
:103FC000E26821F4405111430161A1682069014375
:103FD000606901432068C26841F20C639A430A4356
:103FE000C26020684169A26921F4407111434161B6
:103FF0001E492068884202D1FEF71EF901E0FEF753
:104000000BF900EBC00101EB001160686422800035
:10401000B1FBF0F3B3FBF2F36FF018067343B1FB9F
:10402000F0F5B1FBF0F605EB8305322303EB051544
:10403000B5FBF2F5B6FBF2F605F0F00505EB06155B
:10404000B1FBF0F6B1FBF0F0B0FBF2F06FF018014D
:10405000484306EB800003EB0010B0FBF2F0216850
:1040600000F00F002844886070BD00000038014057
:1040700081628285C28500214164222180F842103C
:10408000016921B10168CA6842F48072CA6001689E
:104090004A6942F001024A610068C16841F02001AA
:1040A000C160002070472DE9F0411E461746884642
:1040B0000446069D26E0681C24D025B1FDF772FF5A
:1040C000801BA8421ED920680C3050E8001F21F444
:1040D000D07140E80012002AF5D12068143050E871
:1040E000001F21F0010140E80012002AF5D1202034
:1040F00084F8410084F84200002084F84000032046
:10410000BDE8F0812068016838EA010004D0002091
:10411000B842D0D00020F3E70120F9E70148FEF7CC
:10412000C1BF0000FC000020FEE700001CB51248E3
:10413000006800F0EFF9CDE9000100210FA308228B
:104140000846FFF706FC1248006800F0E3F9CDE9E5
:10415000000110A3082210210020FFF7FAFB1048ED
:1041600010A308220088009020210020FFF7F1FB17
:10417000BDE81C40FFF79ABC14000020416E676C3C
:104180006553706565643A25342E31660000000081
:104190001800002053706565643A25342E3166009E
:1041A00010000020436F756E743A253464000000DF
:1041B000490050EAC12018BF04204A0D18BF40F042
:1041C000010040F2FF72B2EB515F08BF40F0020005
:1041D000012808BF052070470907090E002804DBE5
:1041E00000F1E02080F80014704700F00F0000F1AB
:1041F000E02080F8141D704730380A2801D20120D1
:10420000704700207047FDF7DBFEFFF7A0FCFFF7CB
:104210004DF9FFF7DBF9FFF73BFAFFF79DFAFFF7E0
:1042200087F9FFF748FBFDF7E1FCFFF733F9FDF7EE
:104230004FFDFFF77BFFFCE710B500290AD0087897
:10424000002807D005487844FCF770F8002801D012
:10425000002010BD0248784410BD0000320D00005F
:104260002A0D000010B500290AD00878002807D0D0
:1042700005487844FCF75AF8002801D0002010BD0A
:104280000248784410BD0000220D00001A0D000005
:1042900021F00042A2F16052B2F5801F01F000430C
:1042A00028BFD2F17F6C0BD95FEA001C43EAC2023F
:1042B00042EB507018BF704728BF20F001007047D4
:1042C000B2F5801FBCBF184670474FEA410C1CF581
:1042D000001F02D2084600F08EB970B500F0C6F893
:1042E00000000089FFF7F6BF4FF00040A0F5800006
:1042F0007047B0FA80F310FA03F10AD0C3F11D033E
:1043000003F580634FEA41504FEA035202EBD1219B
:1043100070474FF000007047DFF848C170B51CEAE5
:10432000111E1EBF1CEA13159EEA0C0F95EA0C0F16
:1043300000F06F8081EA030423EA4C134EEAD47E36
:1043400021EA4C1141F4801143F48013AE44A1FBE7
:10435000024CA0FB0365AEF17F7E361955EB0C05D0
:10436000A1FB034C4CF10003A0FB021C16EB0C0656
:10437000654153F10003094218BF46F0010613F4EA
:10438000007F0BD14FEA03314FEA0530340341EA95
:10439000155140EA16506FF003020AE04FEAC321BC
:1043A0004FEAC520F40241EA555140EA56506FF0F9
:1043B000020202EB2E4201EB025585EACE710AD0D1
:1043C0005FEA440C18BF24F0004450F1000041F1B2
:1043D000000120EAD47040F2FE7C624500D270BD3C
:1043E000A84214BF4FF080444FF04044002E08BF55
:1043F0000024BEF1806FA8BFA1F1C041BDE87040AC
:1044000080F282804FF0000001F1C04101F00041D4
:1044100070479EEA0C0F0CEA131518BF95EA0C0FB3
:1044200006D04FF0000081EA030E0EF0004170BD8F
:1044300000F01CF88900013E00F007B800F009B850
:104440004FEA430C5FEA5C5C08D081EA030100F0AC
:104450005BB84FEA410C5FEA5C5CF6D14FF00000BC
:10446000014970470000FF070000F87F0EF1020EBF
:104470002EF0030E5EF8046B364205D4012A43EB9E
:10448000030515F5001F12D8012841EB010C1CF59E
:10449000001F0CD80ED14FEAD17C15F5001F0CEB94
:1044A0004C0C0CF1020C08BF4CEBD37C04E04FF039
:1044B000080C01E04FEAD37C0CEB4C0526FA05F61C
:1044C00006F00706B6F1040C06D20EEB860CBDE82A
:1044D00070404CF0010C6047DFE80CF0090B020261
:1044E0004FF000414FF00000A1F5002170BD1946CA
:1044F0001046012851EB010418BFD4F5001484BF05
:10450000002001F0004170BD0808A0F500114FEA3D
:104510003101704743004FEAD30C4FEA3C0C434053
:104520001FBF40070CF1605113F0FE4F70471CF0A5
:10453000006F03D100200CF0004170470CF00043E5
:1045400043EA507010B540EACC0000F00EF800BF0E
:10455000000000924FEA0001FFF7D6BF4FF0004184
:104560004FF00000A1F5002170470EF1020E2EF071
:10457000030E5EF8044B244204D44FEA4102B2F128
:104580007F4F11D84FEA4003B3F17F4F0CD80ED1C3
:104590004FEAD07CB2F17F4F0CEB4C0C0CF1020CCB
:1045A00008BF4CEBD17C04E04FF0080C01E04FEA6F
:1045B000D17C0CEB4C0324FA03F404F00704B4F1AF
:1045C000040C06D20EEB840CBDE810404CF0010C3C
:1045D0006047DFE80CF0070802024FF00040A0F54A
:1045E000800010BD0846420018BFD2F1807288BF1B
:1045F00000F0004010BDFF2141EAD050C0057047D7
:10460000FCF701BBFCF736BC0102020304050607F8
:1046100008090A0B0C0D0E0F10100000000000001E
:10462000000001020304060708090000000001025F
:104630000304000000000000000000000000000073
:104640000000000000F8000000000000003330000F
:10465000000000160E00160E000000000000000012
:10466000000040C07840C0784000043F04043F048C
:104670000400007088FC08300000001820FF211E94
:104680000000F008F000E018000000211C031E21CB
:104690001E0000F00888700000001E212324192746
:1046A0002110000000160E000000000000000000B5
:1046B0000000000000E018040200000000071820BD
:1046C000400000020418E00000000040201807002D
:1046D0000000404080F0804040000202010F0102D3
:1046E0000200000000F0000000000101011F0101B4
:1046F0000100000000000000000000B07000000099
:1047000000000000000000000000000101010101A4
:104710000101000000000000000000303000000037
:10472000000000000000806018040060180601000E
:10473000000000E010080810E000000F102020101A
:104740000F00001010F8000000000020203F202083
:10475000000000700808088870000030282422211A
:1047600030000030088888483000001820202011D0
:104770000E000000C02010F8000000070424243FB1
:10478000240000F80888880808000019212020115A
:104790000E0000E0108888180000000F1120201182
:1047A0000E0000380808C83808000000003F00006C
:1047B00000000070880808887000001C2221212257
:1047C0001C0000E010080810E00000003122221157
:1047D0000F00000000C0C0000000000000303000EA
:1047E0000000000000C0C0000000000080B07000A9
:1047F00000000000804020100800000102040810A2
:1048000020004040404040404000040404040404B0
:10481000040000081020408000000020100804025E
:104820000100007048080808F00000000030360160
:104830000000C030C828E810E0000718272423141F
:104840000B000000C038E0000000203C23020227DB
:10485000382008F8888888700000203F2020201128
:104860000E00C03008080808380007182020201063
:10487000080008F808080810E000203F2020201059
:104880000F0008F88888E8081000203F2020232027
:10489000180008F88888E8081000203F200003006E
:1048A0000000C03008080838000007182020221E29
:1048B000020008F808000008F808203F2101012143
:1048C0003F20000808F8080800000020203F2020B2
:1048D000000000000808F8080800C08080807F0001
:1048E000000008F888C028180800203F200126385A
:1048F000200008F8080000000000203F20202020B1
:10490000300008F8F800F8F80800203F003F003FAA
:10491000200008F830C00008F808203F20000718E1
:104920003F00E01008080810E0000F1020202010C1
:104930000F0008F808080808F000203F21010101D5
:104940000000E01008080810E0000F182424385078
:104950004F0008F8888888887000203F2000030CEA
:1049600030200070880808083800003820212122F3
:104970001C00180808F8080818000000203F200054
:10498000000008F808000008F808001F2020202078
:104990001F000878880000C83808000007380E019A
:1049A0000000F80800F80008F800033C0700073C86
:1049B0000300081868808068180820302C03032C36
:1049C00030200838C800C83808000000203F200008
:1049D000000010080808C8380800203826212020C8
:1049E0001800000000FE020202000000007F4040AC
:1049F0004000000C30C0000000000000000106383C
:104A0000C00000020202FE000000004040407F00A3
:104A10000000002010080408102000000000000022
:104A20000000000000000000000080808080808086
:104A30008080000204080000000000000000000068
:104A400000000000808080800000001924222222C3
:104A50003F2008F8008080000000003F1120201156
:104A60000E000000008080800000000E1120202039
:104A70001100000000808088F800000E1120201036
:104A80003F200000808080800000001F2222222220
:104A90001300008080F0888888180020203F2020A4
:104AA00000000000808080808000006B94949493CC
:104AB000600008F8008080800000203F2100002076
:104AC0003F2000809898000000000020203F202018
:104AD0000000000000809898000000C08080807F67
:104AE000000008F8000080808000203F24022D3064
:104AF0002000000808F8000000000020203F2020CF
:104B000000008080808080808000203F20003F2047
:104B1000003F008080008080000000203F210020B6
:104B20003F200000808080800000001F2020202087
:104B30001F00808000808000000080FFA1202011E5
:104B40000E000000008080808000000E112020A058
:104B5000FF80808080008080800020203F21200016
:104B60000100000080808080800000332424242401
:104B70001900008080E0808000000000001F2020DD
:104B800000008080000000808000001F2020201096
:104B90003F20808080000080808000010E30080669
:104BA000010080800080008080800F300C030C307A
:104BB0000F0000808000808080000020312E0E31A8
:104BC0002000808080000080808080818E701806A8
:104BD000010000808080808080000021302C222114
:104BE000300000000000807C020200000000003F56
:104BF000404000000000FF00000000000000FF0037
:104C000000000002027C800000000040403F0000E5
:104C10000000008040408000008000000000000193
:104C200001000000000000000000002F0000000054
:104C30000700070000147F147F1400242A7F2A1223
:104C40000023130864620036495522500000000713
:104C5000000000001C224100000041221C00001442
:104C6000083E08140008083E0808000000A0600084
:104C70000008080808080000606000000020100814
:104C80000402003E5149453E0000427F4000004280
:104C900061514946002141454B31001814127F10E3
:104CA000002745454539003C4A4949300001710912
:104CB000050300364949493600064949291E0000C6
:104CC000363600000000563600000008142241006D
:104CD000001414141414000041221408000201519D
:104CE0000906003E4955592E007C1211127C007FA6
:104CF00049494936003E41414122007F4141221C41
:104D0000007F49494941007F09090901003E4149A5
:104D1000497A007F0808087F0000417F4100002099
:104D200040413F01007F08142241007F4040404045
:104D3000007F020C027F007F0408107F003E41418B
:104D4000413E007F09090906003E4151215E007F76
:104D5000091929460046494949310001017F0101ED
:104D6000003F4040403F001F2040201F003F403890
:104D7000403F0063140814630007087008070061CF
:104D80005149454300007F414100000204081020C2
:104D9000000041417F000004020102040040404045
:104DA0004040000001020400002054545478007F69
:104DB0004844443800384444442000384444487F40
:104DC00000385454541800087E0901020018A4A4A5
:104DD000A47C007F080404780000447D400000406B
:104DE00080847D00007F102844000000417F400047
:104DF000007C04180478007C0804047800384444DB
:104E0000443800FC242424180018242418FC007CB6
:104E10000804040800485454542000043F4440202F
:104E2000003C4040207C001C2040201C003C4030C6
:104E3000403C004428102844001CA0A0A07C004452
:104E400064544C440000087F41000000007F0000D3
:104E50000000417F0800000804081008000000005E
:104E600000000000303132333435363738394142B2
:104E700043444546403058003031323334353637BC
:104E80003839616263646566403078000400000868
:104E9000000000000000000200010000103031326C
:104EA000333435363738396162636465667870004B
:104EB0003031323334353637383941424344454650
:104EC0005850000002400000000000A00000000058
:104ED00005400000000000C8000000000C40000079
:104EE0000000409C00000000194000000020BCBEF3
:104EF0000000000034400000BFC91B8E0000000409
:104F0000B5400000504BCFD06607E2CF0100000053
:104F10006C4100003E8251AADFEEA7340100000080
:104F2000D9420000DCB5A0E23A301F97FFFFFFFF37
:104F3000B4450000FD25A0C8E9A3C14FFFFFFFFF56
:104F4000FF3F00000000008000000000FF3F000065
:104F50000000008000000000A450000800000020B5
:104F60002400000028010008C85000082400002088
:104F7000C40B0000440100081C00000043000000B6
:104F8000F8FFFFFF0C0000000E0000000F00000003
:104F90002E0000001001000043000000F8FFFFFF9A
:104FA000004040404040404040404141414141403C
:104FB00040404040404040404040404040404040F1
:104FC0004005020202020202020202020202020280
:104FD0000220202020202020202020020202020285
:104FE00002029090909090901010101010101010DD
:104FF00010101010101010101010101002020202E9
:10500000020288888888888808080808080808082C
:105010000808080808080808080808080202020228
:105020004000000000000000000000000000000040
:105030000000000000000000000000000000000070
:105040000000000000000000000000000000000060
:105050000000000000000000000000000000000050
:105060000000000000000000000000000000000040
:105070000000000000000000000000000000000030
:105080000000000000000000000000000000000020
:105090000000000000000000000000000000000010
:1050A00000000000010000001000000000000000EF
:1050B0000024F400000000000000000000000000D8
:0850C0000000000000000000E8
:04000005080000ED02
:00000001FF
