:020000040800F2
:10000000180C0020890100088B170008F91300085C
:1000100089170008D3020008E91E0008000000004C
:10002000000000000000000000000000A919000806
:100030001703000800000000A7190008AB1900080A
:10004000A3010008A3010008A3010008A301000800
:10005000A3010008A3010008A3010008A3010008F0
:10006000A3010008A3010008A3010008A3010008E0
:10007000A3010008A3010008D5020008E10200085E
:10008000A3010008A3010008A3010008A3010008C0
:10009000A3010008A3010008A3010008A3010008B0
:1000A000A3010008A3010008A3010008A3010008A0
:1000B000A3010008A3010008A3010008A301000890
:1000C000A3010008A3010008A3010008A301000880
:1000D000A3010008A3010008A3010008A301000870
:1000E000A3010008A3010008A301000800F002F822
:1000F00000F03AF80AA090E8000C82448344AAF188
:100100000107DA4501D100F02FF8AFF2090EBAE885
:100110000F0013F0010F18BFFB1A43F0010318473B
:10012000601E0000801E0000103A24BF78C878C10D
:10013000FAD8520724BF30C830C144BF04680C60ED
:10014000704700000023002400250026103A28BF35
:1001500078C1FBD8520728BF30C148BF0B60704739
:100160001FB51FBD10B510BD00F07EF81146FFF79A
:10017000F7FF01F0CBFE00F09CF803B4FFF7F2FFAD
:1001800003BC00F09FF80000094880470948004779
:10019000FEE7FEE7FEE7FEE7FEE7FEE7FEE7FEE737
:1001A000FEE7FEE704480549054A064B7047000094
:1001B0000D1A0008ED00000818060020180C002099
:1001C00018080020180800204FF000020429C0F091
:1001D000128010F0030C00F01B80CCF1040CBCF179
:1001E000020F18BF00F8012BA8BF20F8022BA1EBCB
:1001F0000C0100F00DB85FEAC17C24BF00F8012BB0
:1002000000F8012B48BF00F8012B70474FF00002A7
:1002100000B5134694469646203922BFA0E80C50FC
:10022000A0E80C50B1F12001BFF4F7AF090728BFD7
:10023000A0E80C5048BF0CC05DF804EB890028BF53
:1002400040F8042B08BF704748BF20F8022B11F07C
:10025000804F18BF00F8012B7047704770477047F8
:1002600000487047B80500207546FFF7F9FFAE4615
:1002700005006946534620F00700854618B020B5B2
:10028000FFF790FFBDE820404FF000064FF0000759
:100290004FF000084FF0000B21F00701AC46ACE82E
:1002A000C009ACE8C009ACE8C009ACE8C0098D469B
:1002B000704710B50446AFF300802046BDE81040FB
:1002C000FFF75BBF01491820ABBEFEE72600020026
:1002D0007047FEE7014800F021B80000340100201B
:1002E000014800F01BB80000F000002030B590F885
:1002F00040500124AC40C56B6C6004686360436887
:10030000102B036803D099600068C26030BD9A600A
:100310000068C16030BD704772B6FEE72DE9F05F3E
:10032000C16B0C6801680B68D0F840C0042202FA67
:100330000CF2494DDFF824A1494E4A4FDFF828B1AD
:10034000DFF828E122422CD05A072AD50A68920603
:1003500003D40A6822F004020A600168A94201D1AC
:10036000042219E0514501D1402215E0B14202D1E9
:100370004FF4806210E0B94202D14FF480420BE0AA
:10038000594502D14FF4802206E0714502D14FF465
:10039000800201E04FF080622F4908394A60C16A4B
:1003A0003BE04FF0020808FA0CF818EA040F4FF08F
:1003B00000094FF0010235D05FEA837832D50B682F
:1003C0009B0605D40B6823F00A030B6080F82120FC
:1003D0000168A94201D1022219E0514501D1202230
:1003E00015E0B14202D14FF4007210E0B94202D1DF
:1003F0004FF400520BE0594502D14FF4003206E0B1
:10040000714502D14FF4001201E04FF00072124921
:1004100008394A6080F82090816A00291AD0BDE826
:10042000F05F0847082505FA0CF5254212D01B0796
:1004300010D50B6823F00E030B6090F84010C36BCF
:1004400002FA01F15960826380F8212080F820903F
:10045000016BE2E7BDE8F09F080002401C0002408B
:100460003000024044000240580002406C0002404C
:1004700030B528B308C8134914221944B1FBF2F16E
:100480008900C16310498163022141771A6843F6EC
:10049000F0718A43D0E900142143D0E902452C438E
:1004A0002143046921434469214384692143114361
:1004B000196000214163012242770177084630BD6F
:1004C000012030BDF8FFFDBF0000024070B50446BA
:1004D00090F82000002501280CD0012084F820008D
:1004E00094F821600020012E06D084F82000022517
:1004F000284670BD022070BD022684F82160A063EA
:100500002068066826F0010606602046FFF7EEFE2A
:10051000E06A00282068016802D041F00E0106E080
:1005200021F0040101602068016841F00A010160C6
:100530002068016841F001010160D9E72DE9F84F19
:10054000DFF8B8910024A9F1040B23460F2709F125
:10055000040AABF1040EC9E00125A5402A40AA42D5
:100560007DD1674ED1F804C0ACEB0608B44532D05B
:1005700014DCBCF1030F3AD009DCBCF1000F2AD027
:10058000BCF1010F1CD0BCF1020F31D11DE0BCF158
:10059000110F17D0BCF1120F2AD119E0B8F5881F3E
:1005A00019D006DCB8F5803F15D0B8F5801F1FD1F3
:1005B00011E0B8F5001F0ED0B8F5041F18D10AE0FD
:1005C000CB6815E0CB681B1D12E0CB6808330FE049
:1005D000CB680C330CE08B682BB1012B4FF0080378
:1005E00003D0456104E0042302E0056100E000233C
:1005F000FF2A01D8064601E000F104064FEA84050F
:1006000001D9A5F12005D6F8008007FA05FC28EAF3
:100610000C0803FA05F548EA0508C6F800804D689D
:10062000ED0062D5374DAE6946F00106AE61AD69A9
:1006300024F0030605F001050095334D06EB050C8B
:10064000DCF80850A607360F07FA06F825EA080571
:10065000DFF8B880404503D14FF0000817E044E0D0
:10066000DFF8AC80404502D14FF001080FE0DFF821
:10067000A480404502D14FF0020808E0DFF89880DE
:10068000404502D14FF0030801E04FF0040808FA9A
:1006900006F848EA0508CCF808804D68D9F80060EB
:1006A000ED024D4601D5164300E096432E604D689D
:1006B000DAF80060AD02554601D5164300E09643D6
:1006C0002E604D68DBF80060AD035D4601D5164332
:1006D00000E096432E604D68DEF80060ED0375463D
:1006E00001D5164300E096432E60641C0D682A462F
:1006F000E5407FF431AFBDE8F88F00000804014009
:1007000000001110001002400000014000080140EC
:10071000000C014000100140001401400AB10161C9
:1007200070470904FBE7000001488068704700003B
:1007300000000020024881680278114481607047FF
:1007400000000020074810B5016841F01001016069
:10075000032000F075F80F2000F006F800F024F8F0
:10076000002010BD0020024070B50D4D04464FF42E
:100770007A712878B1FBF0F00A490968B1FBF0F012
:1007800000F0DCFA48B9102C07D200222146501E96
:1007900000F036F800206C6070BD012070BD0000D4
:1007A000000000200C0000200C4808B5816941F0D1
:1007B00001018161816901F001010091C16941F08C
:1007C0008051C161C06900F08050009004484168C8
:1007D00021F0E06141F00071416008BD001002406D
:1007E00000000140002809DB00F01F0201219140B8
:1007F0004009800000F1E020C0F8001170470000BF
:10080000F0B40E4B1B680C46C3F30223C3F107057B
:10081000042D00D90425191D072901D2002300E069
:10082000DB1E012606FA05F1491E214099409E4033
:10083000761E16403143F0BC01F057BB0CED00E0D2
:10084000064900F0070208684FF6FF03184040EA27
:100850000220034A10430860704700000CED00E0DE
:100860000000FA052DE9F0470F46050061D0434E20
:10087000306800F00700B84209D2306820F0070065
:1008800038433060306800F00700B84251D1286822
:100890003B4C810712D5400703D5606840F4E06007
:1008A00060602878000703D5606840F4605060609D
:1008B0006068A96820F0F000084360602878C007ED
:1008C00028D06868012810D02168022810D0890734
:1008D00000292EDA616821F0030101436160FFF70E
:1008E00023FF804641F288390DE021688903EFE754
:1008F0008901EDE7FFF718FFA0EB0801494502D990
:100900000320BDE8F0876068696800F00C00B0EB78
:10091000810FEFD1306800F00700B8420BD9306882
:1009200020F0070038433060306800F00700B8421C
:1009300001D00120E5E72878400705D56068E9681F
:1009400020F4E060084360602878000706D56068FE
:10095000296920F4605040EAC100606000F038F876
:100960006168084AC1F30311515CC8400649086038
:1009700006480068FFF7F8FE0020C2E700200240AA
:1009800000100240661F00080C0000200400002038
:100990000448054900684968044AC1F30221515CD2
:1009A000C84070470C00002000100240761F00086D
:1009B0000448054900684968044AC1F3C221515CF2
:1009C000C84070470C00002000100240761F00084D
:1009D0000E4A51680E4801F00C03042B11D0082B6D
:1009E0000FD10C48C1F38343C903C05C0AD55168D9
:1009F000084AC1F34041921E515C054A5043B0FB86
:100A0000F1F070470449484370470000001002406D
:100A100000127A00561F000800093D002DE9F84F2A
:100A2000040070D02078C04DC00749D06868C0F37A
:100A30008100012807D06868C0F38100022809D12D
:100A40006868C00306D52868800339D56068002827
:100A5000E7D035E06068B0F5803F0BD010B1B0F55D
:100A6000A02F11D0286820F480302860286820F456
:100A7000802002E0286840F480302860606890B1EF
:100A8000FFF752FE06460AE0286840F480202860FE
:100A9000F0E700BFFFF748FE801B642873D8286882
:100AA0008003F7D50CE0FFF73FFE064605E000BFE8
:100AB000FFF73AFE801B6428F0D828688003F7D43B
:100AC00020789A4E80074FF001094FF0000839D581
:100AD000686810F00C0F07D06868C0F38100022826
:100AE00009D16868C00306D42868800714D5206936
:100AF000012808D110E02069B0B1C6F80090FFF7D6
:100B000013FE074605E00AE1FFF70EFEC01B0228B0
:100B1000C4D828688007F7D52868616920F0F800F4
:100B200040EAC10028600DE0C6F80080FFF7FCFD38
:100B3000074604E0FFF7F8FDC01B022823D8286809
:100B40008007F7D4207800072CD57948A169D9B15E
:100B5000C0F80090FFF7E8FD074604E0FFF7E4FD6A
:100B6000C01B02280FD8686A8007F7D571484FF478
:100B7000FA510068B0FBF1F0009000BF0098411EF0
:100B80000091FAD20EE080E0C0F80080FFF7CCFDC3
:100B9000074604E0FFF7C8FDC01B022875D8686A45
:100BA0008007F7D42078400760D5E8690027C000A7
:100BB00008D4E86940F08050E861E869012700F056
:100BC000805000905C480168C90513D401688346D1
:100BD00041F480710160FFF7A7FD824606E000BF87
:100BE000FFF7A2FDA0EB0A0064284ED8DBF8000056
:100BF000C005F5D5E06801280AD008B1052813D052
:100C0000286A20F001002862286A20F0040002E02F
:100C1000286A40F001002862E06841F2883B98B100
:100C2000FFF782FD82460BE0286A40F0040028624C
:100C3000EEE700BFFFF778FDA0EB0A0159455AD84F
:100C4000286A8007F6D50CE0FFF76EFD824605E0C6
:100C5000FFF76AFDA0EB0A0159454CD8286A8007C6
:100C6000F6D41FB1E86920F08050E861E06988B3EC
:100C70006968C1F38101022944D00228C6F8608066
:100C800004D0FFF751FD044638E034E0FFF74CFD97
:100C9000074604E0FFF748FDC01B02282BD8286850
:100CA0008001F7D4206AB0F5803F05D16868A1685B
:100CB00020F4003008436860D4E9080108436968FB
:100CC00021F4741108436860C6F86090FFF72CFDAA
:100CD000044606E025E000BFFFF726FD001B0228C2
:100CE00009D828688001F7D51BE000BFFFF71CFD7D
:100CF000001B022802D90320BDE8F88F2868800174
:100D0000F4D40EE00128F7D06868226A00F480313C
:100D1000914204D1616A00F47010884201D0012030
:100D2000EAE70020E8E7000000100240000042422D
:100D3000800442420C0000200070004010B5401EAC
:100D4000B0F1807F01D3012010BD4FF0E02460613D
:100D50000F21601701F0C9F80020A0610720206171
:100D6000002010BD70B590F83C20012A26D0012447
:100D700080F83C40022280F83D2003685A689D6854
:100D800022F070060A6832435A600D4B02689A429C
:100D900008D0B2F1804F05D00A4B9A4202D00A4BDC
:100DA0009A4204D1496825F080031943916080F884
:100DB0003D40002180F83C10084670BD022070BD07
:100DC000002C0140000400400008004010B5040061
:100DD00003D094F83D0010B107E0012010BD0020C1
:100DE00084F83C00204600F01FF8022084F83D0003
:100DF000211D206800F00CFE012084F8460084F8D4
:100E00003E0084F83F0084F8400084F8410084F8F4
:100E1000420084F8430084F8440084F8450084F8D4
:100E20003D00002010BD000008B501680B48B1F17D
:100E3000804F0BD00A4A914207D1C16941F00201AB
:100E4000C161C06900F00200009008BDC16941F0B5
:100E50000101C161C06900F00100F5E70010024026
:100E60000004004090F83D10012901D00120704796
:100E7000022180F83D1000680B49884208D0B0F18B
:100E8000804F05D00949884202D00949884204D1DF
:100E9000816801F00701062903D0016841F00101D2
:100EA0000160002070470000002C01400004004059
:100EB0000008004070B5044690F83C000025012869
:100EC00017D0012684F83C60022084F83D00206899
:100ED000826822F0770222F47F42826008685028FC
:100EE00038D00DDC20284FD005DC90B3102811D16C
:100EF0004AE0022070BD302846D040280AD13BE0AD
:100F000060282FD070280DD0B0F5805F03D0B0F5E9
:100F1000005F12D0012584F83D60002084F83C0079
:100F2000284670BDCB68D1E90121206800F0B3FDEF
:100F30002068816841F0770109E0CB68D1E901219F
:100F4000206800F0A8FD2068816841F4804181603C
:100F5000E1E719E0CA684968206800F051FE5021B5
:100F6000206806E0CA684968206800F05AFE6021DF
:100F7000206800F09AFDCEE7CA684968206800F052
:100F80003FFE40212068F4E7226801461046F0E762
:100F900010B586B000210091019102910391026881
:100FA0001B4902241B48B2F1804F23D01A4B9A42AE
:100FB0001ED18A6942F004028A618A6902F0040241
:100FC00004928A6942F008028A618969039401F0F7
:100FD00008010491C021CDE900146946FFF7AEFA7B
:100FE0000320CDE9000469460C480394FFF7A6FAF4
:100FF00006B010BD8A6942F004028A6189690394CF
:1010000001F0040104910F21CDE900146946EDE7D8
:10101000001002400008014000040040000C0140A4
:1010200070B5044690F83C0000260D4601280FD00C
:10103000012084F83C006AB1042A1DD0082A2FD070
:101040000C2A3FD00126002084F83C00304670BDB9
:10105000022070BD206800F031FD2068816941F0F8
:10106000080181612068816921F0040181612068A3
:1010700081692A69114311E0206800F047FD20686A
:10108000816941F4006181612068816921F4806196
:101090008161206881692A6941EA02218161D2E780
:1010A000206800F05FFD2068C16941F00801C1615E
:1010B0002068C16921F00401C1612068C1692A6901
:1010C000114311E0206800F079FD2068C16941F406
:1010D0000061C1612068C16921F48061C16120683B
:1010E000C1692A6941EA0221C161ACE710B5040077
:1010F00003D094F83D0010B107E0012010BD00209E
:1011000084F83C00204600F01EF8022084F83D00E0
:10111000211D206800F07CFC012084F8460084F842
:101120003E0084F83F0084F8400084F8410084F8D1
:10113000420084F8430084F8440084F8450084F8B1
:101140003D00002010BD704710B50446022249B191
:1011500004290ED0082913D094F84100012816D094
:10116000012010BD94F83E000128F9D184F83E20FA
:101170000FE094F83F000128F2D184F83F2008E006
:1011800094F840000128EBD184F8402001E084F875
:1011900041200122206800F071FC0F49206888423C
:1011A00003D1426C42F4004242642068884208D075
:1011B000B0F1804F05D00949884202D008498842E1
:1011C00004D1816801F00701062903D0016841F0CC
:1011D00001010160002010BD002C0140000400400E
:1011E0000008004038B5044690F84200202801D09D
:1011F000022038BD61B15AB1012020630020606334
:10120000204600F029FE0028F3D1216B012901D0EE
:10121000012038BD21680A684968009121680C31B5
:1012200051E8002F42F0100241E80023002BF5D1D5
:1012300038BD000070B51E4988422AD11D4C1E4899
:10124000254661680026491C61602A780144FF2A0E
:1012500001F8012C11D100780A281BD00B281BD0D3
:101260000C281DD00D281FD05FF0000000F0C6F83C
:1012700040211148FEF7A8FF66602E7001220D493B
:101280000B48FFF7AFFF0D480068016821F004012B
:10129000016070BD6420E9E7642000F00DF9E7E724
:1012A000642000F0F1F8E3E7642000F01DF9DFE7C7
:1012B000A80000201000002078010020F00000208D
:1012C000704770B5040004D094F84100002510B1B7
:1012D00006E0012070BD84F84050204600F024F85C
:1012E000242084F841002068C16821F40051C160C5
:1012F000204600F055FD2068016921F4904101610C
:101300002068416921F02A0141612068C16841F4E7
:101310000051C1606564202084F8410084F84200D7
:101320006563002070BD0000F0B585B0002406465E
:1013300000940194029403940068294988424CD196
:101340002848816941F480418161816901F48041CB
:101350000491816941F0040181618069224D00F0AE
:10136000040004904FF400700090022001900320CC
:10137000039069462846FFF7E1F82815CDE90004F7
:10138000694628460294FFF7D9F8194D1748802777
:10139000C5E90004C5E902472C616C61AC612846CF
:1013A000EC61FFF765F808B1FEF7B6FFF5636E6212
:1013B0000F4D0E484435143801C5102091C50C4816
:1013C00045F8104944306C61AC61EC61FFF750F8AE
:1013D00008B1FEF7A1FFB5636E6205B0F0BD000075
:1013E000003801400010024000080140580002404F
:1013F000F000002070477047FEE70000094A1168BE
:1014000048631368002199631368D86312681164F4
:10141000054A13685863136899631368D8631068A2
:1014200001647047180000206000002010B51448C7
:10143000FFF718FD00211248FFF786FE042110482F
:10144000FFF782FE08210E48FFF77EFE0C210C48B4
:10145000FFF77AFE0B48FFF705FD00210948FFF76B
:1014600073FE04210748FFF76FFE08210548FFF7C8
:101470006BFEBDE810400C210248FFF765BE00007E
:101480001800002060000020094A002113685963F9
:10149000136898631368D96312681064054A136867
:1014A0005863136899631368D863106801647047C0
:1014B0001800002060000020094A002113685963C9
:1014C000136898631368D96312681064054A136837
:1014D0005963136898631368D96311680864704787
:1014E0001800002060000020094A11684863136852
:1014F000002199631368D86312681164054A136860
:101500005963136898631368D96311680864704756
:1015100018000020600000200D4808B5416941F026
:10152000010141614069002200F001000090114674
:101530000E20FFF765F90E20FFF754F9002211463F
:101540000F20FFF75DF9BDE808400F20FFF74AB90B
:101550000010024070B586B0002418480094019431
:1015600002940394816941F020018161816901F055
:1015700020010491816941F004018161816901F0D8
:1015800004010491816941F00801816180690C4E78
:1015900000F008004FF440750490012229463046BF
:1015A000FFF7BCF801200095CDE90104032003906A
:1015B00069463046FEF7C2FF06B070BD001002401B
:1015C000000C014010B58EB00024079408940994D3
:1015D0000A940B941C2168460C94FEF717FE2948C8
:1015E0004FF0804101604721C0E901146321C0E947
:1015F00003148461FFF7EAFB08B1FEF78DFE4FF498
:101600008050079007A91F48FFF754FC08B1FEF768
:1016100083FE1C48FFF76AFD08B1FEF77DFE0B94C0
:101620000BA918480C94FFF79DFB08B1FEF774FE58
:101630006020CDE900040294002269461148049418
:10164000FFF7EEFC08B1FEF767FE042269460D487D
:10165000FFF7E6FC08B1FEF75FFE0822694609487D
:10166000FFF7DEFC08B1FEF757FE0C22694605487D
:10167000FFF7D6FC08B1FEF74FFE0248FFF788FCE3
:101680000EB010BD1800002010B58EB000240794D5
:10169000089409940A940B941C2168460C94FEF754
:1016A000B5FD2A48284901604721C0E9011463219A
:1016B000C0E903148461FFF789FB08B1FEF72CFE33
:1016C0004FF48050079007A92048FFF7F3FB08B1BB
:1016D000FEF722FE1D48FFF709FD08B1FEF71CFECC
:1016E0000B940BA919480C94FFF73CFB08B1FEF7CB
:1016F00013FE6020CDE900040294002269461348DD
:101700000494FFF78DFC08B1FEF706FE042269463B
:101710000E48FFF785FC08B1FEF7FEFD082269467A
:101720000A48FFF77DFC08B1FEF7F6FD0C2269467A
:101730000648FFF775FC08B1FEF7EEFD0348FFF71A
:1017400027FC0EB010BD0000000400406000002027
:101750000C4810B50A4901604FF416514160002150
:1017600081600C22C160C0E904128161C161FFF790
:10177000A8FD002803D0BDE81040FEF7CDBD10BD88
:1017800000380140A8000020FEE7FEE710B5002168
:10179000074C0A46002004EBC1131A54401CC0B287
:1017A0008028FAD3491CC9B20829F3D310BD000020
:1017B000B801002010B500204FF47A720021491CB6
:1017C0009142FCD3401C9042F8D3FFF7C3FE0120A6
:1017D00000F0B0F8BDE81040012000F0B3B870B5DB
:1017E00000240646802525FA04F0304000D0012070
:1017F00000F0A8F8012000F09DF8002000F09AF811
:10180000641CE4B2082CEED3012000F093F8BDE88C
:101810007040002000F08EB810B5012000F092F862
:10182000012000F087F8002000F08CF8BDE810409F
:10183000002000F07FB810B5002000F083F80120F0
:1018400000F078F8BDE81040012000F07BB810B53A
:10185000FFF7B0FFAE2000F07DF8D52000F07AF859
:10186000802000F077F8A82000F074F83F2000F006
:1018700071F8D32000F06EF8002000F06BF84020E3
:1018800000F068F8A12000F065F8C82000F062F8C8
:10189000DA2000F05FF8122000F05CF8812000F000
:1018A00059F8CF2000F056F8D92000F053F8F12075
:1018B00000F050F8DB2000F04DF8302000F04AF83E
:1018C000A42000F047F8A62000F044F88D2000F096
:1018D00041F8142000F03EF8AF2000F03BF8FFF78D
:1018E00055FFBDE8104000F011B810B50C4640F0AF
:1018F000B00000F02FF8102040EA141000F02AF891
:1019000004F00F00BDE8104000F024B870B5084D99
:10191000002400212046FFF7E8FF05EBC4108021DA
:1019200000F029F8641CE4B2082CF2D370BD00006A
:10193000B801002002464FF480710148FEF7EEBE68
:10194000000C014002464FF400710148FEF7E6BE6C
:10195000000C014010B50446FFF75EFF7820FFF74A
:101960003EFF0020FFF73BFF2046FFF738FFBDE8B2
:101970001040FFF760BF70B50D460646FFF74CFFFD
:101980007820FFF72CFF4020FFF729FF002404E018
:10199000305DFFF724FF641CE4B2AC42F8D3BDE82D
:1019A0007040FFF748BF70477047FEF7C3BE30B5C1
:1019B0008FB028216846FEF729FC14210AA8FEF7FB
:1019C00025FC01210804CDE9001000240294022521
:1019D0000491CDE907504FF4E01009906846FFF7F5
:1019E0001DF808B172B6FEE70F20CDE90A054FF4E5
:1019F0008060CDE90C4002210AA80E94FEF732FF68
:101A0000002801D072B6FEE70FB030BD704700006D
:101A1000F0B50268164B174C174D4FF080479842AF
:101A200005D0B84203D0A04201D0A84203D122F091
:101A300070064A683243984205D0B84203D0A042AB
:101A400001D0A84203D122F44074CA6822434C69F1
:101A500022F08002224302608A68C2620A688262BF
:101A6000984201D10969016301214161F0BD000083
:101A7000002C0140000400400008004010B501F0B7
:101A80001F030121046A99408C430462016A9A4051
:101A90001143016210BD10B5846842EA032224F4A8
:101AA0007F440A432243826010BD826822F07002A4
:101AB0000A4342F0070181607047000030B5036AB5
:101AC000026A22F0010202624268846924F073050E
:101AD0000C682C4323F002058B682B430A4DA84267
:101AE0000BD123F00805CB6822F440722B434D69DB
:101AF00023F0040315438A692A43426084614968DC
:101B00004163036230BD0000002C014030B5026A21
:101B1000036A23F010030362436884690D6824F4A8
:101B2000E64444EA05248D6822F0200242EA0512C8
:101B30000B4DA8420ED1CD6822F0800242EA051278
:101B40004D6923F4406343EA85038D6922F0400226
:101B500043EA85034360846149688163026230BD62
:101B6000002C014030B5036A026A22F480720262DE
:101B70004268C46923F4007324F073050C682C4395
:101B80008D6843EA05230C4DA8420ED1CD6823F49D
:101B9000006343EA05234D6922F4405242EA0512EC
:101BA0008D6923F4806342EA05124260C46149688A
:101BB000C163036230BD0000002C014030B5046AEF
:101BC000026A22F4805202624268C3690D6823F4FB
:101BD000E64343EA05238D6824F4005444EA0534BF
:101BE000064DA84204D14D6922F4804242EA851292
:101BF0004260C36149680164046230BD002C014049
:101C000010B5036A046A24F001040462846924F0B4
:101C1000F00444EA021423F00A020A4384610262D7
:101C200010BD10B5036A046A24F0100404628469CC
:101C300023F0A00324F4704444EA023243EA011181
:101C40008261016210BD70B5446A2068406994F8F1
:101C50004110C0F3C0100025212904D118B1E5843A
:101C6000204600F08EF82068406994F84210C0F3D6
:101C70008010222904D118B1E585204600F05AF8D9
:101C8000606C40F0100060642046FFF719FB70BDE7
:101C900010B50146406A096809684FF000028906DC
:101CA0002ED4C28501680C3151E8003F23F48073C3
:101CB00041E80034002CF5D10168143151E8003FAF
:101CC00023F0010341E80034002CF5D10168143100
:101CD00051E8003F23F0400341E80034002CF5D1E7
:101CE000202180F84210016B012909D101680C31D3
:101CF00051E8003F23F0100341E80034002CF5D1F7
:101D00004263016B012902D0FFF774FB10BD818D86
:101D1000FFF790FA10BD10B5406A01214163016BD5
:101D2000012902D0FFF767FB10BD818D4908FFF73D
:101D300081FA10BD01680C3151E8002F22F4907235
:101D400041E80023002BF5D10168143151E8002F40
:101D500022F0010241E80023002BF5D1016B01299B
:101D600009D101680C3151E8002F22F0100241E83E
:101D70000023002BF5D1202180F8421000210163BF
:101D8000704701680C3151E8002F22F0C00241E891
:101D90000023002BF5D1202180F84110704700006E
:101DA00070B5044600680169E26821F440511143AE
:101DB00001612169A0680843616908432168CA6814
:101DC00041F20C639A430243CA6020684169A269E8
:101DD00021F44071114341611E492068884202D1BB
:101DE000FEF7E6FD01E0FEF7D3FD00EBC00101EBDD
:101DF0000012606864218000B2FBF0F3B3FBF1F3E2
:101E00006FF018067343B2FBF0F5B2FBF0F605EB8A
:101E10008305322303EB0515B5FBF1F5B6FBF1F6AF
:101E200005F0F00505EB0615B2FBF0F6B2FBF0F09D
:101E3000B0FBF1F06FF01802504306EB800003EBAB
:101E40000010B0FBF1F0216800F00F00284488601A
:101E500070BD00000038014038B5816204468285BB
:101E6000002013466064222284F84220E56B1B4A5E
:101E7000AA62E56B1A4AEA62E56B1A4A2A63E26BC8
:101E800050630A462168E06B091DFEF71FFB2068BE
:101E9000016840680090206948B120680C3050E823
:101EA000001F41F4807140E80012002AF5D120683B
:101EB000143050E8001F41F0010140E80012002AF0
:101EC000F5D12068143050E8001F41F0400140E88F
:101ED0000012002AF5D1002038BD0000911C000836
:101EE000171D0008471C0008FEE70907090E002817
:101EF00004DB00F1E02080F80014704700F00F00D0
:101F000000F1E02080F8141D70470000FEF71AFC75
:101F1000FFF74DFDFFF71EFBFFF7FEFAFFF718FC7A
:101F2000FFF750FBFFF7B0FB012207490748FFF717
:101F300059F907480068016821F004010160FFF7C2
:101F400086FCFFF773FAFEE710000020A8000020CF
:101F5000F0000020010202030405060708090A0B2D
:101F60000C0D0E0F10100000000000000000010218
:101F70000304060708090000000001020304000032
:101F8000A01F000800000020180000002801000821
:101F9000B81F000818000020000C000044010008D1
:101FA0000100000010000000000000000024F40008
:081FB000000000000000000029
:04000005080000ED02
:00000001FF
